:100000000A128A1112280534FE00030EF8000408B3
:10001000F9000A08FA00831203137F08FB000A168E
:100020008A15302C0A168A15552B83120313ED01FD
:100030006E286D0AE6000130E7000030E800232852
:100040000310E70DE80DE60B20286708E9006808B3
:10005000EA00690883160313560583120313E600AA
:100060006A0883160313570583120313E700670812
:10007000660403193C283D2843286908B4066A0829
:10008000B506432843283B08013A031D4828492860
:10009000672834086905E6006608E0006D080A165E
:1000A0008A1515270A128A11013A031D5828592862
:1000B0006728831203136A08E7006908E600E60967
:1000C000E7096608B4056708B505672867280130A1
:1000D00083120313E6006608ED076E2852086D02CE
:1000E000031C732874281928ED013B2A6D08E600CB
:1000F0006607E7006708EC006C08013EE60066084A
:10010000EB00AD28982898289828872887286C081D
:10011000B63E8400831300081F39203880006B0826
:10012000B63E840000081F39203880006429642905
:100130006B08B63E84008313000EE600660C073998
:10014000023A03198728013A03198728073A031945
:10015000872864296429642964296C08B63E8400D0
:100160008313000EE600660C0739023A031998283B
:10017000013A03199828073A031998286429642931
:100180006C08203E84008018C628C728E8286B0821
:10019000203E8400801CCD28CE28D3286B08203E2A
:1001A00084008010D328DA016D080A168A155626B5
:1001B0000A128A11DB28831203136C08203E840084
:1001C000831380146C08B63E84001F3080051D2AFE
:1001D000DA01DA0A6D080A168A1556260A128A11F9
:1001E000F128831203136C08203E840083138010CF
:1001F0006C08B63E84001F3080051D2A1D2ADA01D6
:10020000DA0A6D080A168A1556260A128A11082972
:10021000831203136C08203E8400831380146B0840
:10022000203E840080101D2ADA01DA0A6D080A16C1
:100230008A1556260A128A111D29831203136C0887
:10024000203E8400831380106C08B63E84001F306B
:1002500080051D2A6B08203E8400801C302931292E
:1002600036296B08203E840080103629DA016D089B
:100270000A168A1556260A128A113E29831203137A
:100280006C08203E8400831380146C08B63E840002
:100290001F3080051D2A0230E6006608DA006D086E
:1002A0000A168A1556260A128A11013A031D59297F
:1002B0005A291D2A831203136C08203E84008313DD
:1002C00080101D2A1D2A1D2A6C08B63E8400000ECF
:1002D000E600660C0739013A03191429033A031999
:1002E000C028013A0319FF28073A03192A294B2984
:1002F0001D2A6B08203E840080187F298029A129AF
:100300006C08203E8400801C862987298C296C0873
:10031000203E840080108C29DA016D080A168A15A7
:1003200056260A128A119429831203136B08203E61
:100330008400831380146B08B63E84001F30800550
:10034000342ADA01DA0A6D080A168A1556260A12C4
:100350008A11AA29831203136B08203E8400831399
:1003600080106B08B63E84001F308005342A342A82
:10037000DA01DA0A6D080A168A1556260A128A1157
:10038000C129831203136B08203E84008313801459
:100390006C08203E84008010342ADA01DA0A6D08E5
:1003A0000A168A1556260A128A11D62983120313B1
:1003B0006B08203E8400831380106B08B63E8400D7
:1003C0001F308005342A6C08203E8400801CE929F7
:1003D000EA29EF296C08203E84008010EF29DA0119
:1003E0006D080A168A1556260A128A11F7298312F1
:1003F00003136B08203E8400831380146B08B63E01
:1004000084001F308005342A0230E6006608DA00D6
:100410006D080A168A1556260A128A11013A031D1A
:10042000122A132A342A831203136B08203E8400F5
:1004300083138010342A342A342A831203136B085E
:10044000B63E84008313000EE600660C0739013ABD
:100450000319CD29033A03197929013A0319B82957
:10046000073A0319E329042A013083120313E60033
:100470006608ED073B2A54086D02031C402A412AF6
:100480007628ED01C12C832C9F2C6D08E6000130ED
:100490000310E60DFF3E031D482A0310660DD83EEB
:1004A00084008313800103146D0D2C3E84008012A0
:1004B00003146D0D2C3E8400E33080059F2C6D08E5
:1004C000E60066072C3E840000080739023A03194B
:1004D0006A2A6B2A782A6D08E60066072C3E84009B
:1004E000000807390038031D762A772A892A782AD6
:1004F0006430E6006D08E70001300310E70DFF3EB1
:10050000031D7D2A0310670D013ED83E8400660856
:1005100080006D08E60001300310E60DFF3E031D6C
:100520008C2A0310660D013ED83E84000008803AF4
:100530007F3E03189C2A9D2AAE2A6430E6006D088F
:10054000E70001300310E70DFF3E031DA22A031050
:10055000670D013ED83E8400660880006D08E60005
:1005600001300310E60DFF3E031DB12A0310660D96
:10057000013ED83E84000008E7006D08E800013025
:100580000310E80DFF3E031DC02A0310680DD83E7E
:1005900084006708800003146D0D2C3E84008012D7
:1005A00003146D0D2C3E8400E33080059F2C6D08F4
:1005B000E60066072C3E840000080739023A03195A
:1005C000E22AE32AF02A6D08E60066072C3E840042
:1005D000000807390038031DEE2AEF2A012BF02A04
:1005E0006430E6006D08E70001300310E70DFF3EC0
:1005F000031DF52A0310670D013ED83E84006608EE
:1006000080006D08E60001300310E60DFF3E031D7B
:10061000042B0310660DD83E84000008803A7F3E0C
:10062000031C132B142B272B6D08E600013003103D
:10063000E60DFF3E031D172B0310660DD83E840008
:10064000800103146D0D2C3E840080126E2B6D080A
:10065000E60001300310E60DFF3E031D2A2B0310B8
:10066000660D013ED83E84000008803A7F3E0318A4
:100670003A2B3B2B4C2B6430E6006D08E700013031
:100680000310E70DFF3E031D402B0310670D013ED5
:10069000D83E8400660880006D08E6000130031033
:1006A000E60DFF3E031D4F2B0310660D013ED83EA5
:1006B00084000008E7006D08E80001300310E80D31
:1006C000FF3E031D5E2B0310680DD83E84006708B3
:1006D000800003146D0D2C3E8400801203146D0DF8
:1006E0002C3E8400E33080059F2C6430E6006D08CA
:1006F000E70001300310E70DFF3E031D7A2B0310C6
:10070000670DD83E84006608800003146D0D2C3EF2
:100710008400801603146D0D2C3E8400E3308005A8
:100720009F2C0130E6006608C40704304402031C15
:100730009A2B9B2B9F2CC40103146D0D2C3E84001F
:10074000801AA32BA42BFD2B6D08E60001300310AB
:10075000E60DFF3E031DA72B0310660DD83E840057
:100760000008803A1E3E0318B62BB72BC82B023068
:10077000E6006D08E70001300310E70DFF3E031DA2
:10078000BC2B0310670DD83E840066088007D82B69
:100790006430E6006D08E70001300310E70DFF3E0E
:1007A000031DCD2B0310670DD83E84006608800022
:1007B0006D08E60001300310E60DFF3E031DDB2B44
:1007C0000310660DD83E84000008803A763E031878
:1007D000EA2BEB2B4F2C0A30E6006D08E7000130C6
:1007E0000310E70DFF3E031DF02B0310670DD83EED
:1007F0008400660880004F2C4F2C6D08E600013005
:100800000310E60DFF3E031D002C0310660DD83EBD
:1008100084000008803A7D3E031C0F2C102C212CF4
:10082000FE30E6006D08E70001300310E70DFF3EE3
:10083000031D152C0310670DD83E84006608800741
:100840002E2C6D08E60001300310E60DFF3E031D5F
:10085000242C0310660DD83E840080016D08E6004C
:1008600001300310E60DFF3E031D312C0310660D11
:10087000D83E84000008803A763E0318402C412C74
:100880004F2C6D08E60001300310E60DFF3E031DFE
:10089000442C0310660DD83E840080014F2C6D0857
:1008A000E60001300310E60DFF3E031D522C03103D
:1008B000660DD83E84000008803A753E031C612C0A
:1008C000622C9F2C6D08E60001300310E60DFF3E00
:1008D000031D652C0310660DD83E84000008E70058
:1008E0006D08E80001300310E80DFF3E031D732C76
:1008F0000310680D013ED83E8400670880009F2CDD
:100900009F2C9F2C9F2C03146D0D2C3E8400831371
:10091000000CE600660C0739003A03199F2C013AD7
:100920000319452A033A03195F2A013A0319D72A02
:10093000073A0319752B013A0319912B9F2C6D0867
:10094000E60066072C3E8400831300080739E700A1
:100950006708DA006D08E80001300310E80DFF3E7B
:10096000031DAD2C0310680DD83E0A168A15BA2354
:100970000A128A11013083120313E6006608ED079C
:10098000C12C53086D02031CC62CC72C832CC82C09
:1009900008000E3083120313E7000030E800E40182
:1009A000E50167080A168A1507230A128A118312BD
:1009B0000313E100E2016108E4006208E500013090
:1009C000E7070318E80A0030E80767080A168A15DF
:1009D00007230A128A1183120313E100E20161085E
:1009E000E200E1016108E4046208E5040130E70780
:1009F0000318E80A0030E807AA306506031D022D37
:100A000055306406031D052D062D032E67080A16B2
:100A10008A1507230A128A1183120313E100E201E7
:100A20006108B4006208B5000130E7070318E80A5E
:100A30000030E80767080A168A1507230A128A1188
:100A400083120313E100E2016108E200E1016108A1
:100A5000B4046208B5040130E7070318E80A00305F
:100A6000E807E601922D67080A168A1507230A127D
:100A70008A1183120313E1006608E20001300310BB
:100A8000E20DFF3E031D3F2D0310620DD83E840092
:100A90006108831380000130E7070318E80A00307B
:100AA000E80767080A168A1507230A128A118312B3
:100AB0000313E1006608E20001300310E20DFF3E7F
:100AC000031D5D2D0310620D013ED83E84006108B8
:100AD000831380000130E7070318E80A0030E807B5
:100AE00067080A168A1507230A128A11831203134C
:100AF000E10007306105E2006608E30063072C3E71
:100B00008400831300086206F83962068000013011
:100B1000E7070318E80A0030E8070130E100610840
:100B2000E607922D53086602031C972D982D332D4E
:100B3000992D2A30E7000030E800E6010630660211
:100B4000031CA32DA42DA62DC62DC62D67080A169D
:100B50008A1507230A128A1183120313E10066081B
:100B6000CA3E84006108831380000130E707031840
:100B7000E80A0030E8070130E1006108E6070630C6
:100B80006602031CC42DC52DA62DC62D3230E700EC
:100B90000030E800E6010D306602031CD02DD12D97
:100BA000D32DF32DF32D67080A168A1507230A1291
:100BB0008A1183120313E1006608CE3E84006108A7
:100BC000831780000130E7070318E80A0030E807C0
:100BD0000130E1006108E6070D306602031CF12DCB
:100BE000F22DD32DF32D4230E7000030E8006708E6
:100BF0000A168A1507230A128A1183120313E100C9
:100C00006108D600332FDE0167080A168A15F5231E
:100C10000A128A11013083120313E7070318E80A46
:100C20000030E807DE0167080A168A15F5230A1264
:100C30008A11013083120313E7070318E80A003012
:100C4000E807B401B501E6017E2EDE0167080A1649
:100C50008A15F5230A128A11013083120313E7075C
:100C60000318E80A0030E807DE0167080A168A154B
:100C7000F5230A128A11013083120313E7070318C0
:100C8000E80A0030E8076608E10001300310E10DD2
:100C9000FF3E031D462E0310610DD83E84008313D2
:100CA00080016608E10001300310E10DFF3E031DE5
:100CB000542E0310610D013ED83E84008001DE01F8
:100CC000DE0A67080A168A15F5230A128A1101300E
:100CD00083120313E7070318E80A0030E8076608E1
:100CE000E10061072C3E840083130008F8390138C5
:100CF00080000130E1006108E6077E2E530866029D
:100D0000031C832E842E252E852E2A30E7000030EA
:100D1000E800E60106306602031C8F2E902E922E0C
:100D2000B72EB72E7830E1006108DE0067080A169A
:100D30008A15F5230A128A11013083120313E7077B
:100D40000318E80A0030E8077830E1006608CA3E78
:100D500084006108831380000130E1006108E60728
:100D600006306602031CB52EB62E922EB72E3230F8
:100D7000E7000030E800E6010D306602031CC12EDA
:100D8000C22EC42EE32EE32EDE0167080A168A1552
:100D9000F5230A128A11013083120313E70703189F
:100DA000E80A0030E8076608CE3E84008317800119
:100DB0000130E1006108E6070D306602031CE12EF8
:100DC000E22EC42EE32E4230E7000030E800D601C8
:100DD0005608E1006108DE0067080A168A15F52347
:100DE0000A128A11013083120313E7070318E80A75
:100DF0000030E8070D30E7000030E800DE01DE0AD1
:100E000067080A168A15F5230A128A11013083121F
:100E10000313E7070318E80A0030E8075530E1003C
:100E20006108DE0067080A168A15F5230A128A117E
:100E3000013083120313E7070318E80A0030E807BC
:100E4000AA30E1006108DE0067080A168A15F5235A
:100E50000A128A11013083120313E7070318E80A04
:100E60000030E807332F080083120313E101E82F55
:100E700061080A168A159E250A128A118312031325
:100E8000DD005D08E0006008A03E84008313000ED2
:100E9000DD00DD0C5D0C0139DE006008A03E840041
:100EA000000EDF005F0C01395E060319582F592F21
:100EB0006E2F6008A03E8400801A5F2F602F652F80
:100EC0006008A03E84000013692F6008A03E8400E3
:100ED00000176108B63E8400F03080056008A03E2F
:100EE0008400801A742F752FB92F6108B63E8400D4
:100EF00000080F39DD0006305D020318802F812FB6
:100F00008E2F6108B63E840000080F39DD00DD0A2F
:100F100000085D06F0395D068000922F6108B63E3C
:100F2000840000126108B63E8400001E982F992F9D
:100F3000A42F6108B63E840000081F3940388000A5
:100F40006108B63E840000126108B63E8400000EBF
:100F5000DD005D0C0739033A031DAF2FB02FE32FDF
:100F60006108B63E840000081F3920388000E32F56
:100F7000E32F6108B63E840000080F39DD0006301B
:100F80005D020318C42FC52FD62F6108B63E84001A
:100F900000080F39DD00DD0A00085D06F0395D0646
:100FA00080006108B63E84000016E32F6108B63E5B
:100FB000840000081F39603880006108B63E840054
:100FC0000012E32FE32F0130DD005D08E107E82F79
:100FD0004D086102031CED2FEE2F382FEF2F080074
:100FE0000A168A112E200A128A110A128A157120F5
:100FF0000A128A110A128A1134270A128A11080069
:10100600F00083120313941370089300941B0C28AA
:101016000D28042814160800F20052287008031D33
:101026001528192883120313BD146028FD30F1001A
:10103600710883120313BD05602860287008031D1C
:1010460025282928831203133D156028FB30F1005B
:10105600710883120313BD05602860287008031DFC
:101066003528392883120313C11760287F30F10011
:10107600710883120313C105602860287008031DD8
:1010860045284928831203133E146028FE30F100D8
:10109600710883120313BE05602860286028720851
:1010A600003A03191128013A03192128033A0319B2
:1010B6003128013A031941286028831203133C089A
:1010C60085003D0886003E0887003F0888004008E6
:1010D600890041088316031788000800831203134A
:1010E600E101F92961080A168A152C230A128A15C4
:1010F60083120313DD005D08E000E2298228600800
:10110600A03E84008313000EDD00DD0C5D0C01396A
:10111600DE006008A03E8400000EDF005F0C01398F
:101126005E06031997289828F4296008A03E8400D3
:10113600801A9E289F28A4286008A03E84000013D9
:10114600F4296008A03E840000170314610D2C3EAC
:1011560084000008E3390C388000F429F429F429C6
:101166006008A03E8400000EDD00DD0C5D0C013938
:10117600DE006008A03E8400000EDF005F0C01392F
:101186005E060319C728C828DF286008A03E840029
:10119600801ACE28CF28D4286008A03E84000013E9
:1011A600D8286008A03E840000176108DD005D07AE
:1011B6002C3E8400873080056008A03E8400801A9B
:1011C600E528E6288C296108DD005D072C3E8400B1
:1011D600000CDE00DE0C5E0C0F39DF0006305F020D
:1011E6000318F628F7281B296108DD005D072C3E49
:1011F6008400000CDE00DE0C5E0C0F39DE00DE0A19
:10120600DE0DDE0DDE0D00085E0687395E06800007
:101216006108DD005D072C3E8400801F1329142918
:101226002B290314610D2C3E840000142B292B2935
:101236006108DD005D072C3E840080130314610DF8
:101246002C3E840000100314610D2C3E8400801097
:101256006108DD005D072C3E8400801F3329342998
:1012660042290314610D2C3E84000008E3390C3832
:1012760080006108DD005D072C3E840080130314A6
:10128600610D2C3E8400801C49294A2962290314D9
:10129600610D2C3E84000008E33910388000610897
:1012A600DD005D072C3E840080130314610D2C3E87
:1012B600840000100314610D2C3E8400801003147A
:1012C600610D2C3E8400000CDD005D0C0739053AEB
:1012D600031D6E296F29F4290314610D2C3E840029
:1012E600E33080050314610D2C3E8400000EDD0002
:1012F6005D0C0139013ADE000314610D2C3E8400B9
:10130600DE0EDE0D00085E06DF395E068000F4297B
:10131600F4296108DD005D072C3E8400000CDE0028
:10132600DE0C5E0C0F39DF0006305F0203189C29C5
:101336009D29C6296108DD005D072C3E8400000C4E
:10134600DE00DE0C5E0C0F39DE00DE0ADE0DDE0D81
:10135600DE0D00085E0687395E0680006108DD0046
:101366005D072C3E840080170314610D2C3E84001B
:10137600001CBE29BF29F4290314610D2C3E8400EC
:101386008014F429F4290314610D2C3E840000080E
:10139600E339143880006108DD005D072C3E8400C7
:1013A60080130314610D2C3E840000100314610D9C
:1013B6002C3E84008010F429F429F429F4296108CC
:1013C600DD005D072C3E8400831300080739003AD0
:1013D60003198228013A0319B328033A031982280C
:1013E600F4290130DD005D08E107F9294C086102A6
:1013F600031CFE29FF297528002A080083120313FF
:10140600DD00AE2B792A5B08031D0A2A0C2ABD15BE
:10141600BF2BF730DC005C08BD05BF2BBF2B5B087C
:10142600031D162A182A3D16BF2BEF30DC005C0878
:10143600BD05BF2BBF2B5B08031D222A242ABD1620
:10144600BF2BDF30DC005C08BD05BF2BBF2B5B0864
:10145600031D2E2A302A3C14BF2BFE30DC005C080C
:10146600BC05BF2BBF2B5B08031D3A2A3C2A401440
:10147600BF2BFE30DC005C08C005BF2BBF2B5B0812
:10148600031D462A482AC016BF2BDF30DC005C0845
:10149600C005BF2BBF2B5B08031D522A542A4017D9
:1014A600BF2BBF30DC005C08C005BF2BBF2BBF2B9A
:1014B600BF2BBF2BBF2BBF2BBF2BBF2BBF2BBF2BD6
:1014C600BF2BBF2BBF2BBF2BBF2BBF2BBF2BBF2BC6
:1014D600BF2BBF2BBF2BBF2BBF2BBF2BBF2BBF2BB6
:1014E600BF2BBF2BBF2BBF2BBF2BBF2B5A08003ADE
:1014F6000319062A013A0319122A033A03191E2A66
:10150600013A03192A2A073A0319362A013A031916
:10151600422A033A03194E2A013A0319BF2B0F3AFE
:101526000319BF2B013A0319BF2B033A0319BF2B2B
:10153600013A0319BF2B073A0319BF2BBF2BBF2B49
:10154600AC2AFD30DC005C08BF05BF2BBF14BF2BE7
:10155600BF2B5A08003A0319A42A013A0319A92AEB
:10156600BF2BBF2B392B5B08031DBA2ABC2A3C159F
:10157600BF2BFB30DC005C08BC05BF2BBF2B5B0818
:10158600031DC62AC82ABC15BF2BF730DC005C0831
:10159600BC05BF2BBF2B5B08031DD22AD42A3C16E1
:1015A600BF2BEF30DC005C08BC05BF2BBF2B5B08F4
:1015B600031DDE2AE02ABC16BF2BDF30DC005C08E8
:1015C600BC05BF2BBF2B5B08031DEA2AEC2AC014FF
:1015D600BF2BFD30DC005C08C005BF2BBF2B5B08B2
:1015E600031DF62AF82A4016BF2BEF30DC005C08F4
:1015F600C005BF2BBF2B5B08031D022B042BC01796
:10160600BF2B7F30DC005C08C005BF2BBF2B5B08FF
:10161600031D0E2B102B4116BF2BEF30DC005C0890
:10162600C105BF2BBF2B5B08031D1A2B1C2BC11634
:10163600BF2BDF30DC005C08C105BF2BBF2B5B086E
:10164600031D262B282B4117BF2BBF30DC005C085F
:10165600C105BF2BBF2BBF2BBF2BBF2BBF2BBF2B58
:10166600BF2BBF2BBF2BBF2BBF2BBF2B5A08003A5C
:101676000319B62A013A0319C22A033A0319CE2AD4
:10168600013A0319DA2A073A0319E62A013A031935
:10169600F22A033A0319FE2A013A03190A2B0F3AD2
:1016A6000319162B013A0319222B033A0319BF2BF0
:1016B600013A0319BF2BBF2BBF2B922B5B08031DCF
:1016C600652B672BBD14BF2BFD30DC005C08BD0508
:1016D600BF2BBF2B5B08031D712B732B3D15BF2B37
:1016E600FB30DC005C08BD05BF2BBF2B5B08031D70
:1016F6007D2B7F2BC117BF2B7F30DC005C08C1051B
:10170600BF2BBF2B5B08031D892B8B2B3E14BF2BD6
:10171600FE30DC005C08BE05BF2BBF2BBF2B5A0872
:10172600003A0319612B013A03196D2B033A031989
:10173600792B013A0319852BBF2BBF2B5B08031DA1
:10174600A52BA72BBF15BF2BF730DC005C08BF0508
:10175600BF2BBF2BBF2B5D08003A0319792A013A2C
:101766000319AC2A033A0319392B013A0319922BB0
:10177600073A0319A12BBF2B3C0885003D088600BC
:101786003E0887003F088800400889004108831604
:1017960003178800080083120313E401B72D6408B9
:1017A600E10001300310E10DFF3E031DD52B0310B0
:1017B600610D033ED83E8400831380080319E42B91
:1017C600E52BB22D6408E10001300310E10DFF3E68
:1017D600031DE82B0310610D033ED83E840000086C
:1017E600E2006408E30001300310E30DFF3E031D31
:1017F600F72B0310630D023ED83E84006208800773
:101806006408E10001300310E10DFF3E031D062CC4
:101816000310610D033ED83E84000008803A7F3EE7
:10182600031C162C172C672C6408E10001300310EA
:10183600E10DFF3E031D1A2C0310610D023ED83E3A
:1018460084000008803AE2006408E30001300310D7
:10185600E30DFF3E031D2A2C0310630DD83E8400C2
:101866000008803AE202031C392C3A2CB62C640894
:10187600E10001300310E10DFF3E031D3D2C031076
:10188600610DD83E84000008E2006408E3000130E0
:101896000310E30DFF3E031D4B2C0310630D023EA8
:1018A600D83E8400620880006408E100013003101D
:1018B600E10DFF3E031D5A2C0310610D033ED83E79
:1018C60084008001B62CB62C6408E10001300310B8
:1018D600E10DFF3E031D6A2C0310610DD83E840006
:1018E6000008803AE2006408E30001300310E30DCB
:1018F600FF3E031D792C0310630D023ED83E840083
:101906000008803AE202031C892C8A2CB62C640853
:10191600E10001300310E10DFF3E031D8D2C031085
:10192600610DD83E84000008E2006408E30001303F
:101936000310E30DFF3E031D9B2C0310630D023EB7
:10194600D83E8400620880006408E100013003107C
:10195600E10DFF3E031DAA2C0310610D033ED83E88
:1019660084008001B62C6408E10001300310E10D0B
:10197600FF3E031DB92C0310610D023ED83E8400C4
:101986000008803A1B3E031CC92CCA2CDB2C643091
:10199600E1006408E20001300310E20DFF3E031D82
:1019A600CF2C0310620D023ED83E840061088000F1
:1019B6006408E10001300310E10DFF3E031DDE2C3B
:1019C6000310610D023ED83E8400801FEB2CEC2CE8
:1019D600FB2C6408E10001300310E10DFF3E031DFE
:1019E600EF2C0310610D023ED83E84008001FB2CD3
:1019F6004219FE2CFF2C9F2D622D622D6408E100FA
:101A060001300310E10DFF3E031D042D0310610D8F
:101A1600023ED83E84000008803A6C3E0318142D1E
:101A2600152D292D6B300A168A15E2220A128A15FF
:101A3600831203136408E1006107C23E84005A085A
:101A460083138000840A5B088000B22D6A300A1670
:101A56008A15E2220A128A15831203136408E1002A
:101A66006107C23E84005A0883138000840A5B081B
:101A76008000B22DB22D3F2D6408E1000130031025
:101A8600E10DFF3E031D422D0310610D023ED83EBF
:101A9600840000086E3E0A168A15E2220A128A158A
:101AA600831203136408E2006207C23E84005A08E8
:101AB60083138000840A5B088000B22DB22D64086F
:101AC600E10061072C3E840000080739003A03193B
:101AD6003F2D013A03193F2D033A0319012DB22D6B
:101AE600B22D9F2D6A300A168A15E2220A128A152D
:101AF600831203136408E1006107C23E84005A089A
:101B060083138000840A5B088000B22D8A2DD230B0
:101B16000A168A15E2220A128A158312031364082A
:101B2600E1006107C23E84005A0883138000840ADC
:101B36005B088000B22DB22D6408E10061072C3EDF
:101B4600840000080739003A03198A2D013A03195F
:101B56008A2D033A0319752DB22DB22DB22D0130FF
:101B6600E1006108E407B72D53086402031CBC2D8D
:101B7600BD2DD22BBE2D0800831603173A08031D70
:101B8600C52D9B2F892F892F3C0883120313B4047C
:101B9600831603173E0883120313B504831603172F
:101BA6003D0883120313E800831603173B088312CC
:101BB6000313E700E709E8096708B4056808B505EF
:101BC600EC01EB01EB0A04306C02031CEB2DEC2D4F
:101BD600EE2D262E262E8316031740088312031396
:101BE6006B050319F72DF82D022E03146C0D2C3EF0
:101BF600840083130008E33908388000022E831618
:101C060003173F08831203136B0503190B2E0C2EC3
:101C1600162E03146C0D2C3E840083130008E33942
:101C260004388000162E0130E7006708EC076B08C1
:101C3600E7006707E8006808EB0004306C02031C45
:101C4600252E262EEE2DEC01EB01EB0A06306C025A
:101C5600031C2E2E2F2E312E732E732E6C08E700AA
:101C66006707E8006808EA006A08013EE7006708B7
:101C7600E900831603174108831203136B05031942
:101C8600452E462E4F2E6A08B63E84008313000862
:101C96001F3980388000632E83160317420883128B
:101CA60003136B050319582E592E632E6908B63E89
:101CB6008400831300081F3980388000632E632E4A
:101CC6000130E7006708EC076B08E7006707E800E4
:101CD6006808EB0006306C02031C722E732E312E40
:101CE60083160317BA019B2F83120313EC010430EA
:101CF6006C02031C7F2E802E822ECF2ECF2E6C08D8
:101D0600E70067072C3E8400831300080739E800C4
:101D16006C08013EBA3E840083170008073968063E
:101D26000319962E972EC32E6C08013EBA3E8400E8
:101D360007300005E7006C08E80068072C3E8400C1
:101D4600831300086706F839670680006C08013EB1
:101D5600BA3E840083170008E7006708DE000330F8
:101D6600E8006808DA006C080A168A15A5220A1225
:101D76008A15143E0A168A15F5230A128A15C32EE9
:101D8600013083120313E7006708EC0704306C0286
:101D9600031CCE2ECF2E822E83160317BA019B2F3D
:101DA60083120313EC010D306C02031CDB2EDC2EB8
:101DB600DE2E142F142F6C08013EBA3E84008317C2
:101DC6000008E7006C08CE3E840000086706031989
:101DD600ED2EEE2E082F6C08013EBA3E8400000858
:101DE600E7006C08CE3E8400670880006C08CE3E93
:101DF60084000008E7006708DE006C08323E0A1619
:101E06008A15F5230A128A15082F01308312031347
:101E1600E7006708EC070D306C02031C132F142F24
:101E2600DE2E83160317BA019B2F83120313EC01D0
:101E360006306C02031C202F212F232F5C2F5C2FD2
:101E46006C08013EBA3E840083170008E7006C0860
:101E5600CA3E84008313000867060319332F342F04
:101E6600502F6C08013EBA3E840083170008E70035
:101E76006C08CA3E84006708831380006C08CA3E5B
:101E860084000008E7006708DE006C082A3E0A1690
:101E96008A15F5230A128A15502F0130831203136F
:101EA600E7006708EC0706306C02031C5B2F5C2F0B
:101EB600232F83160317BA019B2F8312031342188D
:101EC600652F662F792F831603173B08831203139A
:101ED600E7006708C200421C712F722F822F0A1674
:101EE6008A11B1200A128A15822F822F83160317B0
:101EF6003B0883120313E7006708C200822F83168C
:101F06000317BA019B2FBA019B2F9B2F3A08013A60
:101F16000319C72D033A0319772E013A0319D32E55
:101F2600073A0319182F013A0319602F862F9B2FA2
:101F3600831203133B08013A031DA22FA32FAE2FD2
:101F46004F08031DA72FAB2F59120130CF02AE2F1A
:101F56005916AE2FAE2FD908031DB22FB32FC62F99
:101F6600143049020318B82FB92FC22FF730E700F3
:101F76006708BF050130E7006708C907FF2FBF15CF
:101F8600C901FF2FFF2F591EC92FCA2FE42F143066
:101F960049020318CF2FD02FD52FF730E700670857
:101FA600BF05D72FBF15D72F0130E7006708C90730
:101FB60028304902031CE02FE12FFF2FC901FF2F14
:101FC600FF2F0A3049020318E92FEA2FEF2FF730C7
:101FD600E7006708BF05F12FBF15F12F0130E700B5
:101FE6006708C90714304902031CFA2FFB2FFF2F7D
:0A1FF600C901FF2FFF2FFF2F080085
:1020040083120313DE01DF0107285A1C0A280B2858
:1020140011285C08DE070318DF0A5D08DF070130BA
:102024000310DC0DDD0DFF3E031D122801300310EB
:10203400DB0CDA0CFF3E031D19285B085A04031D50
:1020440024282528072826285F08DB01DB075E08EB
:10205400DA01DA072D28080083120313E201A92804
:10206400620ADD000130DE000030DF003C2803108E
:10207400DE0DDF0DDD0B39285E08E0005F08E100AE
:1020840062080A168A156C240A168A11831203132D
:10209400DD005D08E3006308A03E84008313000EA6
:1020A400DD00DD0C5D0C0139DE006308A03E840018
:1020B400000EDF005F0C01395E06031962286328F5
:1020C40090286308A03E8400801A69286A287F2823
:1020D4006308A03E840000136108DE006008DD0090
:1020E400DD09DE095D0883160313D6058312031385
:1020F4005E0883160313D705A22883126308A03E43
:1021040084000017600883160313D6048312031394
:10211400610883160313D704A228A2288312610836
:10212400DE006008DD00DD09DE095D0883160313A7
:10213400D605831203135E0883160313D705A2285A
:10214400013083120313DD005D08E207A9284B0860
:102154006202031CAE28AF283228B02808001030D1
:1021640083120313E5000030E6003408E10061083F
:10217400E3006308E1006108DE0065080A168A15B9
:10218400F5230A168A11013083120313E507031895
:10219400E60A0030E6073508E1006108E300630859
:1021A400E1006108DE0065080A168A15F5230A169F
:1021B4008A11013083120313E5070318E60A00307D
:1021C400E607E4012F296408E10001300310E10D62
:1021D400FF3E031DE8280310610DD83E84008313DD
:1021E4000008E2006208DE0065080A168A15F52375
:1021F4000A168A11013083120313E5070318E60A4D
:102204000030E6076408E10001300310E10DFF3EF1
:10221400031D07290310610D013ED83E840083137A
:102224000008E2006208DE0065080A168A15F52334
:102234000A168A11013083120313E5070318E60A0C
:102244000030E6070130E5070318E60A0030E60728
:102254000130E1006108E4072F2953086402031CDC
:1022640034293529E52836294230E5000030E600D6
:1022740065080A168A1507230A168A11013E831275
:102284000313E1006108D5005508FF3A031D4B29EB
:102294004C294F29D501D50A4F295508E100610879
:1022A400DE0065080A168A15F5230A168A11080045
:1022B4000A168A110C230A168A110A168A1117247F
:1022C4000A168A110A168A158F220A168A110A1604
:1022D4008A1589270A168A110A168A1585230A1669
:1022E4008A110A128A11C9240A168A110A168A1531
:1022F4004A250A168A118B170B178C29FB30831277
:102304000313EE006E088316031388058312031368
:102314008C108C29831203138C18912992298029FB
:10232400942994290A168A1589270A168A110C30C9
:10233400831203134502031CA029A129C9290C30C7
:10234400C50265304502031CA829A929AB29C5018A
:10235400AB290130EE006E08C8070A168A15B526A7
:102364000A168A11831203134708031DBA29C929BF
:102374000130C702C708031DC029C129C9290A168B
:102384008A15BF220A168A11C929C929C9293C30CC
:10239400831203134A02031CD029D129E1293C30BA
:1023A400CA0265304A02031CD829D929DB29CA018B
:1023B400DB290A128A15CE230A168A11E12908306C
:1023C400831203134802031CE829E9299429C8014C
:1023D4000130EE006E08C60719304602031CF329CB
:1023E400F429F829C601BB01BB0AF8290A128A118B
:1023F400F0270A168A110A128A1115200A168A1160
:102404000A128A15BF250A168A110A168A159A22F3
:102414000A168A1183120313BB019429942994295F
:102424000A128A11122883120313C21C1A2A1B2AA5
:102434001D2A0B2B0B2B05306F020318222A232A8B
:10244400282A0130E0006008EF07282AE101042B64
:1024540005306F02031C2F2A302AFD2A6108203E12
:1024640084008313000C0139E0006108203E8400DD
:102474000008013960060319402A412AFD2A61181F
:10248400442A452A902A6108203E8400801C4B2A55
:102494004C2A902A6108013E203E8400001C532AE5
:1024A400542A742A6108013E203E84008010610889
:1024B400013E203E84008018642A672A6108013E98
:1024C400203E840083130014692A831300108312AE
:1024D4000313EF016108013E0A168A15FA240A164D
:1024E4008A110B2B831203136108203E840083138B
:1024F4008018802A832A6108203E840083130014F4
:10250400852A8313001083120313EF0161080A164E
:102514008A15FA240A168A110B2B0B2B611C932A99
:10252400942ADF2A6108203E8400801C9A2A9B2A70
:10253400DF2A6108FF3E203E8400001CA22AA32A51
:10254400C32A6108FF3E203E840080106108FF3EDC
:10255400203E84008018B32AB62A6108FF3E203E3C
:10256400840083130014B82A831300108312031306
:10257400EF016108FF3E0A168A15FA240A168A1129
:102584000B2B831203136108203E840083138018ED
:10259400CF2AD22A6108203E840083130014D42A4F
:1025A4008313001083120313EF0161080A168A15BE
:1025B400FA240A168A110B2B0B2B831203136108BE
:1025C400203E840083138018EB2AEE2A6108203E03
:1025D400840083130014F02A83130010831203135E
:1025E400EF0161080A168A15FA240A168A110B2BC0
:1025F4000B2B0B2BFD2A013083120313E000600820
:10260400E107042B51086102031C092B0A2B2A2A17
:102614000B2B080083120313CE01C801C501C901A5
:10262400B401B50183160313D601D7018312031332
:10263400DB0116305B02031C202B212B232B3F2BA9
:102644003F2B5B08A03E8400831300105B08A03E70
:102654008400E13080055B08A03E840080125B08A2
:10266400A03E840000130130DA005A08DB0716305C
:102674005B02031C3E2B3F2B232BDB0104305B024C
:10268400031C452B462B482B792B792B5B08DA004E
:102694005A072C3E840083130008F839013880005F
:1026A4005B08DA005A072C3E8400873080055B08FB
:1026B400DA005A072C3E8400801303145B0D2C3E71
:1026C4008400001003145B0D2C3E8400801003145E
:1026D4005B0D2C3E8400E33080050130DA005A089B
:1026E400DB0704305B02031C782B792B482BDB01BE
:1026F4000C305B02031C7F2B802B822B9B2B9B2B90
:102704005B08B63E8400F030831380055B08B63E58
:10271400840000125B08B63E84001F30800501303F
:10272400DA005A08DB070C305B02031C9A2B9B2B44
:10273400822BDB010C305B02031CA12BA22BA42BEC
:10274400BC2BBC2B5B08203E8400831300145B0865
:10275400203E840080105B08DB3E840083178001E8
:102764000130DA005A08DB070C305B02031CBB2B78
:10277400BC2BA42BDB0104305B02031CC22BC32B38
:10278400C52BF92BF92B5B08DA0001300310DA0DA5
:10279400FF3E031DC82B03105A0DD83E840083133B
:1027A40080015B08DA0001300310DA0DFF3E031DDF
:1027B400D62B03105A0D023ED83E840080015B08DC
:1027C400DA0001300310DA0DFF3E031DE42B031081
:1027D4005A0D033ED83E840080010130DA005A08C5
:1027E400DB0704305B02031CF82BF92BC52BC20159
:1027F400BC01BD01BE01BF01C001C1010230DA004C
:102804005A08D000CB01CB0AD201D20ACC01CC0A9F
:10281400D301D30A0230DA005A08CD000230DA00BC
:102824005A08D100D401D40A080083160313910175
:102834000330831203178700831603138F010C30B0
:10284400831203139D005C309B003030DA005A0879
:102854009D04F930831603139200831203138C1022
:10286400831603138C1004308312031392008330F5
:1028740083160313810082308312031381000B112A
:102884008B161630831203178900C030831203138A
:10289400DA005A0883160313870424309300940142
:1028A400831203139401363094008C11831603139E
:1028B4008C15061483160317851505158514051440
:1028C400871607168715071587140714831603132D
:1028D4008817081788160816871607160814871508
:1028E400071587148514F73083120313DA005A0886
:1028F400831603138805F73083120313DA005A088A
:10290400831603138605EF3083120313DA005A0883
:10291400831603138605DF3083120313DA005A0883
:10292400831603138605FE3083120313DA005A0854
:10293400831603138505FE3083120313DA005A0845
:10294400831603138905DF3083120313DA005A0850
:10295400831603138905BF3083120313DA005A0860
:102964008316031389050815FD3083120313DA0057
:102974005A08831603138805FB3083120313DA0005
:102984005A08831603138505F73083120313DA00FC
:102994005A08831603138505EF3083120313DA00F4
:1029A4005A08831603138505DF3083120313DA00F4
:1029B4005A08831603138505FD3083120313DA00C6
:1029C4005A08831603138905EF3083120313DA00C0
:1029D4005A088316031389057F3083120313DA0020
:1029E4005A08831603138905EF3083120313DA00A0
:1029F4005A08831603178505DF3083120313DA00A0
:102A04005A08831603178505BF3083120313DA00AF
:102A14005A08831603178505FD3083120313DA0061
:102A24005A08831603138605FB3083120313DA0056
:102A34005A088316031386057F3083120313DA00C2
:102A44005A08831603178505FE3083120313DA0030
:102A54005A0883160313870583120313BD143D1507
:102A6400C1173E143C0885003D0886003E088700D7
:102A74003F0888004008890041088316031788002E
:102A84006400080083120313DA00DB01222E061C03
:102A94004C2D4D2D662EDB01DB0A662E662E831629
:102AA4000317881D562D572D662E83120313DB0141
:102AB400DB0A662E662E83160317081D622D632D0E
:102AC400662E83120313DB01DB0A662E662E831641
:102AD4000317881C6E2D6F2D662E83120313DB01E2
:102AE400DB0A662E662E83160317081C7A2D7B2DAF
:102AF400662E83120313DB01DB0A662E662E831611
:102B04000317891E862D872D662E83120313DB017E
:102B1400DB0A662E662E83160317091E922D932D4B
:102B2400662E83120313DB01DB0A662E662E8316E0
:102B34000317891D9E2D9F2D662E83120313DB011F
:102B4400DB0A662E662E83160317091DAA2DAB2DEC
:102B5400662E83120313DB01DB0A662E662E8316B0
:102B64000317891CB62DB72D662E83120313DB01C0
:102B7400DB0A662E662E83160317091CC22DC32D8D
:102B8400662E83120313DB01DB0A662E662E881F72
:102B9400CC2DCD2D662EDB01DB0A662E662E081F9A
:102BA400D42DD52D662EDB01DB0A662E662E881EFB
:102BB400DC2DDD2D662EDB01DB0A662E662E081E5B
:102BC400E42DE52D662EDB01DB0A662E662E871EBC
:102BD400EC2DED2D662EDB01DB0A662E662E071E1C
:102BE400F42DF52D662EDB01DB0A662E662E081CFD
:102BF400FC2DFD2D662EDB01DB0A662E662E871D5D
:102C0400042E052E662EDB01DB0A662E662E071DBA
:102C14000C2E0D2E662EDB01DB0A662E662E871C1B
:102C2400142E152E662EDB01DB0A662E662E851CFD
:102C34001C2E1D2E662EDB01DB0A662E662E662EEA
:102C44005A08003A0319492D013A0319512D033A40
:102C540003195D2D013A0319692D073A0319752DDE
:102C6400013A0319812D033A03198D2D013A0319F1
:102C7400992D0F3A0319A52D013A0319B12D033AE1
:102C84000319BD2D013A0319C92D073A0319D12D92
:102C9400013A0319D92D033A0319E12D013A031915
:102CA400E92D1F3A0319F12D013A0319F92D033ABD
:102CB4000319012E013A0319092E073A0319112E9B
:102CC400013A0319192E662E83120313DB08031D20
:102CD4006C2E6D2E702EDB01DB0A722EDB01722E40
:102CE4005B08742E0800831603131408F10071089E
:102CF400FC003C30F100710883120313CF00FC1A6E
:102D0400842E852EB32E7C19882E892EB32E7C1CFE
:102D14008C2E8D2EB32EFC1D902E912EB32E64007E
:102D24008312031343161430F1007108B7000A1616
:102D34008A1582220A168A11F10071088312031778
:102D4400A00083120313B801FD01FD0AD801D901C3
:102D5400141FAD2EAE2EFF2FD915D9141413FF2F27
:102D6400FF2FFC1EB62EB72E8A2F7C19BA2EBB2E2F
:102D74008A2F7C1CBE2EBF2E8A2F7D08143A031D79
:102D8400C42EC52ECC2E5915D9141330F100710858
:102D9400FD00CC2E141FCF2ED02ED42ED915D9142D
:102DA4001413D42E0A168A1582220A168A11F100E7
:102DB4007D08203E84007108831780007D08203E32
:102DC40084000008F100710883120313B8077D081A
:102DD400013A031DEE2EEF2E342F0E2F0E2F0A3044
:102DE400F1007108B700222F0A30F1007108B70012
:102DF400222F1230F1007108B700222F0A30F1009F
:102E04007108B700222F0330F1007108B700222F98
:102E14005915D914222F222F7D08203E8400000842
:102E2400013A0319F12E033A0319F62E013A031954
:102E3400FB2E073A0319002F013A0319052F0A2F15
:102E44007D08203E84000008F1007108D800D913E1
:102E540015303702031C2F2F302F852F5915D91405
:102E6400852F852F7D0837020318392F3A2F3D2FE0
:102E74005915D914852F7D083706031D422F432F7A
:102E8400852F3808031D472F4A2F5914D914852F2D
:102E9400591083160317BA08031D512F522F7C2F84
:102EA400F201F20AF301722F7308143A031D5B2F27
:102EB4005C2F5F2F0130F3025F2F7208203E8400E5
:102EC4000008F1007308BA3E8400710880000130E4
:102ED400F1007108F2070130F1007108F307722F55
:102EE40072087D020318772F782F562F831203134D
:102EF400D910852F83120313D914852F852F852F7D
:102F0400852F852F852F0130F1007108FD07FF2FD4
:102F1400FC1A8D2F8E2FA62F7C1D912F922FA62F5A
:102F24007C18952F962FA62FFC1D992F9A2FA62F2C
:102F3400B9015808F1007108BA0058080A128A1534
:102F440003200A168A11FF2FFC1EA92FAA2FEB2F8C
:102F54007C1DAD2FAE2FEB2F7C18B12FB22FEB2F92
:102F6400E02FE02F59080A128A1503200A168A1145
:102F7400831203135908F1007108BA070130F100F4
:102F84007108B907FF2FBA090130F1007108BA07B7
:102F94003A080A128A1503200A168A110130F10030
:102FA400710883120313B907FF2FD91755300A127A
:102FB4008A1503200A168A11FF2FFF2F8312031389
:102FC4003908003A0319B42F013A0319C52FD72F32
:102FD400FF2FFC1EEE2FEF2FFF2F7C19F22FF32F64
:102FE400FF2F7C18F62FF72FFF2F43126400FF2FBB
:0C2FF400FF2FFF2FFF2FFF2FFF2F0800E3
:10350400831203131308862A080064008001840AC6
:103514000406031900340406882AFD0183120313E8
:10352400B901B601BA01B80183160317BA0108003C
:103534000A168A15AC240A168A150A168A11152247
:103544000A168A15080083120313DD00DC015D1CD2
:10355400AC2AAD2AB22A5A08DB005B08DC07B22A7F
:103564000310DA0D0310DD0CDD08031DBA2ABB2A93
:10357400A92ABC2A5C08BE2A080083120313DF01AF
:10358400D52A5F08DE005E08DA00DB0102300A1289
:103594008A1501220A168A15013083120313DE00EC
:1035A4005E08DF07D52A51085F02031CDA2ADB2AEA
:1035B400C32ADC2A9B01CF30DE005E089D0508008B
:1035C40083120313DE005E08DC00DD010130FF001E
:1035D4000310DC0DDD0DFF0BEA2A5C08143EDF004E
:1035E4005D080318013E003EE000FE30DF050130B7
:1035F400E0050030DF040630E0046008DB01DB078F
:103604005F08DA01DA07062B080083120313DB00D4
:103614006400831603178C18102B112B0A2B122B02
:10362400831203135B08831203178D003F30831248
:103634000313DA005A08831603178C050C140310BD
:103644000C180314003003180130831203170C08FC
:103654002B2B080083120313DB00DC01442BDC0159
:10366400DC0A522B0830DA005A08DC00522B0D30E9
:10367400DA005A08DC00522B1130DA005A08DC0058
:10368400522B522B5B08003A0319312B013A0319D0
:10369400342B033A0319392B013A03193E2B522BCD
:1036A4005C08542B0800FC01FD01831320308400C6
:1036B4005A300A168A1587220A168A158317A030EB
:1036C4008400E7300A168A1587220A168A1583139E
:1036D400A0308400E8300A168A1587220A168A1553
:1036E40083172030840034300A168A1587220A167C
:1036F4008A150A128A1103200A168A15EF0083011B
:103704000A168A115A290D3083120313E30000307C
:10371400E40063080A168A1507230A168A15831219
:103724000313E1006108E2000130E3070318E40A2F
:103734000030E4076208013A0319A12BA22BB92B2C
:10374400DE0163080A168A15F5230A168A15013064
:1037540083120313E3070318E40A0030E407DE01CD
:1037640063080A168A15F5230A168A15B92B080068
:1037740083120313DD005D08840083130008803A7C
:103784001B3E031CC62BC72BCD2B6430DB005D080E
:1037940084005B0880005D088400801FD22BD32B3B
:1037A400D62B5D08840080015D08023E8400000879
:1037B400DB005D08840000085B060319E22BE32BA1
:1037C400F42B5D0884000008DB005D08023E8400E1
:1037D4000003FF3A5B07DC005D08033E84005C08DD
:1037E4008000F42B080083120313E000F92B8316E6
:1037F40003178C18FE2BFF2BF92B002C83120313B9
:103804006008831203178D00831203135E0883126A
:1038140003178C003F3083120313DF005F08831605
:1038240003178C058312031303108B1F1A2C1B2CF4
:103834001C2C03148B13831603170C1555308D00A1
:10384400AA308D008C140C1183120313031C2B2C2F
:103854002C2C2F2C8B172F2C2F2C08000B1D332CCA
:10386400342C4D2C8B1E372C382C4D2CCE01CE0AEB
:103874000130F7007708C5070130F7007708CA0759
:103884000A168A15F9250A168A158230831203133B
:1038940081020B114D2C8C1D502C512C5F2C8C1142
:1038A400831603138C1D572C582C5F2C0A168A116F
:1038B40075260A168A155F2C5F2C7B088312031366
:1038C400FF007A088A0079088400780E8300FE0ECF
:1038D4007E0E090083120313DB00DC01922CDC0151
:1038E400A92C0230DA005A08DC00A92C0330DA00D3
:1038F4005A08DC00A92C0930DA005A08DC00A92C8B
:103904000A30DA005A08DC00A92C0E30DA005A0812
:10391400DC00A92C1230DA005A08DC00A92CA92CEE
:103924005B08003A0319712C013A0319732C033A0A
:103934000319782C013A03197D2C073A0319822CB8
:10394400013A0319872C033A03198C2CA92C5C081F
:10395400AB2C080083120313E301F22C630ADE008C
:103964000130DF000030E000BA2C0310DF0DE00D61
:10397400DE0BB72C5F08E1006008E2006108340543
:10398400DE0062083505DF005F085E04031DCB2CF2
:10399400CC2CDC2C4219CF2CD02CDC2C6308DE0080
:1039A4005E08DA00DB0100300A128A1501220A16C9
:1039B4008A15EB2C831203136308DE005E08DA0019
:1039C400DB01DB0A00300A128A1501220A168A1565
:1039D400EB2C013083120313DE005E08E307F22CA4
:1039E40052086302031CF72CF82CB02CF92C0800A5
:1039F40083120313DF005F08203E84008313001842
:103A0400042D052D262DDA01DB0101300A128A1559
:103A140001220A168A155C30831203139B0030308E
:103A2400DE005E089D041430DE005E08C7005F08F7
:103A3400DE005E08DA00DB01DB0A02300A128A15B6
:103A440001220A168A15492D83120313DA01DA0AB0
:103A5400DB0101300A128A1501220A168A15831223
:103A640003139B01CF30DE005E089D051430DE0099
:103A74005E08C7005F08DE005E08DA00DB01DB0ACF
:103A840002300A128A1501220A168A15492D0800E5
:103A940083120313E20104306202031C522D532DDE
:103AA400802D9D2D9D2D802D6B300A168A15E222C6
:103AB4000A168A15831203136208E1006107C23EE5
:103AC40084005A0883138000840A5B088000922DC6
:103AD4006B2D6E300A168A15E2220A168A15831295
:103AE40003136208E1006107C23E84005A0883138D
:103AF4008000840A5B088000922D922D6208E10008
:103B040061072C3E8400831300080739003A031927
:103B14006B2D013A03196B2D033A0319562D922D7F
:103B24000130E1006108E20704306202031C9B2DAE
:103B34009C2D802D9D2D080083120313DB00DC01D6
:103B4400D62D0430DA005A08DC00F62D0530DA00F0
:103B54005A08DC00F62D0630DA005A08DC00F62D8F
:103B64000730DA005A08DC00F62D0B30DA005A0868
:103B7400DC00F62D0C30DA005A08DC00F62D0F308C
:103B8400DA005A08DC00F62D1030DA005A08DC009E
:103B9400F62D1330DA005A08DC00F62D1430DA0062
:103BA4005A08DC00F62DF62D5B08003A0319A32D04
:103BB400013A0319A82D033A0319AD2D013A03194B
:103BC400B22D073A0319B72D013A0319BC2D033A54
:103BD4000319C12D013A0319C62D0F3A0319CB2D30
:103BE400013A0319D02DF62D5C08F82D0800831234
:103BF400031353085702031C002E012E032ED70172
:103C0400032E5708F3007307C23E84008313000891
:103C1400840A000403190F2E102E502E5708F300A7
:103C24007307C23E84000008F400840A0008F5000B
:103C3400741C1D2E1E2E272EF001F00A57080A129E
:103C44008A150F200A168A15312EF00183120313E8
:103C540057080A128A150F200A168A15312E831264
:103C640003135708F3007307C23E8400831300084C
:103C7400F400840A0008F50001300310F50CF40C7C
:103C8400FF3E031D3F2E5708F6007607C23E840010
:103C940074088000840A75088000552E0130F300F2
:103CA4007308D707552E080083120313DD00DC01C7
:103CB40054085D0203185F2E602E672E06305D02E5
:103CC400031C652E662EA72E672E0130B42EB42E4B
:103CD400A72E5D08CA3E840083138008031D732E3B
:103CE400742E7B2E7830DB005D08CA3E84005B08AE
:103CF40080005D08CA3E84000008DB005D08D03EF9
:103D040084005B088000B22E5D08D03E84008313DB
:103D14008001B22E5D08D03E84008313800803190D
:103D2400942E952EA22E3B08013A031D9A2E9B2E0B
:103D3400B22E5D08D03E840001308002B22EB22E35
:103D4400DC01DC0AB22EB22EB22E5A08003A031954
:103D54006B2E013A0319862E033A03198C2EB22EC8
:103D64005C08B42E080083120313DE010D2F5E08D5
:103D74000A168A1144250A168A1583120313DC00D5
:103D84005C08DD005E08A03E84008313000801394E
:103D94005D060319CE2ECF2EDC2E5E08A03E8400D5
:103DA4005D080010031D00145E08A03E8400E1308D
:103DB4008005062F5E08A03E8400000C0F39DC004D
:103DC40004305C020318E72EE82EF62E5E08A03EAF
:103DD4008400000C0F39DC00DC0ADC0D00085C06F2
:103DE400E1395C068000062F5E08A03E84000018BE
:103DF400FF2E022F5E08A03E840083138016042F3A
:103E040083138012062F062F013083120313DC0064
:103E14005C08DE070D2F50085E02031C122F132FBF
:103E2400B92E142F080083120313E500E40152088D
:103E3400650203181E2F1F2F262F0D306502031C49
:103E4400242F252F292F262F6408882F882FE00858
:103E5400031D2D2F2E2F3A2F6508E1006107A03E88
:103E64008400003083178000840A00308000862F8D
:103E74006508E1006107A03E840083170008840AF6
:103E840000040319462F472F642F6508E1006107DA
:103E9400A03E840001308002840F0030031C8003A4
:103EA400800284036508E1006107A03E84000008E5
:103EB400840A0004031D5F2F602F862FE401E40AA7
:103EC400862F862F6508CE3E84000008E100E201BB
:103ED4006108DA006208DB003C30DC000030DD0001
:103EE4000A168A1102200A168A158312031365081A
:103EF400E3006307A03E84005A0883178000840A05
:103F04005B088000862F862F6408882F08001530F0
:103F140083120313DA005A08D0000730DA005A0873
:103F2400CB000730DA005A08D2000430DA005A080D
:103F3400CC000430DA005A08D3000A30DA005A08F8
:103F4400CD000A30DA005A08D1005108DA00031013
:103F54005A0CDB005B08D40017305002031CB32F4B
:103F6400B42FB82F1630DA005A08D0000E304B02A6
:103F7400031CBD2FBE2FC22F0D30DA005A08CB0010
:103F84000E305202031CC72FC82FCC2F0D30DA007D
:103F94005A08D20005304C02031CD12FD22FD62F41
:103FA4000430DA005A08CC0005305302031CDB2F1E
:103FB400DC2FE02F0430DA005A08D3000D304D0214
:103FC400031CE52FE62FEA2F0C30DA005A08CD0047
:103FD4000D305102031CEF2FF02FF42F0C30DA00B8
:103FE4005A08D10007305402031CF92FFA2FFF2F6F
:0C3FF4000630DA005A08D400FF2F080045
:02400E00F2FFBF
:00000001FF
