:100000000A128A1112280534FE00030EF8000408B3
:10001000F9000A08FA00831203137F08FB000A168E
:100020008A15962C0A168A15832B83120313ED0169
:100030006E286D0AE6000130E7000030E800232852
:100040000310E70DE80DE60B20286708E9006808B3
:10005000EA00690883160313560583120313E600AA
:100060006A0883160313570583120313E700670812
:10007000660403193C283D2843286908B4066A0829
:10008000B506432843283B08013A031D4828492860
:10009000672834086905E6006608E0006D080A1262
:1000A0008A1500200A128A11013A031D582859287E
:1000B0006728831203136A08E7006908E600E60967
:1000C000E7096608B4056708B505672867280130A1
:1000D00083120313E6006608ED076E2852086D02CE
:1000E000031C732874281928ED013B2A6D08E600CB
:1000F0006607E7006708EC006C08013EE60066084A
:10010000EB00AD28982898289828872887286C081D
:10011000B63E8400831300081F39203880006B0826
:10012000B63E840000081F39203880006429642905
:100130006B08B63E84008313000EE600660C073998
:10014000023A03198728013A03198728073A031945
:10015000872864296429642964296C08B63E8400D0
:100160008313000EE600660C0739023A031998283B
:10017000013A03199828073A031998286429642931
:100180006C08203E84008018C628C728E8286B0821
:10019000203E8400801CCD28CE28D3286B08203E2A
:1001A00084008010D328DA016D080A168A156826A3
:1001B0000A128A11DB28831203136C08203E840084
:1001C000831380146C08B63E84001F3080051D2AFE
:1001D000DA01DA0A6D080A168A1568260A128A11E7
:1001E000F128831203136C08203E840083138010CF
:1001F0006C08B63E84001F3080051D2A1D2ADA01D6
:10020000DA0A6D080A168A1568260A128A11082960
:10021000831203136C08203E8400831380146B0840
:10022000203E840080101D2ADA01DA0A6D080A16C1
:100230008A1568260A128A111D29831203136C0875
:10024000203E8400831380106C08B63E84001F306B
:1002500080051D2A6B08203E8400801C302931292E
:1002600036296B08203E840080103629DA016D089B
:100270000A168A1568260A128A113E298312031368
:100280006C08203E8400831380146C08B63E840002
:100290001F3080051D2A0230E6006608DA006D086E
:1002A0000A168A1568260A128A11013A031D59296D
:1002B0005A291D2A831203136C08203E84008313DD
:1002C00080101D2A1D2A1D2A6C08B63E8400000ECF
:1002D000E600660C0739013A03191429033A031999
:1002E000C028013A0319FF28073A03192A294B2984
:1002F0001D2A6B08203E840080187F298029A129AF
:100300006C08203E8400801C862987298C296C0873
:10031000203E840080108C29DA016D080A168A15A7
:1003200068260A128A119429831203136B08203E4F
:100330008400831380146B08B63E84001F30800550
:10034000342ADA01DA0A6D080A168A1568260A12B2
:100350008A11AA29831203136B08203E8400831399
:1003600080106B08B63E84001F308005342A342A82
:10037000DA01DA0A6D080A168A1568260A128A1145
:10038000C129831203136B08203E84008313801459
:100390006C08203E84008010342ADA01DA0A6D08E5
:1003A0000A168A1568260A128A11D629831203139F
:1003B0006B08203E8400831380106B08B63E8400D7
:1003C0001F308005342A6C08203E8400801CE929F7
:1003D000EA29EF296C08203E84008010EF29DA0119
:1003E0006D080A168A1568260A128A11F7298312DF
:1003F00003136B08203E8400831380146B08B63E01
:1004000084001F308005342A0230E6006608DA00D6
:100410006D080A168A1568260A128A11013A031D08
:10042000122A132A342A831203136B08203E8400F5
:1004300083138010342A342A342A831203136B085E
:10044000B63E84008313000EE600660C0739013ABD
:100450000319CD29033A03197929013A0319B82957
:10046000073A0319E329042A013083120313E60033
:100470006608ED073B2A54086D02031C402A412AF6
:100480007628ED01C12C832C9F2C6D08E6000130ED
:100490000310E60DFF3E031D482A0310660DD83EEB
:1004A00084008313800103146D0D2C3E84008012A0
:1004B00003146D0D2C3E8400E33080059F2C6D08E5
:1004C000E60066072C3E840000080739023A03194B
:1004D0006A2A6B2A782A6D08E60066072C3E84009B
:1004E000000807390038031D762A772A892A782AD6
:1004F0006430E6006D08E70001300310E70DFF3EB1
:10050000031D7D2A0310670D013ED83E8400660856
:1005100080006D08E60001300310E60DFF3E031D6C
:100520008C2A0310660D013ED83E84000008803AF4
:100530007F3E03189C2A9D2AAE2A6430E6006D088F
:10054000E70001300310E70DFF3E031DA22A031050
:10055000670D013ED83E8400660880006D08E60005
:1005600001300310E60DFF3E031DB12A0310660D96
:10057000013ED83E84000008E7006D08E800013025
:100580000310E80DFF3E031DC02A0310680DD83E7E
:1005900084006708800003146D0D2C3E84008012D7
:1005A00003146D0D2C3E8400E33080059F2C6D08F4
:1005B000E60066072C3E840000080739023A03195A
:1005C000E22AE32AF02A6D08E60066072C3E840042
:1005D000000807390038031DEE2AEF2A012BF02A04
:1005E0006430E6006D08E70001300310E70DFF3EC0
:1005F000031DF52A0310670D013ED83E84006608EE
:1006000080006D08E60001300310E60DFF3E031D7B
:10061000042B0310660DD83E84000008803A7F3E0C
:10062000031C132B142B272B6D08E600013003103D
:10063000E60DFF3E031D172B0310660DD83E840008
:10064000800103146D0D2C3E840080126E2B6D080A
:10065000E60001300310E60DFF3E031D2A2B0310B8
:10066000660D013ED83E84000008803A7F3E0318A4
:100670003A2B3B2B4C2B6430E6006D08E700013031
:100680000310E70DFF3E031D402B0310670D013ED5
:10069000D83E8400660880006D08E6000130031033
:1006A000E60DFF3E031D4F2B0310660D013ED83EA5
:1006B00084000008E7006D08E80001300310E80D31
:1006C000FF3E031D5E2B0310680DD83E84006708B3
:1006D000800003146D0D2C3E8400801203146D0DF8
:1006E0002C3E8400E33080059F2C6430E6006D08CA
:1006F000E70001300310E70DFF3E031D7A2B0310C6
:10070000670DD83E84006608800003146D0D2C3EF2
:100710008400801603146D0D2C3E8400E3308005A8
:100720009F2C0130E6006608C40704304402031C15
:100730009A2B9B2B9F2CC40103146D0D2C3E84001F
:10074000801AA32BA42BFD2B6D08E60001300310AB
:10075000E60DFF3E031DA72B0310660DD83E840057
:100760000008803A1E3E0318B62BB72BC82B023068
:10077000E6006D08E70001300310E70DFF3E031DA2
:10078000BC2B0310670DD83E840066088007D82B69
:100790006430E6006D08E70001300310E70DFF3E0E
:1007A000031DCD2B0310670DD83E84006608800022
:1007B0006D08E60001300310E60DFF3E031DDB2B44
:1007C0000310660DD83E84000008803A763E031878
:1007D000EA2BEB2B4F2C0A30E6006D08E7000130C6
:1007E0000310E70DFF3E031DF02B0310670DD83EED
:1007F0008400660880004F2C4F2C6D08E600013005
:100800000310E60DFF3E031D002C0310660DD83EBD
:1008100084000008803A7D3E031C0F2C102C212CF4
:10082000FE30E6006D08E70001300310E70DFF3EE3
:10083000031D152C0310670DD83E84006608800741
:100840002E2C6D08E60001300310E60DFF3E031D5F
:10085000242C0310660DD83E840080016D08E6004C
:1008600001300310E60DFF3E031D312C0310660D11
:10087000D83E84000008803A763E0318402C412C74
:100880004F2C6D08E60001300310E60DFF3E031DFE
:10089000442C0310660DD83E840080014F2C6D0857
:1008A000E60001300310E60DFF3E031D522C03103D
:1008B000660DD83E84000008803A753E031C612C0A
:1008C000622C9F2C6D08E60001300310E60DFF3E00
:1008D000031D652C0310660DD83E84000008E70058
:1008E0006D08E80001300310E80DFF3E031D732C76
:1008F0000310680D013ED83E8400670880009F2CDD
:100900009F2C9F2C9F2C03146D0D2C3E8400831371
:10091000000CE600660C0739003A03199F2C013AD7
:100920000319452A033A03195F2A013A0319D72A02
:10093000073A0319752B013A0319912B9F2C6D0867
:10094000E60066072C3E8400831300080739E700A1
:100950006708DA006D08E80001300310E80DFF3E7B
:10096000031DAD2C0310680DD83E0A168A152024ED
:100970000A128A11013083120313E6006608ED079C
:10098000C12C53086D02031CC62CC72C832CC82C09
:1009900008000E3083120313E7000030E800E40182
:1009A000E50167080A168A1509230A128A118312BB
:1009B0000313E100E2016108E4006208E500013090
:1009C000E7070318E80A0030E80767080A168A15DF
:1009D00009230A128A1183120313E100E20161085C
:1009E000E200E1016108E4046208E5040130E70780
:1009F0000318E80A0030E807AA306506031D022D37
:100A000055306406031D052D062D032E67080A16B2
:100A10008A1509230A128A1183120313E100E201E5
:100A20006108B4006208B5000130E7070318E80A5E
:100A30000030E80767080A168A1509230A128A1186
:100A400083120313E100E2016108E200E1016108A1
:100A5000B4046208B5040130E7070318E80A00305F
:100A6000E807E601922D67080A168A1509230A127B
:100A70008A1183120313E1006608E20001300310BB
:100A8000E20DFF3E031D3F2D0310620DD83E840092
:100A90006108831380000130E7070318E80A00307B
:100AA000E80767080A168A1509230A128A118312B1
:100AB0000313E1006608E20001300310E20DFF3E7F
:100AC000031D5D2D0310620D013ED83E84006108B8
:100AD000831380000130E7070318E80A0030E807B5
:100AE00067080A168A1509230A128A11831203134A
:100AF000E10007306105E2006608E30063072C3E71
:100B00008400831300086206F83962068000013011
:100B1000E7070318E80A0030E8070130E100610840
:100B2000E607922D53086602031C972D982D332D4E
:100B3000992D2A30E7000030E800E6010630660211
:100B4000031CA32DA42DA62DC62DC62D67080A169D
:100B50008A1509230A128A1183120313E100660819
:100B6000CA3E84006108831380000130E707031840
:100B7000E80A0030E8070130E1006108E6070630C6
:100B80006602031CC42DC52DA62DC62D3230E700EC
:100B90000030E800E6010D306602031CD02DD12D97
:100BA000D32DF32DF32D67080A168A1509230A128F
:100BB0008A1183120313E1006608CE3E84006108A7
:100BC000831780000130E7070318E80A0030E807C0
:100BD0000130E1006108E6070D306602031CF12DCB
:100BE000F22DD32DF32D4230E7000030E8006708E6
:100BF0000A168A1509230A128A1183120313E100C7
:100C00006108D600332FDE0167080A168A155B24B7
:100C10000A128A11013083120313E7070318E80A46
:100C20000030E807DE0167080A168A155B240A12FD
:100C30008A11013083120313E7070318E80A003012
:100C4000E807B401B501E6017E2EDE0167080A1649
:100C50008A155B240A128A11013083120313E707F5
:100C60000318E80A0030E807DE0167080A168A154B
:100C70005B240A128A11013083120313E707031859
:100C8000E80A0030E8076608E10001300310E10DD2
:100C9000FF3E031D462E0310610DD83E84008313D2
:100CA00080016608E10001300310E10DFF3E031DE5
:100CB000542E0310610D013ED83E84008001DE01F8
:100CC000DE0A67080A168A155B240A128A110130A7
:100CD00083120313E7070318E80A0030E8076608E1
:100CE000E10061072C3E840083130008F8390138C5
:100CF00080000130E1006108E6077E2E530866029D
:100D0000031C832E842E252E852E2A30E7000030EA
:100D1000E800E60106306602031C8F2E902E922E0C
:100D2000B72EB72E7830E1006108DE0067080A169A
:100D30008A155B240A128A11013083120313E70714
:100D40000318E80A0030E8077830E1006608CA3E78
:100D500084006108831380000130E1006108E60728
:100D600006306602031CB52EB62E922EB72E3230F8
:100D7000E7000030E800E6010D306602031CC12EDA
:100D8000C22EC42EE32EE32EDE0167080A168A1552
:100D90005B240A128A11013083120313E707031838
:100DA000E80A0030E8076608CE3E84008317800119
:100DB0000130E1006108E6070D306602031CE12EF8
:100DC000E22EC42EE32E4230E7000030E800D601C8
:100DD0005608E1006108DE0067080A168A155B24E0
:100DE0000A128A11013083120313E7070318E80A75
:100DF0000030E8070D30E7000030E800DE01DE0AD1
:100E000067080A168A155B240A128A1101308312B8
:100E10000313E7070318E80A0030E8075530E1003C
:100E20006108DE0067080A168A155B240A128A1117
:100E3000013083120313E7070318E80A0030E807BC
:100E4000AA30E1006108DE0067080A168A155B24F3
:100E50000A128A11013083120313E7070318E80A04
:100E60000030E807332F080083120313E101E82F55
:100E700061080A168A15B0250A128A118312031313
:100E8000DD005D08E0006008A03E84008313000ED2
:100E9000DD00DD0C5D0C0139DE006008A03E840041
:100EA000000EDF005F0C01395E060319582F592F21
:100EB0006E2F6008A03E8400801A5F2F602F652F80
:100EC0006008A03E84000013692F6008A03E8400E3
:100ED00000176108B63E8400F03080056008A03E2F
:100EE0008400801A742F752FB92F6108B63E8400D4
:100EF00000080F39DD0006305D020318802F812FB6
:100F00008E2F6108B63E840000080F39DD00DD0A2F
:100F100000085D06F0395D068000922F6108B63E3C
:100F2000840000126108B63E8400001E982F992F9D
:100F3000A42F6108B63E840000081F3940388000A5
:100F40006108B63E840000126108B63E8400000EBF
:100F5000DD005D0C0739033A031DAF2FB02FE32FDF
:100F60006108B63E840000081F3920388000E32F56
:100F7000E32F6108B63E840000080F39DD0006301B
:100F80005D020318C42FC52FD62F6108B63E84001A
:100F900000080F39DD00DD0A00085D06F0395D0646
:100FA00080006108B63E84000016E32F6108B63E5B
:100FB000840000081F39603880006108B63E840054
:100FC0000012E32FE32F0130DD005D08E107E82F79
:100FD0004D086102031CED2FEE2F382FEF2F080074
:100FE0000A168A1122200A128A110A128A157420FE
:100FF0000A128A110A128A1134270A128A11080069
:1010000083120313E500E40152086502031809285E
:101010000A2811280D306502031C0F2810281428F7
:101020001128640873287328E008031D182819285C
:1010300025286508E1006107A03E84000030831781
:101040008000840A0030800071286508E100610793
:10105000A03E840083170008840A00040319312885
:1010600032284F286508E1006107A03E8400013066
:101070008002840F0030031C800380028403650813
:10108000E1006107A03E84000008840A0004031DFB
:101090004A284B287128E401E40A71287128650860
:1010A000CE3E84000008E100E2016108DA00620837
:1010B000DB003C30DC000030DD000A168A155723C7
:1010C0000A128A15831203136508E3006307A03E22
:1010D00084005A0883178000840A5B088000712806
:1010E000712864087328080083120313E101F929A9
:1010F00061080A168A152E230A128A158312031311
:10110000DD005D08E000E22985286008A03E84003B
:101110008313000EDD00DD0C5D0C0139DE0060087C
:10112000A03E8400000EDF005F0C01395E0603194B
:101130009A289B28F4296008A03E8400801AA128E0
:10114000A228A7286008A03E84000013F4296008A4
:10115000A03E840000170314610D2C3E840000089B
:10116000E3390C388000F429F429F4296008A03E02
:101170008400000EDD00DD0C5D0C0139DE0060082E
:10118000A03E8400000EDF005F0C01395E060319EB
:10119000CA28CB28E2286008A03E8400801AD12803
:1011A000D228D7286008A03E84000013DB286008FE
:1011B000A03E840000176108DD005D072C3E84001E
:1011C000873080056008A03E8400801AE828E9285E
:1011D0008C296108DD005D072C3E8400000CDE00D8
:1011E000DE0C5E0C0F39DF0006305F020318F928B1
:1011F000FA281E296108DD005D072C3E8400000CE2
:10120000DE00DE0C5E0C0F39DE00DE0ADE0DDE0DC8
:10121000DE0D00085E0687395E0680006108DD008D
:101220005D072C3E8400801F162917292E290314E0
:10123000610D2C3E840000142E292E296108DD004A
:101240005D072C3E840080130314610D2C3E840046
:1012500000100314610D2C3E840080106108DD0035
:101260005D072C3E8400801F362937294529031449
:10127000610D2C3E84000008E3390C3880006108C1
:10128000DD005D072C3E840080130314610D2C3EAD
:101290008400801C4C294D2965290314610D2C3EC6
:1012A00084000008E339103880006108DD005D0724
:1012B0002C3E840080130314610D2C3E840000102A
:1012C0000314610D2C3E840080100314610D2C3E2C
:1012D0008400000CDD005D0C0739053A031D7129FF
:1012E0007229F4290314610D2C3E8400E33080053B
:1012F0000314610D2C3E8400000EDD005D0C0139ED
:10130000DD000130DD06DD0EDD0D00085D06DF3994
:101310005D068000F429F4296108DD005D072C3E9C
:101320008400000CDE00DE0C5E0C0F39DF0006309E
:101330005F0203189C299D29C6296108DD005D070D
:101340002C3E8400000CDE00DE0C5E0C0F39DE004B
:10135000DE0ADE0DDE0DDE0D00085E0687395E0654
:1013600080006108DD005D072C3E840080170314B7
:10137000610D2C3E8400001CBE29BF29F4290314F2
:10138000610D2C3E84008014F429F4290314610DAE
:101390002C3E84000008E339143880006108DD0029
:1013A0005D072C3E840080130314610D2C3E8400E5
:1013B00000100314610D2C3E84008010F429F429E0
:1013C000F429F4296108DD005D072C3E84008313B5
:1013D00000080739003A03198528013A0319B6288D
:1013E000033A03198528F4290130DD005D08E1077F
:1013F000F9294C086102031CFE29FF297828002ADC
:10140000080083120313DD00AE2B792A5B08031D4D
:101410000A2A0C2ABD15BF2BF730DC005C08BD057D
:10142000BF2BBF2B5B08031D162A182A3D16BF2BA6
:10143000EF30DC005C08BD05BF2BBF2B5B08031D34
:10144000222A242ABD16BF2BDF30DC005C08BD0534
:10145000BF2BBF2B5B08031D2E2A302A3C14BF2B49
:10146000FE30DC005C08BC05BF2BBF2B5B08031DF6
:101470003A2A3C2A4014BF2BFE30DC005C08C00531
:10148000BF2BBF2B5B08031D462A482AC016BF2B63
:10149000DF30DC005C08C005BF2BBF2B5B08031DE1
:1014A000522A542A4017BF2BBF30DC005C08C0050D
:1014B000BF2BBF2BBF2BBF2BBF2BBF2BBF2BBF2BDC
:1014C000BF2BBF2BBF2BBF2BBF2BBF2BBF2BBF2BCC
:1014D000BF2BBF2BBF2BBF2BBF2BBF2BBF2BBF2BBC
:1014E000BF2BBF2BBF2BBF2BBF2BBF2BBF2BBF2BAC
:1014F000BF2B5A08003A0319062A013A0319122A87
:10150000033A03191E2A013A03192A2A073A031932
:10151000362A013A0319422A033A03194E2A013A9C
:101520000319BF2B0F3A0319BF2B013A0319BF2B25
:10153000033A0319BF2B013A0319BF2B073A0319CA
:10154000BF2BBF2BBF2BAC2AFD30DC005C08BF05D6
:10155000BF2BBF14BF2BBF2B5A08003A0319A42A74
:10156000013A0319A92ABF2BBF2B392B5B08031D96
:10157000BA2ABC2A3C15BF2BFB30DC005C08BC053A
:10158000BF2BBF2B5B08031DC62AC82ABC15BF2B67
:10159000F730DC005C08BC05BF2BBF2B5B08031DCC
:1015A000D22AD42A3C16BF2BEF30DC005C08BC05E5
:1015B000BF2BBF2B5B08031DDE2AE02ABC16BF2B06
:1015C000DF30DC005C08BC05BF2BBF2B5B08031DB4
:1015D000EA2AEC2AC014BF2BFD30DC005C08C005F1
:1015E000BF2BBF2B5B08031DF62AF82A4016BF2B22
:1015F000EF30DC005C08C005BF2BBF2B5B08031D70
:10160000022B042BC017BF2B7F30DC005C08C00509
:10161000BF2BBF2B5B08031D0E2B102B4116BF2BBE
:10162000EF30DC005C08C105BF2BBF2B5B08031D3E
:101630001A2B1C2BC116BF2BDF30DC005C08C10548
:10164000BF2BBF2B5B08031D262B282B4117BF2B5D
:10165000BF30DC005C08C105BF2BBF2BBF2BBF2BED
:10166000BF2BBF2BBF2BBF2BBF2BBF2BBF2BBF2B2A
:10167000BF2B5A08003A0319B62A013A0319C22AA5
:10168000033A0319CE2A013A0319DA2A073A031951
:10169000E62A013A0319F22A033A0319FE2A013A0B
:1016A00003190A2B0F3A0319162B013A0319222B9F
:1016B000033A0319BF2B013A0319BF2BBF2BBF2BD2
:1016C000922B5B08031D652B672BBD14BF2BFD30D0
:1016D000DC005C08BD05BF2BBF2B5B08031D712B15
:1016E000732B3D15BF2BFB30DC005C08BD05BF2B09
:1016F000BF2B5B08031D7D2B7F2BC117BF2B7F30BA
:10170000DC005C08C105BF2BBF2B5B08031D892BC8
:101710008B2B3E14BF2BFE30DC005C08BE05BF2BBC
:10172000BF2BBF2B5A08003A0319612B013A03194A
:101730006D2B033A0319792B013A0319852BBF2B23
:10174000BF2B5B08031DA52BA72BBF15BF2BF730A5
:10175000DC005C08BF05BF2BBF2BBF2B5D08003A28
:101760000319792A013A0319AC2A033A0319392BD0
:10177000013A0319922B073A0319A12BBF2B3C08FE
:1017800085003D0886003E0887003F088800400825
:101790008900410883160317880008008312031389
:1017A000E401B72D6408E10001300310E10DFF3EB4
:1017B000031DD52B0310610D033ED83E8400831317
:1017C00080080319E42BE52BB22D6408E1000130F9
:1017D0000310E10DFF3E031DE82B0310610D033ED6
:1017E000D83E84000008E2006408E30001300310E2
:1017F000E30DFF3E031DF72B0310630D023ED83EA1
:101800008400620880076408E10001300310E10DE4
:10181000FF3E031D062C0310610D033ED83E8400DD
:101820000008803A7F3E031C162C172C672C640896
:10183000E10001300310E10DFF3E031D1A2C0310DF
:10184000610D023ED83E84000008803AE200640840
:10185000E30001300310E30DFF3E031D2A2C0310AB
:10186000630DD83E84000008803AE202031C392C44
:101870003A2CB62C6408E10001300310E10DFF3E64
:10188000031D3D2C0310610DD83E84000008E200CA
:101890006408E30001300310E30DFF3E031D4B2CF1
:1018A0000310630D023ED83E840062088000640885
:1018B000E10001300310E10DFF3E031D5A2C03101F
:1018C000610D033ED83E84008001B62CB62C64081E
:1018D000E10001300310E10DFF3E031D6A2C0310EF
:1018E000610DD83E84000008803AE2006408E300FD
:1018F00001300310E30DFF3E031D792C0310630D2F
:10190000023ED83E84000008803AE202031C892C83
:101910008A2CB62C6408E10001300310E10DFF3E73
:10192000031D8D2C0310610DD83E84000008E200D9
:101930006408E30001300310E30DFF3E031D9B2C00
:101940000310630D023ED83E8400620880006408E4
:10195000E10001300310E10DFF3E031DAA2C03102E
:10196000610D033ED83E84008001B62C6408E1007E
:1019700001300310E10DFF3E031DB92C0310610D72
:10198000023ED83E84000008803A1B3E031CC92C4E
:10199000CA2CDB2C6430E1006408E2000130031043
:1019A000E20DFF3E031DCF2C0310620D023ED83E18
:1019B0008400610880006408E10001300310E10D3B
:1019C000FF3E031DDE2C0310610D023ED83E840055
:1019D000801FEB2CEC2CFB2C6408E1000130031081
:1019E000E10DFF3E031DEF2C0310610D023ED83EBA
:1019F00084008001FB2C4219FE2CFF2C9F2D622DB0
:101A0000622D6408E10001300310E10DFF3E031D6B
:101A1000042D0310610D023ED83E84000008803A78
:101A20006C3E0318142D152D292D6A300A168A15BF
:101A3000E4220A128A15831203136408E100610785
:101A4000C23E84005A0883138000840A5B08800029
:101A5000B22D6B300A168A15E4220A128A158312F7
:101A600003136408E1006107C23E84005A0883132F
:101A70008000840A5B088000B22DB22D3F2D6408DF
:101A8000E10001300310E10DFF3E031D422D031064
:101A9000610D023ED83E840000086E3E0A168A158B
:101AA000E4220A128A15831203136408E200620713
:101AB000C23E84005A0883138000840A5B088000B9
:101AC000B22DB22D6408E10061072C3E84000008AD
:101AD0000739003A03193F2D013A03193F2D033A04
:101AE0000319012DB22DB22D9F2D6B300A168A15C8
:101AF000E4220A128A15831203136408E1006107C5
:101B0000C23E84005A0883138000840A5B08800068
:101B1000B22D8A2DD2300A168A15E4220A128A15AD
:101B2000831203136408E1006107C23E84005A086F
:101B300083138000840A5B088000B22DB22D6408F4
:101B4000E10061072C3E840000080739003A0319C0
:101B50008A2D013A03198A2D033A0319752DB22DE6
:101B6000B22DB22D0130E1006108E407B72D530812
:101B70006402031CBC2DBD2DD22BBE2D0800831684
:101B800003173A08031DC52D9B2F892F892F3C0869
:101B900083120313B404831603173E08831203133E
:101BA000B504831603173D0883120313E800831658
:101BB00003173B0883120313E700E709E8096708E6
:101BC000B4056808B505EC01EB01EB0A04306C02C2
:101BD000031CEB2DEC2DEE2D262E262E831603173F
:101BE0004008831203136B050319F72DF82D022EFD
:101BF00003146C0D2C3E840083130008E33908386D
:101C00008000022E831603173F08831203136B050F
:101C100003190B2E0C2E162E03146C0D2C3E840073
:101C200083130008E33904388000162E0130E700E2
:101C30006708EC076B08E7006707E8006808EB0037
:101C400004306C02031C252E262EEE2DEC01EB0138
:101C5000EB0A06306C02031C2E2E2F2E312E732E13
:101C6000732E6C08E7006707E8006808EA006A0856
:101C7000013EE7006708E900831603174108831255
:101C800003136B050319452E462E4F2E6A08B63EE8
:101C90008400831300081F3980388000632E831668
:101CA00003174208831203136B050319582E592E8C
:101CB000632E6908B63E8400831300081F398038FC
:101CC0008000632E632E0130E7006708EC076B0885
:101CD000E7006707E8006808EB0006306C02031CA9
:101CE000722E732E312E83160317BA019B2F831287
:101CF0000313EC0104306C02031C7F2E802E822E15
:101D0000CF2ECF2E6C08E70067072C3E840083138C
:101D100000080739E8006C08013EBA3E84008317CA
:101D20000008073968060319962E972EC32E6C08F3
:101D3000013EBA3E840007300005E7006C08E80069
:101D400068072C3E8400831300086706F83967068D
:101D500080006C08013EBA3E840083170008E7004B
:101D60006708DE000330E8006808DA006C080A162D
:101D70008A1108200A128A15143E0A168A155B2455
:101D80000A128A15C32E013083120313E700670875
:101D9000EC0704306C02031CCE2ECF2E822E83164D
:101DA0000317BA019B2F83120313EC010D306C0251
:101DB000031CDB2EDC2EDE2E142F142F6C08013EAC
:101DC000BA3E840083170008E7006C08CE3E84000A
:101DD000000867060319ED2EEE2E082F6C08013E51
:101DE000BA3E84000008E7006C08CE3E8400670815
:101DF00080006C08CE3E84000008E7006708DE0023
:101E00006C08323E0A168A155B240A128A15082FBE
:101E1000013083120313E7006708EC070D306C02F2
:101E2000031C132F142FDE2E83160317BA019B2FCA
:101E300083120313EC0106306C02031C202F212FA8
:101E4000232F5C2F5C2F6C08013EBA3E8400831761
:101E50000008E7006C08CA3E840083130008670688
:101E60000319332F342F502F6C08013EBA3E8400E3
:101E700083170008E7006C08CA3E840067088313D4
:101E800080006C08CA3E84000008E7006708DE0096
:101E90006C082A3E0A168A155B240A128A15502FEE
:101EA000013083120313E7006708EC0706306C0269
:101EB000031C5B2F5C2F232F83160317BA019B2F64
:101EC000831203134218652F662F792F8316031789
:101ED0003B0883120313E7006708C200421C712FFE
:101EE000722F822F0A168A11A5200A128A15822FB4
:101EF000822F831603173B0883120313E70067083A
:101F0000C200822F83160317BA019B2FBA019B2FA1
:101F10009B2F3A08013A0319C72D033A0319772E6C
:101F2000013A0319D32E073A0319182F013A03195E
:101F3000602F862F9B2F831203133B08013A031D4A
:101F4000A22FA32FAE2F4F08031DA72FAB2F59127F
:101F50000130CF02AE2F5916AE2FAE2FD908031D78
:101F6000B22FB32FC62F143049020318B82FB92F40
:101F7000C22FF730E7006708BF050130E7006708A8
:101F8000C907FF2FBF15C901FF2FFF2F591EC92FEA
:101F9000CA2FE42F143049020318CF2FD02FD52F8A
:101FA000F730E7006708BF05D72FBF15D72F0130DF
:101FB000E7006708C90728304902031CE02FE12F1A
:101FC000FF2FC901FF2FFF2F0A3049020318E92F05
:101FD000EA2FEF2FF730E7006708BF05F12FBF1595
:101FE000F12F0130E7006708C90714304902031CCC
:101FF000FA2FFB2FFF2FC901FF2FFF2FFF2F080004
:1020000064008001840A04060319003404060128D0
:1020100083120313DD00DC015D1C0F281028152836
:102020005A08DB005B08DC0715280310DA0D0310E3
:10203000DD0CDD08031D1D281E280C281F285C0848
:102040002128080083120313E2019D28620ADD00A3
:102050000130DE000030DF0030280310DE0DDF0D20
:10206000DD0B2D285E08E0005F08E10062080A161B
:102070008A15D2240A168A1183120313DD005D0823
:10208000E3006308A03E84008313000EDD00DD0C36
:102090005D0C0139DE006308A03E8400000EDF0005
:1020A0005F0C01395E0603195628572884286308F7
:1020B000A03E8400801A5D285E2873286308A03E35
:1020C000840000136108DE006008DD00DD09DE0920
:1020D0005D0883160313D605831203135E08831667
:1020E0000313D705962883126308A03E84000017C7
:1020F000600883160313D604831203136108831642
:102100000313D7049628962883126108DE0060081E
:10211000DD00DD09DE095D0883160313D605831291
:1021200003135E0883160313D70596280130831224
:102130000313DD005D08E2079D284B086202031CC3
:10214000A228A3282628A4280800103083120313ED
:10215000E5000030E6003408E1006108E3006308B0
:10216000E1006108DE0065080A168A155B240A167C
:102170008A11013083120313E5070318E60A0030C1
:10218000E6073508E1006108E3006308E100610843
:10219000DE0065080A168A155B240A168A110130CA
:1021A00083120313E5070318E60A0030E607E4018B
:1021B00023296408E10001300310E10DFF3E031DF7
:1021C000DC280310610DD83E840083130008E20070
:1021D0006208DE0065080A168A155B240A168A1151
:1021E000013083120313E5070318E60A0030E607FF
:1021F0006408E10001300310E10DFF3E031DFB28E0
:102200000310610D013ED83E840083130008E200F4
:102210006208DE0065080A168A155B240A168A1110
:10222000013083120313E5070318E60A0030E607BE
:102230000130E5070318E60A0030E6070130E10047
:102240006108E407232953086402031C282929296B
:10225000D9282A294230E5000030E60065080A1630
:102260008A1509230A168A11013E83120313E1001D
:102270006108D5005508FF3A031D3F29402943292D
:10228000D501D50A43295508E1006108DE0065083B
:102290000A168A155B240A168A1108000A168A1182
:1022A00000230A168A110A168A113C250A168A1179
:1022B0000A168A159F220A168A110A168A15892774
:1022C0000A168A110A168A15B3230A168A110A12E7
:1022D0008A11C9240A168A110A168A15E8230A16D1
:1022E0008A118B170B178029FB3083120313EE0022
:1022F0006E08831603138805831203138C1080293C
:10230000831203138C188529862974298829882922
:102310000A168A1589270A168A110C3083120313AC
:102320004502031C94299529BD290C30C50265304E
:102330004502031C9C299D299F29C5019F29013025
:10234000EE006E08C8070A168A15C7260A168A11F3
:10235000831203134708031DAE29BD290130C702AC
:10236000C708031DB429B529BD290A168A15C1223B
:102370000A168A11BD29BD29BD293C3083120313D9
:102380004A02031CC429C529D5293C30CA0265303C
:102390004A02031CCC29CD29CF29CA01CF290A1210
:1023A0008A15CE230A168A11D52908308312031301
:1023B0004802031CDC29DD298829C8010130EE0010
:1023C0006E08C60719304602031CE729E829EC29E4
:1023D000C601BB01BB0AEC290A128A11F0270A16B2
:1023E0008A110A128A1115200A168A110A128A15F0
:1023F000BF250A168A110A168A15AA220A168A11F8
:1024000083120313BB018829882988290A128A119B
:10241000122883120313C21C0E2A0F2A112AFF2A24
:10242000FF2A05306F020318162A172A1C2A0130CA
:10243000E0006008EF071C2AE101F82A05306F026E
:10244000031C232A242AF12A6108203E84008313D6
:10245000000C0139E0006108203E840000080139C9
:1024600060060319342A352AF12A6118382A392AD4
:10247000842A6108203E8400801C3F2A402A842A46
:102480006108013E203E8400001C472A482A682A31
:102490006108013E203E840080106108013E203E1C
:1024A00084008018582A5B2A6108013E203E84007F
:1024B000831300145D2A8313001083120313EF01AA
:1024C0006108013E0A168A1560250A168A11FF2A3C
:1024D000831203136108203E840083138018742A3A
:1024E000772A6108203E840083130014792A83131D
:1024F000001083120313EF0161080A168A15602584
:102500000A168A11FF2AFF2A611C872A882AD32AE1
:102510006108203E8400801C8E2A8F2AD32A6108FD
:10252000FF3E203E8400001C962A972AB72A6108A5
:10253000FF3E203E840080106108FF3E203E840064
:102540008018A72AAA2A6108FF3E203E8400831330
:102550000014AC2A8313001083120313EF016108E7
:10256000FF3E0A168A1560250A168A11FF2A831271
:1025700003136108203E840083138018C32AC62AEF
:102580006108203E840083130014C82A83130010BE
:1025900083120313EF0161080A168A1560250A16D3
:1025A0008A11FF2AFF2A831203136108203E840048
:1025B00083138018DF2AE22A6108203E84008313F7
:1025C0000014E42A8313001083120313EF0161083F
:1025D0000A168A1560250A168A11FF2AFF2AFF2A81
:1025E000F12A013083120313E0006008E107F82AA2
:1025F00051086102031CFD2AFE2A1E2AFF2A080038
:1026000083120313CE01C801C501C901B401B5018C
:1026100083160313D601D70183120313DB0116308F
:102620005B02031C142B152B172B332B332B5B084E
:10263000A03E8400831300105B08A03E8400E130BC
:1026400080055B08A03E840080125B08A03E8400E9
:1026500000130130DA005A08DB0716305B02031C56
:10266000322B332B172BDB0104305B02031C392B7D
:102670003A2B3C2B6D2B6D2B5B08DA005A072C3E56
:10268000840083130008F839013880005B08DA0001
:102690005A072C3E8400873080055B08DA005A0711
:1026A0002C3E8400801303145B0D2C3E840000102C
:1026B00003145B0D2C3E8400801003145B0D2C3E34
:1026C0008400E33080050130DA005A08DB0704306B
:1026D0005B02031C6C2B6D2B3C2BDB010C305B0273
:1026E000031C732B742B762B8F2B8F2B5B08B63E22
:1026F0008400F030831380055B08B63E840000122E
:102700005B08B63E84001F3080050130DA005A08AD
:10271000DB070C305B02031C8E2B8F2B762BDB012F
:102720000C305B02031C952B962B982BB02BB02BF7
:102730005B08203E8400831300145B08203E840065
:1027400080105B08DB3E8400831780010130DA00D3
:102750005A08DB070C305B02031CAF2BB02B982B05
:10276000DB0104305B02031CB62BB72BB92BED2B1E
:10277000ED2B5B08DA0001300310DA0DFF3E031D7C
:10278000BC2B03105A0DD83E8400831380015B08D4
:10279000DA0001300310DA0DFF3E031DCA2B0310CF
:1027A0005A0D023ED83E840080015B08DA000130F9
:1027B0000310DA0DFF3E031DD82B03105A0D033E04
:1027C000D83E840080010130DA005A08DB0704306B
:1027D0005B02031CEC2BED2BB92BC201BC01BD012C
:1027E000BE01BF01C001C1010230DA005A08D000A9
:1027F000CB01CB0AD201D20ACC01CC0AD301D30A35
:102800000230DA005A08CD000230DA005A08D1004E
:10281000D401D40A080083120313DA00DB01E92C87
:10282000061C132C142C2D2DDB01DB0A2D2D2D2D38
:1028300083160317881D1D2C1E2C2D2D83120313A8
:10284000DB01DB0A2D2D2D2D83160317081D292CE6
:102850002A2C2D2D83120313DB01DB0A2D2D2D2DA8
:1028600083160317881C352C362C2D2D8312031349
:10287000DB01DB0A2D2D2D2D83160317081C412C9F
:10288000422C2D2D83120313DB01DB0A2D2D2D2D60
:1028900083160317891E4D2C4E2C2D2D83120313E6
:1028A000DB01DB0A2D2D2D2D83160317091E592C54
:1028B0005A2C2D2D83120313DB01DB0A2D2D2D2D18
:1028C00083160317891D652C662C2D2D8312031387
:1028D000DB01DB0A2D2D2D2D83160317091D712C0D
:1028E000722C2D2D83120313DB01DB0A2D2D2D2DD0
:1028F00083160317891C7D2C7E2C2D2D8312031328
:10290000DB01DB0A2D2D2D2D83160317091C892CC5
:102910008A2C2D2D83120313DB01DB0A2D2D2D2D87
:10292000881F932C942C2D2DDB01DB0A2D2D2D2DB2
:10293000081F9B2C9C2C2D2DDB01DB0A2D2D2D2D12
:10294000881EA32CA42C2D2DDB01DB0A2D2D2D2D73
:10295000081EAB2CAC2C2D2DDB01DB0A2D2D2D2DD3
:10296000871EB32CB42C2D2DDB01DB0A2D2D2D2D34
:10297000071EBB2CBC2C2D2DDB01DB0A2D2D2D2D94
:10298000081CC32CC42C2D2DDB01DB0A2D2D2D2D75
:10299000871DCB2CCC2C2D2DDB01DB0A2D2D2D2DD5
:1029A000071DD32CD42C2D2DDB01DB0A2D2D2D2D35
:1029B000871CDB2CDC2C2D2DDB01DB0A2D2D2D2D96
:1029C000851CE32CE42C2D2DDB01DB0A2D2D2D2D78
:1029D0002D2D5A08003A0319102C013A0319182C0E
:1029E000033A0319242C013A0319302C073A03192E
:1029F0003C2C013A0319482C033A0319542C013A90
:102A00000319602C0F3A03196C2C013A0319782C26
:102A1000033A0319842C013A0319902C073A03193D
:102A2000982C013A0319A02C033A0319A82C013A57
:102A30000319B02C1F3A0319B82C013A0319C02C02
:102A4000033A0319C82C013A0319D02C073A031989
:102A5000D82C013A0319E02C2D2D83120313DB0827
:102A6000031D332D342D372DDB01DB0A392DDB011E
:102A7000392D5B083B2D08008316031391010330A9
:102A8000831203178700831603138F010C30831200
:102A900003139D005C309B003030DA005A089D041F
:102AA000F930831603139200831203138C108316DC
:102AB00003138C10043083120313920083308316A7
:102AC0000313810082308312031381000B118B16D4
:102AD0001630831203178900C03083120313DA0003
:102AE0005A08831603138704243093009401831239
:102AF00003139401363094008C11831603138C1544
:102B000006148316031785150515851405148716F5
:102B100007168715071587140714831603138817DC
:102B2000081788160816871607160814871507153C
:102B300087148514F73083120313DA005A088316BA
:102B400003138805F73083120313DA005A0883163B
:102B500003138605EF3083120313DA005A08831635
:102B600003138605DF3083120313DA005A08831635
:102B700003138605FE3083120313DA005A08831606
:102B800003138505FE3083120313DA005A088316F7
:102B900003138905DF3083120313DA005A08831602
:102BA00003138905BF3083120313DA005A08831612
:102BB000031389050815FD3083120313DA005A0840
:102BC000831603138805FB3083120313DA005A08B7
:102BD000831603138505F73083120313DA005A08AE
:102BE000831603138505EF3083120313DA005A08A6
:102BF000831603138505DF3083120313DA005A08A6
:102C0000831603138505FD3083120313DA005A0877
:102C1000831603138905EF3083120313DA005A0871
:102C20008316031389057F3083120313DA005A08D1
:102C3000831603138905EF3083120313DA005A0851
:102C4000831603178505DF3083120313DA005A0851
:102C5000831603178505BF3083120313DA005A0861
:102C6000831603178505FD3083120313DA005A0813
:102C7000831603138605FB3083120313DA005A0808
:102C80008316031386057F3083120313DA005A0874
:102C9000831603178505FE3083120313DA005A08E2
:102CA000831603138705FD3083120313DA005A08D5
:102CB000BD05FB30DA005A08BD057F30DA005A083E
:102CC000C105FE30DA005A08BE053C0885003D0803
:102CD00086003E0887003F088800400889004108B8
:102CE0008316031788006400080083160313140872
:102CF000F1007108FC003C30F100710883120313ED
:102D0000CF00FC1A842E852EB32E7C19882E892E96
:102D1000B32E7C1C8C2E8D2EB32EFC1D902E912E4E
:102D2000B32E64008312031343161430F1007108AC
:102D3000B7000A168A159A220A168A11F10071083C
:102D400083120317A00083120313B801FD01FD0ACB
:102D5000D801D901141FAD2EAE2EFF2FD915D914CD
:102D60001413FF2FFF2FFC1EB62EB72E8A2F7C19AF
:102D7000BA2EBB2E8A2F7C1CBE2EBF2E8A2F7D081A
:102D8000143A031DC42EC52ECC2E5915D914133058
:102D9000F1007108FD00CC2E141FCF2ED02ED42EA2
:102DA000D915D9141413D42E0A168A159A220A1684
:102DB0008A11F1007D08203E84007108831780008D
:102DC0007D08203E84000008F1007108831203137F
:102DD000B8077D08013A031DEE2EEF2E342F0E2F7B
:102DE0000E2F0A30F1007108B700222F0A30F100CF
:102DF0007108B700222F1230F1007108B700222F9E
:102E00000A30F1007108B700222F0330F100710879
:102E1000B700222F5915D914222F222F7D08203ECA
:102E200084000008013A0319F12E033A0319F62E23
:102E3000013A0319FB2E073A0319002F013A03192F
:102E4000052F0A2F7D08203E84000008F10071083C
:102E5000D800D91315303702031C2F2F302F852FA0
:102E60005915D914852F852F7D0837020318392F5E
:102E70003A2F3D2F5915D914852F7D083706031D8C
:102E8000422F432F852F3808031D472F4A2F5914EF
:102E9000D914852F591083160317BA08031D512F13
:102EA000522F7C2FF201F20AF301722F7308143AA9
:102EB000031D5B2F5C2F5F2F0130F3025F2F720821
:102EC000203E84000008F1007308BA3E84007108B7
:102ED00080000130F1007108F2070130F100710843
:102EE000F307722F72087D020318772F782F562F61
:102EF00083120313D910852F83120313D914852F3E
:102F0000852F852F852F852F852F0130F1007108A2
:102F1000FD07FF2FFC1A8D2F8E2FA62F7C1D912FC2
:102F2000922FA62F7C18952F962FA62FFC1D992F38
:102F30009A2FA62FB9015808F1007108BA00580855
:102F40000A168A15B5220A168A11FF2FFC1EA92F10
:102F5000AA2FEB2F7C1DAD2FAE2FEB2F7C18B12F9E
:102F6000B22FEB2FE02FE02F59080A168A15B52251
:102F70000A168A11831203135908F1007108BA075F
:102F80000130F1007108B907FF2FBA090130F100D3
:102F90007108BA073A080A168A15B5220A168A1164
:102FA0000130F100710883120313B907FF2FD917FD
:102FB00055300A168A15B5220A168A11FF2FFF2FDF
:102FC000831203133908003A0319B42F013A031985
:102FD000C52FD72FFF2FFC1EEE2FEF2FFF2F7C19B1
:102FE000F22FF32FFF2F7C18F62FF72FFF2F43120E
:102FF0006400FF2FFF2FFF2FFF2FFF2FFF2F080051
:103534008312031313089E2A0800FD018312031348
:10354400B901B601BA01B80183160317BA0108001C
:103554000A168A1512250A168A150A168A110922CC
:103564000A168A150800F0008312031394137008D6
:103574009300941BBE2ABF2AB62A1416080083128D
:103584000313DF01D72A5F08DE005E08DA00DB01DF
:1035940002300A128A1501220A168A150130831292
:1035A4000313DE005E08DF07D72A51085F02031CFD
:1035B400DC2ADD2AC52ADE2A9B01CF30DE005E0824
:1035C4009D05080083120313DE005E08DC00DD01A4
:1035D4000130FF000310DC0DDD0DFF0BEC2A5C084D
:1035E400143EDF005D080318013E003EE000FE309B
:1035F400DF050130E0050030DF040630E004600838
:10360400DB01DB075F08DA01DA07082B0800831205
:103614000313DB006400831603178C18122B132B7F
:103624000C2B142B831203135B08831203178D00D6
:103634003F3083120313DA005A08831603178C05EC
:103644000C1403100C1803140030031801308312F7
:1036540003170C082D2B080083120313DB00DC0175
:10366400462BDC01DC0A542B0830DA005A08DC0053
:10367400542B0D30DA005A08DC00542B1130DA00D8
:103684005A08DC00542B542B5B08003A0319332BE3
:10369400013A0319362B033A03193B2B013A031958
:1036A400402B542B5C08562B080083120313DE01B5
:1036B400DF015C2B5A1C5F2B602B662B5C08DE073A
:1036C4000318DF0A5D08DF0701300310DC0DDD0D90
:1036D400FF3E031D672B01300310DB0CDA0CFF3EA9
:1036E400031D6E2B5B085A04031D792B7A2B5C2B6C
:1036F4007B2B5F08DB01DB075E08DA01DA07822B2C
:103704000800FC01FD018313203084005A300A169E
:103714008A1100200A168A158317A0308400E73026
:103724000A168A1100200A168A158313A030840011
:10373400E8300A168A1100200A168A1583172030E9
:10374400840034300A168A1100200A168A150A12D7
:103754008A1103200A168A15EF0083010A168A11BA
:103764004E290D3083120313E3000030E400630894
:103774000A168A1509230A168A1583120313E1000F
:103784006108E2000130E3070318E40A0030E407AB
:103794006208013A0319CF2BD02BE72BDE01630813
:1037A4000A168A155B240A168A150130831203133C
:1037B400E3070318E40A0030E407DE0163080A168D
:1037C4008A155B240A168A15E72B08008312031353
:1037D400E30104306302031CF02BF12BF32B1F2CA9
:1037E4001F2C6308E10001300310E10DFF3E031DAF
:1037F400F62B0310610D023ED83E840083130008AB
:103804000A168A15E4220A168A158312031363081A
:10381400E2006207C23E84005A0883138000840ACF
:103824005B0880000130E1006108E30704306302B3
:10383400031C1D2C1E2CF32B1F2C080083120313B6
:10384400DD005D08840083130008803A1B3E031CDE
:103854002C2C2D2C332C6430DB005D0884005B0899
:1038640080005D088400801F382C392C3C2C5D08B6
:10387400840080015D08023E84000008DB005D08CE
:10388400840000085B060319482C492C5A2C5D0857
:1038940084000008DB005D08023E84000003FF3A58
:1038A4005B07DC005D08033E84005C0880005A2C42
:1038B400080083120313E0005F2C831603178C188F
:1038C400642C652C5F2C662C83120313600883120E
:1038D40003178D00831203135E08831203178C00F1
:1038E4003F3083120313DF005F08831603178C0530
:1038F4008312031303108B1F802C812C822C03143E
:103904008B13831603170C1555308D00AA308D00C8
:103914008C140C1183120313031C912C922C952CE0
:103924008B17952C952C08000B1D992C9A2CB32CD5
:103934008B1E9D2C9E2CB32CCE01CE0A0130F70099
:103944007708C5070130F7007708CA070A168A15F1
:103954000B260A168A1582308312031381020B1177
:10396400B32C8C1DB62CB72CC52C8C1183160313C9
:103974008C1DBD2CBE2CC52C0A168A1175260A1660
:103984008A15C52CC52C7B0883120313FF007A0803
:103994008A0079088400780E8300FE0E7E0E0900EA
:1039A40083120313DB00DC01F82CDC010F2D023041
:1039B400DA005A08DC000F2D0330DA005A08DC0064
:1039C4000F2D0930DA005A08DC000F2D0A30DA0016
:1039D4005A08DC000F2D0E30DA005A08DC000F2DD7
:1039E4001230DA005A08DC000F2D0F2D5B08003A64
:1039F4000319D72C013A0319D92C033A0319DE2CE5
:103A0400013A0319E32C073A0319E82C013A031984
:103A1400ED2C033A0319F22C0F2D5C08112D08002C
:103A240083120313E301582D630ADE000130DF0023
:103A34000030E000202D0310DF0DE00DDE0B1D2D06
:103A44005F08E1006008E20061083405DE006208F6
:103A54003505DF005F085E04031D312D322D422D34
:103A64004219352D362D422D6308DE005E08DA003A
:103A7400DB0100300A128A1501220A168A15512D1B
:103A8400831203136308DE005E08DA00DB01DB0A3D
:103A940000300A128A1501220A168A15512D0130A6
:103AA40083120313DE005E08E307582D52086302F5
:103AB400031C5D2D5E2D162D5F2D0800831203134C
:103AC400DF005F08203E8400831300186A2D6B2DED
:103AD4008C2DDA01DB0101300A128A1501220A1643
:103AE4008A155C30831203139B003030DE005E08BD
:103AF4009D041430DE005E08C7005F08DE005E0827
:103B0400DA00DB01DB0A02300A128A1501220A16E6
:103B14008A15AF2D83120313DA01DA0ADB010130AF
:103B24000A128A1501220A168A15831203139B01AD
:103B3400CF30DE005E089D051430DE005E08C7004D
:103B44005F08DE005E08DA00DB01DB0A02300A12DD
:103B54008A1501220A168A15AF2D08008312031351
:103B6400DB00DC01E82D0430DA005A08DC00082E02
:103B74000530DA005A08DC00082E0630DA005A084C
:103B8400DC00082E0730DA005A08DC00082E0B305F
:103B9400DA005A08DC00082E0C30DA005A08DC007F
:103BA400082E0F30DA005A08DC00082E1030DA0034
:103BB4005A08DC00082E1330DA005A08DC00082EFC
:103BC4001430DA005A08DC00082E082E5B08003A8C
:103BD4000319B52D013A0319BA2D033A0319BF2D60
:103BE400013A0319C42D073A0319C92D013A0319DF
:103BF400CE2D033A0319D32D013A0319D82D0F3AC8
:103C04000319DD2D013A0319E22D082E5C080A2E52
:103C140008008312031353085702031C122E132E99
:103C2400152ED701152E5708F3007307C23E8400E2
:103C340083130008840A00040319212E222E622E05
:103C44005708F3007307C23E84000008F400840A96
:103C54000008F500741C2F2E302E392EF001F00AC6
:103C640057080A168A1527270A168A15432EF001C3
:103C74008312031357080A168A1527270A168A156A
:103C8400432E831203135708F3007307C23E8400C4
:103C940083130008F400840A0008F50001300310BF
:103CA400F50CF40CFF3E031D512E5708F600760761
:103CB400C23E840074088000840A75088000672E60
:103CC4000130F3007308D707672E0800831203132B
:103CD400DD00DC0154085D020318712E722E792E6A
:103CE40006305D02031C772E782EB92E792E013012
:103CF400C62EC62EB92E5D08CA3E840083138008E2
:103D0400031D852E862E8D2E7830DB005D08CA3E7D
:103D140084005B0880005D08CA3E84000008DB0064
:103D24005D08D03E84005B088000C42E5D08D03E50
:103D3400840083138001C42E5D08D03E8400831365
:103D440080080319A62EA72EB42E3B08013A031DA2
:103D5400AC2EAD2EC42E5D08D03E8400013080020E
:103D6400C42EC42EDC01DC0AC42EC42EC42E5A0870
:103D7400003A03197D2E013A0319982E033A0319C8
:103D84009E2EC42E5C08C62E080083120313DE0187
:103D94001F2F5E080A168A110B240A168A1583122D
:103DA4000313DC005C08DD005E08A03E840083137E
:103DB400000801395D060319E02EE12EEE2E5E089F
:103DC400A03E84005D080010031D00145E08A03EA0
:103DD4008400E1308005182F5E08A03E8400000CAA
:103DE4000F39DC0004305C020318F92EFA2E082F78
:103DF4005E08A03E8400000C0F39DC00DC0ADC0DF8
:103E040000085C06E1395C068000182F5E08A03EBD
:103E140084000018112F142F5E08A03E8400831321
:103E24008016162F83138012182F182F0130831237
:103E34000313DC005C08DE071F2F50085E02031C1E
:103E4400242F252FCB2E262F0800F2006A2F70086E
:103E5400031D2D2F312F83120313BD14782FFD3032
:103E6400F100710883120313BD05782F782F7008B1
:103E7400031D3D2F412F831203133D15782FFB3073
:103E8400F100710883120313BD05782F782F700891
:103E9400031D4D2F512F83120313C117782F7F3029
:103EA400F100710883120313C105782F782F70086D
:103EB400031D5D2F612F831203133E14782FFE30F0
:103EC400F100710883120313BE05782F782F782F21
:103ED4007208003A0319292F013A0319392F033ABA
:103EE4000319492F013A0319592F782F8312031309
:103EF4003C0885003D0886003E0887003F0888008E
:103F0400400889004108831603178800080015300B
:103F140083120313DA005A08D0000730DA005A0873
:103F2400CB000730DA005A08D2000430DA005A080D
:103F3400CC000430DA005A08D3000A30DA005A08F8
:103F4400CD000A30DA005A08D1005108DA00031013
:103F54005A0CDB005B08D40017305002031CB32F4B
:103F6400B42FB82F1630DA005A08D0000E304B02A6
:103F7400031CBD2FBE2FC22F0D30DA005A08CB0010
:103F84000E305202031CC72FC82FCC2F0D30DA007D
:103F94005A08D20005304C02031CD12FD22FD62F41
:103FA4000430DA005A08CC0005305302031CDB2F1E
:103FB400DC2FE02F0430DA005A08D3000D304D0214
:103FC400031CE52FE62FEA2F0C30DA005A08CD0047
:103FD4000D305102031CEF2FF02FF42F0C30DA00B8
:103FE4005A08D10007305402031CF92FFA2FFF2F6F
:0C3FF4000630DA005A08D400FF2F080045
:02400E00F2FFBF
:00000001FF
