:060000000A128A110E280D
:10000800FE00030EF9000408FA000A08FB000A16AD
:100018008A113A2B0A128A111128FC01FD01831357
:100028002030840056300A128A1500200A128A11DC
:100038008317A0308400E6300A128A1500200A12BD
:100048008A118313A0308400EC300A128A1500202C
:100058000A128A1183172030840045300A128A1543
:1000680000200A128A110A128A11FD270A128A111F
:10007800EB0083010A168A11EC2EEA018128E601B9
:10008800E60AE7016A0A4B280310E60DE70DFF3E72
:10009800031D482866083005E40067083105E500B7
:1000A80065086404031959285A285E286608B206A8
:1000B8006708B3063703031D6228632880283308BE
:1000C800E1003208E0006608E0056708E1056A0813
:1000D8000A168A11A5250A128A11013A031D7528E4
:1000E800762880286708E5006608E400E409E50941
:1000F8006408B2056508B305EA0A4C086A02031CDD
:10010800862887284328EA01EC2903106A0DE900AC
:100118006908013EE800B128A0286908C63E8400A5
:1001280000081F39203880006808C63E840000088F
:100138001F392038800042296808C63E8400000E16
:10014800E400640C0739023A03199128013A0319AB
:100158009128073A0319912842296908C63E840064
:100168008313000EE400640C0739023A031990283F
:10017800013A0319A028073A0319A0284229690857
:10018800203E84008018C928CA28E7286808203E2D
:100198008400801CD028D128D5286808203E8400F7
:1001A8008010DA016A080A168A1152250A128A1181
:1001B8006908203E8400831380146908C63E8400C1
:1001C8001F308005D629DA01DA0A6A080A168A1168
:1001D80052250A128A116908203E84008313801070
:1001E8006908C63E84001F308005D629DA01DA0A7C
:1001F8006A080A168A1152250A128A116908203ECD
:100208008400831380146808203E84008010D62957
:10021800DA01DA0A6A080A168A1152250A128A11BC
:10022800EF286808203E8400801C1B291C292029EF
:100238006808203E84008010DA016A080A168A11CC
:1002480052250A128A11DC286908203E8400801C85
:100258002E292F29D6290230DA006A080A168A11AF
:1002680052250A128A11013A031D3B293C295629B5
:100278006908203E840083138010D6296908C63E89
:100288008400000EE400640C0739013A03190C29B4
:10029800033A0319C328013A0319FA28073A03193C
:1002A80015292829D6296808203E840080185D2948
:1002B8005E297B296908203E8400801C6429652901
:1002C80069296908203E84008010DA016A080A1644
:1002D8008A1152250A128A116808203E8400831365
:1002E80080146808C63E84001F308005EB29DA01B7
:1002F800DA0A6A080A168A1152250A128A11680847
:10030800203E8400831380106808C63E84001F3096
:100318008005EB29DA01DA0A6A080A168A115225D9
:100328000A128A116808203E840083138014690821
:10033800203E84008010EB29DA01DA0A6A080A16DE
:100348008A1152250A128A1183296908203E8400DD
:10035800801CAF29B029B4296908203E8400801088
:10036800DA016A080A168A1152250A128A117029B6
:100378006808203E8400801CC229C329EB2902306A
:10038800DA006A080A168A1152250A128A11013AF5
:10039800031DCF29D029EB296808203E8400831348
:1003A8008010EB296808C63E84008313000EE40021
:1003B800640C0739013A0319A029033A031957298C
:1003C800013A03198E29073A0319A929BC29EA0A0F
:1003D8004E086A02031CF129F2298928EA01952CA2
:1003E8006A086A076A07D23E840080016A08E40046
:1003F80001300310E40DFF3E031DFD290310640DB9
:10040800B93E840000106A08E40001300310E40DCE
:10041800FF3E031D0A2A0310640DB83E84001F30F6
:100428008005A42B6A08E40001300310E40DFF3EA8
:10043800031D192A0310640DB83E8400000807390B
:10044800023A0319282A292A3C2A6A08E4000130BA
:100458000310E40DFF3E031D2C2A0310640DB83E63
:100468008400000807390038031D3B2A3C2A432A28
:100478006A086A076A07D33E8400643080006A0805
:100488006A076A07D33E84000008803A7F3E031853
:100498004E2A4F2A562A6A086A076A07D33E8400FA
:1004A800643080006A086A076A07D33E840000083F
:1004B800E4006A086A076A07D23E8400640880007C
:1004C8006A08E40001300310E40DFF3E031D672AAB
:1004D8000310640DB93E840000106A08E40001307E
:1004E8000310E40DFF3E031D742A0310640DB83E8B
:1004F80084001F308005A42B6A08E4000130031033
:10050800E40DFF3E031D832A0310640DB83E8400EA
:1005180000080739023A0319922A932AA62A6A0878
:10052800E40001300310E40DFF3E031D962A03107A
:10053800640DB83E8400000807390038031DA52A59
:10054800A62AAD2A6A086A076A07D33E840064307F
:1005580080006A086A076A07D23E84000008803A69
:100568007F3E031CB82AB92ACD2A6A086A076A0797
:10057800D23E840080016A08E40001300310E40DD3
:10058800FF3E031DC22A0310640DB93E840000100B
:10059800FB2A6A086A076A07D33E84000008803A83
:1005A8007F3E0318D82AD92AE02A6A086A076A0708
:1005B800D33E8400643080006A086A076A07D33E25
:1005C80084000008E4006A086A076A07D23E8400CB
:1005D800640880006A08E40001300310E40DFF3E5F
:1005E800031DF12A0310640DB93E840000106A0847
:1005F800E40001300310E40DFF3E031DFE2A031042
:10060800640DB83E84001F308005A42B6A086A0771
:100618006A07D23E8400643080006A08E400013032
:100628000310E40DFF3E031D142B0310640DB93EA7
:10063800840000146A08E40001300310E40DFF3E52
:10064800031D212B0310640DB83E84001F30800564
:10065800A42B6A08E40001300310E40DFF3E031DDB
:10066800302B0310640DB93E840000183C2B3D2B41
:10067800582B6A086A076A07D23E84000008803A45
:100688001D3E0318482B492B502B6A086A076A0736
:10069800D23E8400800A712B6A086A076A07D23E34
:1006A800840064308000712B6A086A076A07D23EAA
:1006B80084000008803A7E3E031C632B642B6B2B5E
:1006C8006A086A076A07D23E84008003712B6A08A9
:1006D8006A076A07D23E840080016A086A076A07C7
:1006E800D23E84000008E4006A086A076A07D33E1D
:1006F800840064088000A42B6A08E4000130031019
:10070800E40DFF3E031D832B0310640DB83E8400E7
:100718008313000EE500650C0739003A0319A42B72
:10072800013A0319F429033A0319162A013A03195D
:10073800802A073A03190A2B013A03192D2BA42BF7
:100748006A086A076A07D23E8400801FAC2BAD2B6B
:10075800B32B6A086A076A07D23E840080016A08D8
:100768006A076A07D23E84000008803A1B3E031CD1
:10077800BE2BBF2BC62B6A086A076A07D23E8400C5
:10078800643080004019C92BCA2B482C6A086A07B4
:100798006A07D43E84000008E4006A086A076A070A
:1007A800D23E8400000864060319DB2BDC2B942C52
:1007B8006A086A076A07D23E84000008E4006A08EB
:1007C8006A076A07D43E840064088000302C6A08EF
:1007D8006A076A07D23E84000008803A6C3E031814
:1007E800F62BF72B082C6B300A168A1102220A12F4
:1007F8008A1103106A0DDE3E84005A0883138000B4
:10080800840A5B088000942C6A300A168A11022236
:100818000A128A1103106A0DDE3E84005A088313F7
:100828008000840A5B088000942C6A086A076A07BB
:10083800D23E840000086E3E0A168A1102220A126D
:100848008A1103106A0DDE3E84005A088313800063
:10085800840A5B088000942C6A08E40001300310C5
:10086800E40DFF3E031D332C0310640DB83E8400D5
:1008780000080739003A0319192C013A0319192CF1
:10088800033A0319EB2B942C6A086A076A07D43ECB
:100898008400000A0319512C522C942C6A086A0708
:1008A8006A07D43E8400800180037C2C6A300A16D3
:1008B8008A1102220A128A1103106A0DDE3E840090
:1008C8005A0883138000840A5B088000942CD23075
:1008D8000A168A1102220A128A1103106A0DDE3ED4
:1008E80084005A0883138000840A5B088000942CD3
:1008F8006A08E40001300310E40DFF3E031D7F2C5D
:100908000310640DB83E840000080739003A031943
:100918006B2C013A03196B2C033A03195A2C942CAB
:10092800EA0A4D086A02031C9A2C9B2C802B0800AB
:10093800E001D52E60080A168A116F220A128A1160
:10094800DF00B92E5F08A03E8400000EDC00DC0C3E
:100958005C0C0139DD005F08A03E8400000EDE005B
:100968005E0C01395D060319BA2CBB2CD22E5F0828
:10097800A03E8400801AC12CC22CC72C5F08A03E60
:1009880084000013D22E5F08A03E84000017600880
:10099800DC0001300310DC0DFF3E031DCE2C0310DC
:1009A8005C0DB83E840000081F3960388000D22EE4
:1009B8005F08A03E8400000EDC00DC0C5C0C0139F2
:1009C800DD005F08A03E8400000EDE005E0C0139E9
:1009D8005D060319F02CF12C0E2D5F08A03E840053
:1009E800801AF72CF82CFD2C5F08A03E8400001319
:1009F800012D5F08A03E840000176008DC0001306C
:100A08000310DC0DFF3E031D042D03105C0DB63EE4
:100A1800840080015F08A03E8400801A142D152DE3
:100A2800352E6008DC0001300310DC0DFF3E031D8D
:100A3800182D03105C0DB73E84000D30000203181A
:100A4800262D272D552D6008DC0001300310DC0D04
:100A5800FF3E031D2A2D03105C0DB83E840080194B
:100A6800362D372D472D6008DC0001300310DC0DD2
:100A7800FF3E031D3A2D03105C0DB83E8400001E96
:100A8800462D472D552D6008DC0001300310DC0D84
:100A9800FF3E031D4A2D03105C0DB73E8400800AFB
:100AA8006F2D6008DC0001300310DC0DFF3E031DD4
:100AB800582D03105C0DB83E840000126008DC005D
:100AC80001300310DC0DFF3E031D652D03105C0D86
:100AD800B73E840080016008DC0001300310DC0DA3
:100AE800FF3E031D722D03105C0DB83E8400801D6F
:100AF8007E2D7F2DF12D6008DC0001300310DC0D08
:100B0800FF3E031D822D03105C0DB83E840080114A
:100B18006008DC0001300310DC0DFF3E031D8F2D43
:100B280003105C0DB83E8400001E9B2D9C2DD42D17
:100B38006008DC0001300310DC0DFF3E031D9F2D13
:100B480003105C0DB83E840000081F39803880000F
:100B58006008DC0001300310DC0DFF3E031DAF2DE3
:100B680003105C0DB73E840080016008DC00013092
:100B78000310DC0DFF3E031DBC2D03105C0DB83EB9
:100B8800840000126008DC0001300310DC0DFF3E19
:100B9800031DC92D03105C0DB73E84008001F12DA3
:100BA8006008DC0001300310DC0DFF3E031DD72D6B
:100BB80003105C0DB83E840000081F3960388000BF
:100BC8006008DC0001300310DC0DFF3E031DE72D3B
:100BD80003105C0DB83E840000166008DC0001308C
:100BE8000310DC0DFF3E031DF42D03105C0DB83E11
:100BF8008400000EDD005D0C0739053A031D052E43
:100C0800062ED22E6008DC0001300310DC0DFF3EFA
:100C1800031D092E03105C0DB83E84001F308005AB
:100C28006008DC0001300310DC0DFF3E031D172EA9
:100C380003105C0DB93E8400001C2F2E322E600874
:100C4800DD0001300310DD0DFF3E031D262E0310CD
:100C58005D0DB93E840083130014342E83130010F5
:100C6800D22E6008DC0001300310DC0DFF3E031DAE
:100C7800382E03105C0DB83E840080156008DC0037
:100C880001300310DC0DFF3E031D452E03105C0DE3
:100C9800B73E84000D3000020318532E542E612EE7
:100CA8006008DC0001300310DC0DFF3E031D572EE9
:100CB80003105C0DB73E8400800A6008DC00013038
:100CC8000310DC0DFF3E031D642E03105C0DB63EC1
:100CD80084000F3000020318722E732E812E6008D4
:100CE800DC0001300310DC0DFF3E031D762E0310DF
:100CF8005C0DB63E8400800AD22E6008DC0001300C
:100D08000310DC0DFF3E031D842E03105C0DB83E5E
:100D1800840000081F39A03880006008DC0001301A
:100D28000310DC0DFF3E031D942E03105C0DB83E2E
:100D3800840080116008DC0001300310DC0DFF3EE8
:100D4800031DA12E03105C0DB83E8400001260083C
:100D5800DC0001300310DC0DFF3E031DAE2E031036
:100D68005C0DB73E84008001D22E6008DC000130A3
:100D78000310DC0DFF3E031DBC2E03105C0DB83EB6
:100D88008400831300080739003A0319A62C013A96
:100D98000319DC2C033A0319A62CD22E8312031351
:100DA800E00A47086002031CDA2EDB2E9E2C08009E
:100DB800DA00DB01652F061CE22EE32EA92F831231
:100DC8000313DB01DB0AA92F83160317881DED2EF9
:100DD800EE2EA92FE32E83160317081DF42EF52EE9
:100DE800A92FE32E83160317881CFB2EFC2EA92F90
:100DF800E32E83160317081C022F032FA92FE32EB7
:100E080083160317891E092F0A2FA92FE32E83168D
:100E18000317091E102F112FA92FE32E831603176E
:100E2800891D172F182FA92FE32E83160317091DC5
:100E38001E2F1F2FA92FE32E83160317891C252F7A
:100E4800262FA92FE32E83160317091C2C2F2D2FCD
:100E5800A92FE32E881F312F322FA92FE32E081F29
:100E6800362F372FA92FE32E881E3B2F3C2FA92F73
:100E7800E32E081E402F412FA92FE32E871E452F52
:100E8800462FA92FE32E071E4A2F4B2FA92FE32EFB
:100E9800081C4F2F502FA92FE32E871D542F552F95
:100EA800A92FE32E071D592F5A2FA92FE32E871C90
:100EB8005E2F5F2FA92FE32E851C632F642FA92F88
:100EC800E32E5A08003A0319DF2E013A0319E82ED7
:100ED800033A0319EF2E013A0319F62E073A0319BC
:100EE800FD2E013A0319042F033A03190B2F013A77
:100EF8000319122F0F3A0319192F013A0319202F3A
:100F0800033A0319272F013A03192E2F073A031919
:100F1800332F013A0319382F033A03193D2F013AA9
:100F28000319422F1F3A0319472F013A03194C2F6F
:100F3800033A0319512F013A0319562F073A031997
:100F48005B2F013A0319602FA92F83120313DB08C3
:100F5800031DAF2FB02FB32FDB01DB0AB42FDB014A
:100F68005B080800E101DA2F6B300A168A110222A9
:100F78000A128A110310610DDE3E84005A08831399
:100F88008000840A5B088000F32F6E300A168A11ED
:100F980002220A128A110310610DDE3E84005A08EB
:100FA80083138000840A5B088000F32F6108E00047
:100FB80001300310E00DFF3E031DDD2F0310600D0F
:100FC800B83E8400831300080739003A0319C92F73
:100FD800013A0319C92F033A0319B82FF32FE10A6D
:100FE80004306102031CF92FFA2FDA2F08001308C6
:040FF80008000534B4
:1010000064008001840A04060319003404060128E0
:10101000153083120313CA000730C6000730CC0016
:101020000430C7000430CD000A30C8000A30CB00BD
:1010300003104B0CCE0017304A02031C2028212835
:1010400023281630CA000E304602031C28282928FF
:101050002B280D30C6000E304C02031C30283128DE
:1010600033280D30CC0005304702031C38283928BE
:101070003B280430C70005304D02031C402841289E
:1010800043280430CD000D304802031C482849286D
:101090004B280C30C8000D304B02031C502851283F
:1010A00053280C30CB0007304E02031C5828592817
:1010B0005B280630CE000800DB015B08DA00013057
:1010C0000310DA0DFF3E031D602803105A0DB83ED1
:1010D00084000008F839013880005B08DA0001302C
:1010E0000310DA0DFF3E031D702803105A0DB63EA3
:1010F000840080015B08DA0001300310DA0DFF3E46
:10110000031D7D2803105A0DB73E840080015B0843
:10111000DA0001300310DA0DFF3E031D8A280310A8
:101120005A0DB83E840080115B08DA0001300310CC
:10113000DA0DFF3E031D972803105A0DB83E8400B8
:1011400000125B08DA0001300310DA0DFF3E031DC8
:10115000A42803105A0DB83E84001F3080055B0898
:10116000DA0001300310DA0DFF3E031DB228031030
:101170005A0DB93E84000010DB0A04305B02031CE8
:10118000C228C3285D28DB015B08C63E8400F0301E
:1011900080055B08C63E840000125B08C63E8400E2
:1011A0001F308005DB0A0C305B02031CD828D928CD
:1011B000C428DB015B08203E8400831300145B0815
:1011C000203E840080105B08203E8400831780014D
:1011D000DB0A0C305B02031CEE28EF28DA28DB0167
:1011E0005B085B075B07D23E8400831380015B08CA
:1011F0005B075B07D43E84008001DB0A04305B029E
:10120000031C03290429F028C001BA01BB01BC0159
:10121000BD01BE01BF01080005306B020318112992
:1012200012291329EB0ADF01DC2905306B02031CAC
:101230001A291B29DB29C01C1E291F2924295F0804
:10124000203E8400831380105F08203E84008313B7
:10125000000C0139DE005F08203E840000080139DF
:101260005E06031934293529DB295F183829392905
:101270007C295F08203E8400801C3F2940297C296E
:101280005F08213E8400001C4629472964295F0825
:10129000213E840080105F08213E8400801854297C
:1012A00057295F08213E84008313001459298313B2
:1012B000001083120313EB015F08013E0A168A1126
:1012C000AA230A128A15E2295F08203E84008018AA
:1012D0006D2970295F08203E840083130014722951
:1012E0008313001083120313EB015F080A168A119F
:1012F000AA230A128A15E2295F1C7F298029C329A3
:101300005F08203E8400801C86298729C3295F0846
:101310001F3E8400001C8D298E29AB295F081F3ECB
:10132000840080105F081F3E840080189B299E293E
:101330005F081F3E840083130014A029831300104C
:1013400083120313EB015F08FF3E0A168A11AA23DA
:101350000A128A15E2295F08203E84008018B42909
:10136000B7295F08203E840083130014B929831332
:10137000001083120313EB015F080A168A11AA23D7
:101380000A128A15E2295F08203E84008018CC29C1
:10139000CF295F08203E840083130014D1298313D2
:1013A000001083120313EB015F080A168A11AA23A7
:1013B0000A128A15E229DF0A4B085F02031CE129A1
:1013C000E22915290800DC00FF2A5B08031DE92932
:1013D000EB29BB15102BBB11102B5B08031DF1294A
:1013E000F3293B16102B3B12102B5B08031DF92928
:1013F000FB29BB16102BBB12102B5B08031D012A07
:10140000032A3A14102B3A10102B5B08031D092AEB
:101410000B2A3E14102B3E10102B5B08031D112AC3
:10142000132ABE16102BBE12102B5B08031D192A9F
:101430001B2A3E17102B3E13102B5A08003A031993
:10144000E529013A0319ED29033A0319F529013A6F
:101450000319FD29073A0319052A013A03190D2A30
:10146000033A0319152A013A0319102B0F3A0319ED
:10147000102B013A0319102B033A0319102B013AD0
:101480000319102B073A0319102B102BBD10102B2A
:10149000BD14102B5A08003A0319462A013A0319C1
:1014A000482A102B5B08031D562A582A3A15102B80
:1014B0003A11102B5B08031D5E2A602ABA15102B07
:1014C000BA11102B5B08031D662A682A3A16102BE6
:1014D0003A12102B5B08031D6E2A702ABA16102BC5
:1014E000BA12102B5B08031D762A782ABE14102B23
:1014F000BE10102B5B08031D7E2A802A3E16102B7F
:101500003E12102B5B08031D862A882ABE17102B5B
:10151000BE13102B5B08031D8E2A902A3F16102B3A
:101520003F12102B5B08031D962A982ABF16102B1A
:10153000BF12102B5B08031D9E2AA02A3F17102BF9
:101540003F13102B102B5A08003A0319522A013A64
:1015500003195A2A033A0319622A013A03196A2A1B
:10156000073A0319722A013A03197A2A033A03192E
:10157000822A013A03198A2A0F3A0319922A013A58
:1015800003199A2A033A0319A22A013A0319A22A33
:10159000102B5B08031DCD2ACF2ABB14102BBB10C8
:1015A000102B5B08031DD52AD72A3B15102B3B11A6
:1015B000102B5B08031DDD2ADF2ABF17102BBF137A
:1015C000102B5B08031DE52AE72A3C14102B3C1066
:1015D000102B5A08003A0319C92A013A0319D12AD3
:1015E000033A0319D92A013A0319E12A102B5B089F
:1015F000031DFB2AFD2ABD15102BBD11102B5C0805
:10160000003A03191D2A013A03194A2A033A031919
:10161000A32A013A0319E92A073A0319F72A102BDA
:101620003A0885003B0886003C0887003D08880092
:101630003E0889003F088316031788000800140835
:10164000FC003C308312C900FC1A272B282B4D2BA1
:101650007C192B2B2C2B4D2B7C1C2F2B302B4D2B0B
:10166000FC1D332B342B4D2B6400193083120313D4
:10167000B5000A128A11FB270A128A150317AC005B
:10168000FD01FD0A0313D201D301141F482B492B7E
:10169000872CD315D3141413872CFC1E502B512BDD
:1016A0000E2C7C19542B552B0E2C7C1C582B592B93
:1016B0000E2C7D08193A031D5E2B5F2B632B5315EF
:1016C000D3141830FD00141F662B672B6A2BD3151B
:1016D000D31414137D082C3E84000A128A11FB27B0
:1016E0000A128A15831780007D03031D782B792B3E
:1016F000A92B862B0B30B5009A2B1330B5009A2BF3
:101700000430B5009A2B5315D3149A2B7D082C3E28
:1017100084000008013A03197A2B033A03197A2B43
:10172000013A03197D2B073A03197A2B013A031961
:10173000802B832B7D082C3E84000008D200D3131D
:101740001A303502031CA52BA62B0C2C5315D314D1
:101750000C2C7D0835020318AE2BAF2BB02BA62B1B
:101760007D083506031DB52BB62B0C2C2D30F30050
:101770000130F4007D08FE3EF5000A168A11DC22D5
:101780000A128A157408AF007308AE007D082B3E5C
:10179000840083170008F8007D082C3E84000008B0
:1017A000D7007808D60057082F06031DD92B5608F6
:1017B0002E060319DC2BDD2BE42BAE01AF015314F5
:1017C00083120313D3140C2C531083160317BA0877
:1017D000031DEB2BEC2BE02B83120313D801D80A4B
:1017E000D901052C5908193A031DF72BF82BF92BB1
:1017F000D90358082C3E84000008F8005908BA3E66
:10180000840078088000D80AD90A58087D02031895
:101810000A2C0B2CF22BD310FD0A872CFC1A112C4E
:10182000122C262C7C1D152C162C262C7C18192CE1
:101830001A2C262CFC1D1D2C1E2C262CB601520801
:101840000A168A11C5210A128A15872CFC1E292C1A
:101850002A2C792C7C1D2D2C2E2C792C7C18312CAB
:10186000322C792C6B2C2E08D30053080A168A11BF
:10187000C5210A128A15B60A872C2F08D4005408ED
:101880000A168A11C5210A128A153B2C5230F30020
:101890000030F4000330F5000A168A11DC220A1227
:1018A0008A157408AF007308AE002E080A168A1154
:1018B000C5210A128A153B2C2F080A168A11C52148
:1018C0000A128A153B2CD31755300A168A11C521E6
:1018D0000A128A15872C3608003A0319332C013A6C
:1018E00003193D2C033A0319462C013A03195C2CC9
:1018F000632CFC1E7C2C7D2C872C7C19802C812C4D
:10190000872C7C18842C852C872C6400872C08005D
:101910000E3083120313E100E2010E300A168A1121
:1019200036220A128A150313DE00DF01E10A0319C9
:10193000E20A61080A168A1136220A128A1503136E
:10194000DC00DD015C08DD00DC015C08DE045D0814
:10195000DF04E10A0319E20A5F08AA3A55300319C5
:101960005E06031DB42CB52C5A2D61080A168A1187
:1019700036220A128A150313B200B301E10A0319D1
:10198000E20A61080A168A1136220A128A1503131E
:10199000DC00DD015C08DD00DC015C08B2045D08F0
:1019A000B304E10A0319E20AE001172D6008600799
:1019B0006007D23E840061080A168A1136220A1294
:1019C0008A15831380000313E10A0319E20A6008F1
:1019D00060076007D33E840061080A168A11362228
:1019E0000A128A15831380000313E10A0319E20A1D
:1019F00061080A168A1136220A128A15073903135A
:101A0000DC006008DD0001300310DD0DFF3E031D2A
:101A1000042D03105D0DB83E8400831300085C069E
:101A2000F8395C068000E10A0319E20AE00A4D0871
:101A30006002031C1C2D1D2DD62C2A30E100E20172
:101A4000E0016008E63E840061080A168A11362229
:101A50000A128A15831380000313E10A0319E20AAC
:101A6000E00A06306002031C362D372D212D32305E
:101A7000E100E201E0016008D33E840061080A163B
:101A80008A1136220A128A15831780000313E10A8D
:101A90000319E20AE00A0D306002031C502D512D9B
:101AA0003B2D42300A168A1136220A128A15031378
:101AB000D000342EDA0161080A168A118E220A1229
:101AC0008A1583120313E10A0319E20ADA01610895
:101AD0000A168A118E220A128A1583120313E10A4A
:101AE0000319E20AB201B301E001BA2DDA0161087B
:101AF0000A168A118E220A128A1583120313E10A2A
:101B00000319E20ADA0161080A168A118E220A1202
:101B10008A1583120313E10A0319E20A60086007B9
:101B20006007D23E8400831380016008600760076D
:101B3000D33E84008001DA01DA0A61080A168A11AC
:101B40008E220A128A1583120313E10A0319E20A8C
:101B50006008DC0001300310DC0DFF3E031DAB2DDF
:101B600003105C0DB83E840083130008F839013877
:101B70008000E00A4D086002031CBF2DC02D762DA9
:101B80002A30E100E201E0017830DA0061080A164B
:101B90008A118E220A128A1583120313E10A03198D
:101BA000E20A6008E63E8400783083138000E00A91
:101BB00006306002031CDD2DDE2DC42D3230E10025
:101BC000E201E001DA0161080A168A118E220A1286
:101BD0008A1583120313E10A0319E20A6008D33E4F
:101BE000840083178001E00A0D306002031CF92D88
:101BF000FA2DE22D4230E100E201D001DA0142305B
:101C00000A168A118E220A128A1583120313E10A18
:101C10000319E20A0D30E100E201DA01DA0A0D30BF
:101C20000A168A118E220A128A1583120313E10AF8
:101C30000319E20A5530DA0061080A168A118E2269
:101C40000A128A1583120313E10A0319E20AAA3061
:101C5000DA0061080A168A118E220A128A15831286
:101C60000313E10A0319E20A0800831603173A086E
:101C7000031D3B2EB92FA82F3C0883120313B20477
:101C8000831603173E0883120313B3048316031746
:101C90003D0883120313E100831603173B088312E8
:101CA0000313E000E009E1096008B2056108B3052B
:101CB000E501E401E40A83160317400883120313C5
:101CC00064050319642E652E762E6508E000013048
:101CD0000310E00DFF3E031D682E0310600DB83E9B
:101CE0008400831300081F394038800083160317CF
:101CF0003F0883120313640503197F2E802E912E53
:101D00006508E00001300310E00DFF3E031D832E47
:101D10000310600DB83E8400831300081F3920387B
:101D20008000E50A0310E40D04306502031C992EBF
:101D30009A2E5B2EE501E401E40A0310650DE30031
:101D40006308013EE2008316031741088312031360
:101D500064050319AC2EAD2EB62E6308C63E840072
:101D6000831300081F3980388000C82E831603179C
:101D700042088312031364050319BF2EC02EC82E18
:101D80006208C63E8400831300081F398038800033
:101D9000E50A0310E40D06306502031CD02ED12E97
:101DA0009D2E83160317BA01B92F83120313E50181
:101DB0006508E00001300310E00DFF3E031DDB2E3F
:101DC0000310600DB83E8400831300080739E1005A
:101DD0006508BB3E840083170008073961060319B4
:101DE000F22EF32E1A2F6508BB3E84000730000543
:101DF000E0006508E10001300310E10DFF3E031D26
:101E0000FC2E0310610DB83E8400831300086006A9
:101E1000F839600680006508BB3E8400831700081F
:101E2000DA00650865076507143E0A168A118E22D6
:101E30000A128A1583120313E50A04306502031C93
:101E4000222F232FD82ED12E83120313E5016508EC
:101E5000BB3E840083170008E0006508D33E840081
:101E6000000860060319352F362F4C2F6508BB3E3E
:101E700084000008E0006508D33E8400600880000C
:101E80006508D33E84000008DA006508323E0A1671
:101E90008A118E220A128A1583120313E50A0D3065
:101EA0006502031C542F552F272FD12E83120313A5
:101EB000E5016508BB3E840083170008E000650863
:101EC000E63E84008313000860060319682F692F1B
:101ED000812F6508BB3E840083170008E000650879
:101EE000E63E84006008831380006508E63E8400B7
:101EF0000008DA0065082A3E0A168A118E220A12A4
:101F00008A1583120313E50A06306502031C892F24
:101F10008A2F592FD12E831203134018902F912FFF
:101F2000A12F831603173B0883120313C000401C24
:101F30009A2F9B2FD12E0A168A1103260A128A1570
:101F4000D12E831603173B0883120313C000D12E32
:101F50003A08013A03193C2E033A0319D52E013AE7
:101F60000319242F073A0319562F013A03198B2F0F
:101F7000D12E831203133703031DBF2FC02FC82F89
:101F80004908031DC42FC72F5312C903C82F531666
:101F9000D308031DCC2FCD2FD92F143045020318A1
:101FA000D22FD32FD62FBD11C50AFF2FBD15C501C6
:101FB000FF2F531EDC2FDD2FEE2F143045020318A8
:101FC000E22FE32FE52FBD11E62FBD15C50A2830FE
:101FD0004502031CEC2FED2FFF2FD72F0A304502AF
:101FE0000318F32FF42FF62FBD11F72FBD15C50AD7
:101FF00014304502031CFD2FFE2FFF2FD72F0800A2
:10237A00FD0183120313B60183160317BA0108007D
:10238A00F000941370089300941BCC29CD29C62918
:10239A00141608000A168A116F230A168A110A12DD
:1023AA008A150C210A168A1108000A168A11AF2406
:1023BA000A168A110A128A119C240A168A110A1606
:1023CA008A116F270A168A110800DD01F8295D08AB
:1023DA00DA00DB0102300A128A15E3210A168A1191
:1023EA0083120313DD0A4B085D02031CFD29FE2933
:1023FA00EC299B01CF309D050800DD005D08DE0059
:10240A00DF010310DE0DDF0D1430DE070318DF0ACB
:10241A00FE30DE050130DF050030DE040630DF0461
:10242A005F08DB005E08DA0008007208F006B901EE
:10243A0008303902031C222A232A242A352A701C2E
:10244A00272A282A302A0310F10CF00C0130F00652
:10245A00A030F106332A0310F10CF00CB90A1D2A38
:10246A000800DA006400831603178C183D2A402AF4
:10247A0083120313372A831203135A0803178D0092
:10248A003F3083168C050C1403100C18031400300B
:10249A000318013083120C080800DE01DF015A1C00
:1024AA00572A582A5E2A5C08DE070318DF0A5D08E5
:1024BA00DF070310DC0DDD0D0310DB0CDA0C5B0803
:1024CA005A04031D692A6A2A542A5F08DB005E0837
:1024DA00DA000800DA00DB017E2ADB01DB0A8C2A3B
:1024EA000830DB008C2A0D30DB008C2A1130DB002F
:1024FA008C2A5A08003A0319722A013A0319752AD2
:10250A00033A0319782A013A03197B2A8C2A5B08B1
:10251A000800DB00831603178C18942A952A8F2A41
:10252A00831203135B0803178D0003135A0803175A
:10253A008C003F3083168C0503108B1FA52AA62A10
:10254A00A72A03148B130C1555308D00AA308D0061
:10255A008C140C11031CB22AB32AB42A8B17080054
:10256A000D30DD00DE010D300A168A1136220A16F8
:10257A008A110313DC00DD0A0319DE0A5C0303195E
:10258A00C72AC82ADB2ADA015D080A168A118E22AE
:10259A000A168A1183120313DD0A0319DE0ADA0105
:1025AA005D080A168A118E220A168A110800FF305F
:1025BA008312AC00FF30AD00B801FF2A2D08F100EC
:1025CA002C08F00038087307F60074080318013E57
:1025DA00F700760884008317771C83130008F2003B
:1025EA000A168A111A220A168A117108AD00700891
:1025FA00AC00B80A75083802031C042B052BE32A21
:10260A002D08F4002C08F3000800DA00DB01212B66
:10261A00DB01382B0230DB00382B0330DB00382B90
:10262A000930DB00382B0A30DB00382B0E30DB0098
:10263A00382B1230DB00382B5A08003A03190D2BBD
:10264A00013A03190F2B033A0319122B013A031902
:10265A00152B073A0319182B013A03191B2B033AB6
:10266A0003191E2B382B5B0808000B1D3D2B3E2B34
:10267A00552B8B1E412B422B552B83120313C10A58
:10268A003230340203184A2B4B2B4D2BB40A522BEF
:10269A000A168A116A240A168A11823081020B11DB
:1026AA00831203138C1D5A2B5B2B662B8C118316FA
:1026BA008C1D602B612B662B0A128A151F230A16A2
:1026CA008A117B088A007A088400790E8300FE0E3C
:1026DA007E0E0900E101A32BDF01DF0AE001610A96
:1026EA00792B0310DF0DE00DFF3E031D762B5F08EB
:1026FA003205DD0060083305DE005E085D04031D57
:10270A00872B882B962B40198B2B8C2B962B6108A9
:10271A00DA00DB0100300A128A15E3210A168A114F
:10272A00A02B6108DA00DB01DB0A00300A128A15E5
:10273A00E3210A168A1183120313E10A4C08610283
:10274A00031CA82BA92B712B0800DD005D08203E75
:10275A0084000018B12BB22BCD2BDA01DB0101303A
:10276A000A128A15E3210A168A115C3083120313AE
:10277A009B0030309D041430C3005D08DA00DB0191
:10278A00DB0A02300A128A15E3210A168A11E72B9C
:10279A00DA01DA0ADB0101300A128A15E3210A1684
:1027AA008A11831203139B01CF309D051430C30095
:1027BA005D08DA00DB01DB0A02300A128A15E3211E
:1027CA000A168A110800F1000A2C7008031DEE2B64
:1027DA00F02BBB14182CBB10182C7008031DF62BF9
:1027EA00F82B3B15182C3B11182C7008031DFE2BD7
:1027FA00002CBF17182CBF13182C7008031D062CA9
:10280A00082C3C14182C3C10182C7108003A031997
:10281A00EA2B013A0319F22B033A0319FA2B013A6C
:10282A000319022C182C3A0885003B0886003C083C
:10283A0087003D0888003E0889003F088316031771
:10284A0088000800DA00DB01482C0430DB00682C21
:10285A000530DB00682C0630DB00682C0730DB0013
:10286A00682C0B30DB00682C0C30DB00682C0F3036
:10287A00DB00682C1030DB00682C1330DB00682C7E
:10288A001430DB00682C5A08003A03192A2C013A42
:10289A0003192D2C033A0319302C013A0319332C4E
:1028AA00073A0319362C013A0319392C033A03194A
:1028BA003C2C013A03193F2C0F3A0319422C013AD6
:1028CA000319452C682C5B0808004D085102031CAB
:1028DA006F2C702C712CD1010310510DDE3E840037
:1028EA0083130008840A000403197C2C7D2CAD2C68
:1028FA000310510DDE3E8400001C842C852C8E2C86
:10290A00F001F00A51080A168A11E8230A168A11F8
:10291A00952CF00151080A168A11E8230A168A1121
:10292A00831203130310510DDE3E84000008F200E7
:10293A00840A0008F3000310F30CF20C0310510D83
:10294A00DE3E840072088000840A73088000AE2C80
:10295A00D10A0800E101F82CDF01DF0AE001610A6F
:10296A00B92C0310DF0DE00DFF3E031DB62C6108E4
:10297A000A168A110A230A168A11E2006208A03E80
:10298A0084008313000EDC00DC0C5C0C0139DD00D2
:10299A006208A03E8400000EDE005E0C01395D066E
:1029AA000319D82CD92CE42C6208A03E8400801A82
:1029BA00DF2CE02CEF2C6208A03E84000013600894
:1029CA00DD005F08DC00DC09DD095C08B0055D0894
:1029DA00B105F72C6208A03E840000175F08B00416
:1029EA006008B104E10A46086102031CFD2CFE2CB2
:1029FA00B12C0800DE014B2D5E080A128A11DC2672
:102A0A000A168A11DD005E08A03E840083130008BE
:102A1A0001395D060319122D132D202D5E08A03EE3
:102A2A0084005D080010031D00145E08A03E8400A7
:102A3A00E1308005482D5E08A03E8400000C0F3965
:102A4A00DC0004305C0203182B2D2C2D3A2D5E0875
:102A5A00A03E8400000C0F39DC00DC0ADC0D000803
:102A6A005C06E1395C068000482D5E08A03E8400C1
:102A7A000018432D462D5E08A03E8400831380165D
:102A8A00482D8313801283120313DE0A4A085E025A
:102A9A00031C502D512D012D0800DD00DC014E08CC
:102AAA005D020318592D5A2D602D06305D02031C54
:102ABA005F2D602D982D0130A42D5D08E63E84001F
:102ACA0083138008031D6A2D6B2D702D5D08E63E69
:102ADA008400783080005D08E63E84000008DB0050
:102AEA005D08E03E84005B0883178000A32D5D0823
:102AFA00E03E840083178001A32D5D08E03E840038
:102B0A008317800803198A2D8B2D952D3703031DF2
:102B1A008F2D902DA32D5D08E03E84008003A32D08
:102B2A00DC01DC0AA32D5A08003A0319622D013A86
:102B3A0003197C2D033A0319822DA32D5C08080082
:102B4A00E300E2014C0863020318AC2DAD2DB32D4E
:102B5A000D306302031CB22DB32DB52D0030022EA9
:102B6A0061086004031DBA2DBB2DC42D0310630D2B
:102B7A00A03E840083178001840A8001012E03107D
:102B8A00630DA03E840083170008840A0004031919
:102B9A00CF2DD02DEA2D0310630DA03E8400013005
:102BAA008002840F0030031C800380028403031018
:102BBA00630DA03E84000008840A0004031DE62D6C
:102BCA00E72D012EE201E20A012E6308D33E8400BA
:102BDA000008DA00DB013C30DC00DD010A168A114C
:102BEA0052220A168A110310630DA03E84005A0865
:102BFA008000840A5B088000620808001030DE004A
:102C0A00DF013208DC005C08DA0010300A168A118B
:102C1A008E220A168A1183120313DE0A0319DF0AA7
:102C2A003308DC005C08DA005E080A168A118E2274
:102C3A000A168A1183120313DE0A0319DF0ADD0159
:102C4A00502E5D085D075D07D23E8400831300089D
:102C5A00DA005E080A168A118E220A168A1183126F
:102C6A000313DE0A0319DF0A5D085D075D07D33E19
:102C7A00840083130008DA005E080A168A118E227D
:102C8A000A168A1183120313DE0A0319DF0ADE0AFF
:102C9A000319DF0ADD0A4D085D02031C552E562E64
:102CAA00262E42300A168A1136220A168A11013E47
:102CBA000313CF004F08FF3A031D642E652E672EBB
:102CCA00CF01CF0A4F08DA0042300A168A118E2243
:102CDA000A168A110800831691010330831203171A
:102CEA008700831603138F010C3083129D005C301A
:102CFA009B0030309D04F9308316920083128C10A9
:102D0A0083168C100430831292008330831681005C
:102D1A008230831281000B118B161630031789003B
:102D2A00C03083160313870424309300940183125E
:102D3A009401363094008C1183168C1506140317EF
:102D4A0085150515851405148716071687150715A1
:102D5A008714071403138817081788160816871686
:102D6A000716081487150715871485148811861104
:102D7A0006128612051009108912091308158810FF
:102D8A000511851105128512891009128913031775
:102D9A0005128512051303138610061103178513EE
:102DAA00031307108312BB143B15BF173C143A08D0
:102DBA0085003B0886003C0887003D0888003E08DD
:102DCA0089003F08831603178800640008000A1266
:102DDA008A155C200A168A110A168A1170260A16A2
:102DEA008A110A168A11BD210A168A110A128A152F
:102DFA0008200A168A110A168A11B5220A168A1199
:102E0A000A128A1588240A168A110A128A11B62702
:102E1A000A168A118B170B17162F8316081183129D
:102E2A008C108C18192F1A2F122F0A128A150820A3
:102E3A000A168A110C304102031C242F252F432F16
:102E4A000C30C10265304102031C2C2F2D2F2E2F6E
:102E5A00C101C40A0A168A11FF240A168A114308F4
:102E6A00031D382F432FC303C308031D3D2F3E2FD5
:102E7A00432F0A168A11EA210A168A1108304402D7
:102E8A00031C482F492F1A2FC401C20A19304202C3
:102E9A00031C502F512F542FC201B701B70A0A162B
:102EAA008A11DA210A168A110A128A1141200A168F
:102EBA008A110A128A1535260A168A110A168A11E1
:102ECA00CF210A168A1183120313B7011A2F0A1285
:102EDA008A110E28E001F92F60080A168A112724A0
:102EEA000A168A11DF005F08A03E84008313000ED1
:102EFA00DC00DC0C5C0C0139DD005F08A03E8400BC
:102F0A00000EDE005E0C01395D0603198D2F8E2F2F
:102F1A00A32F5F08A03E8400801A942F952F9A2F22
:102F2A005F08A03E840000139E2F5F08A03E840025
:102F3A0000176008C63E8400F03080055F08A03E96
:102F4A008400801AA92FAA2FD02F6008C63E8400B9
:102F5A00001EB02FB12FBC2F6008C63E84000008A7
:102F6A001F39403880006008C63E8400001260089D
:102F7A00C63E8400000EDC005C0C0739033A031DD0
:102F8A00C72FC82FF82F6008C63E840000081F39D3
:102F9A0020388000F82F6008C63E840000080F39E8
:102FAA00DC0006305C020318DB2FDC2FED2F6008F3
:102FBA00C63E840000080F39DC00DC0A00085C0603
:102FCA00F0395C0680006008C63E84000016F82FBF
:102FDA006008C63E840000081F3960388000600817
:102FEA00C63E84000012E00A48086002031CFE2F55
:062FFA00FF2F712F0800FB
:02400E00F2FFBF
:00000001FF
