:020000040000FA
:100000000A128A111228FF3FFE00030EF8000408AE
:10001000F9000A08FA00831203137F08FB000A168E
:100020008A15632C0A168A158B2B83120313ED0194
:100030006E286D0AE6000130E7000030E800232852
:100040000310E70DE80DE60B20286708E9006808B3
:10005000EA00690883160313560583120313E600AA
:100060006A0883160313570583120313E700670812
:10007000660403193C283D2843286908B4066A0829
:10008000B506432843283B08013A031D4828492860
:10009000672834086905E6006608E0006D080A165E
:1000A0008A158E270A128A11013A031D58285928E9
:1000B0006728831203136A08E7006908E600E60967
:1000C000E7096608B4056708B505672867280130A1
:1000D00083120313E6006608ED076E2852086D02CE
:1000E000031C7328742819287528ED013B2A6D0814
:1000F000E6006607E7006708EC006C0AE6006608A1
:10010000EB00AD28982898289828872887286C081D
:10011000B63E8400831300081F39203880006B0826
:10012000B63E840000081F39203880006429642905
:100130006B08B63E84008313000EE600660C073998
:10014000023A03198728013A03198728073A031945
:10015000872864296429642964296C08B63E8400D0
:100160008313000EE600660C0739023A031998283B
:10017000013A03199828073A031998286429642931
:100180006C08203E84008018C628C728E8286B0821
:10019000203E8400801CCD28CE28D3286B08203E2A
:1001A00084008010D328DA016D080A168A156D269E
:1001B0000A128A11DB28831203136C08203E840084
:1001C000831380146C08B63E84001F3080051D2AFE
:1001D000DA01DA0A6D080A168A156D260A128A11E2
:1001E000F128831203136C08203E840083138010CF
:1001F0006C08B63E84001F3080051D2A1D2ADA01D6
:10020000DA0A6D080A168A156D260A128A1108295B
:10021000831203136C08203E8400831380146B0840
:10022000203E840080101D2ADA01DA0A6D080A16C1
:100230008A156D260A128A111D29831203136C0870
:10024000203E8400831380106C08B63E84001F306B
:1002500080051D2A6B08203E8400801C302931292E
:1002600036296B08203E840080103629DA016D089B
:100270000A168A156D260A128A113E298312031363
:100280006C08203E8400831380146C08B63E840002
:100290001F3080051D2A0230E6006608DA006D086E
:1002A0000A168A156D260A128A11013A031D592968
:1002B0005A291D2A831203136C08203E84008313DD
:1002C00080101D2A1D2A1D2A6C08B63E8400000ECF
:1002D000E600660C0739013A03191429033A031999
:1002E000C028013A0319FF28073A03192A294B2984
:1002F0001D2A6B08203E840080187F298029A129AF
:100300006C08203E8400801C862987298C296C0873
:10031000203E840080108C29DA016D080A168A15A7
:100320006D260A128A119429831203136B08203E4A
:100330008400831380146B08B63E84001F30800550
:10034000342ADA01DA0A6D080A168A156D260A12AD
:100350008A11AA29831203136B08203E8400831399
:1003600080106B08B63E84001F308005342A342A82
:10037000DA01DA0A6D080A168A156D260A128A1140
:10038000C129831203136B08203E84008313801459
:100390006C08203E84008010342ADA01DA0A6D08E5
:1003A0000A168A156D260A128A11D629831203139A
:1003B0006B08203E8400831380106B08B63E8400D7
:1003C0001F308005342A6C08203E8400801CE929F7
:1003D000EA29EF296C08203E84008010EF29DA0119
:1003E0006D080A168A156D260A128A11F7298312DA
:1003F00003136B08203E8400831380146B08B63E01
:1004000084001F308005342A0230E6006608DA00D6
:100410006D080A168A156D260A128A11013A031D03
:10042000122A132A342A831203136B08203E8400F5
:1004300083138010342A342A342A831203136B085E
:10044000B63E84008313000EE600660C0739013ABD
:100450000319CD29033A03197929013A0319B82957
:10046000073A0319E329042A013083120313E60033
:100470006608ED073B2A54086D02031C402A412AF6
:100480007728422AED01B02C722C8E2C6D08E600E4
:1004900001300310E60DFF3E031D492A0310660DCF
:1004A000D83E84008313800103146D0D2C3E84001C
:1004B000801203146D0D2C3E8400E33080058E2CD9
:1004C0006D08E60066072C3E840000080739023AF2
:1004D00003196B2A6C2A792A6D08E60066072C3E00
:1004E0008400000807390038031D772A782A882AF3
:1004F000792A6430E6006D08E70002300310E70D4A
:10050000FF3E031D7E2A670AD83E840066088000ED
:100510006D08E60002300310E60DFF3E031D8B2A36
:10052000660AD83E84000008803A7F3E0318992A64
:100530009A2AA92A6430E6006D08E7000230031009
:10054000E70DFF3E031D9F2A670AD83E8400660818
:1005500080006D08E60002300310E60DFF3E031D2B
:10056000AC2A660AD83E84000008E7006D08E8005F
:1005700001300310E80DFF3E031DB92A0310680D7A
:10058000D83E84006708800003146D0D2C3E840063
:10059000801203146D0D2C3E8400E33080058E2CF8
:1005A0006D08E60066072C3E840000080739023A11
:1005B0000319DB2ADC2AE92A6D08E60066072C3ECF
:1005C0008400000807390038031DE72AE82AF82AC2
:1005D000E92A6430E6006D08E70002300310E70DF9
:1005E000FF3E031DEE2A670AD83E8400660880009D
:1005F0006D08E60001300310E60DFF3E031DFB2AE7
:100600000310660DD83E84000008803A7F3E031C2C
:100610000A2B0B2B1E2B6D08E60001300310E60D94
:10062000FF3E031D0E2B0310660DD83E8400800193
:1006300003146D0D2C3E840080125F2B6D08E600C4
:1006400002300310E60DFF3E031D212B660AD83E43
:1006500084000008803A7F3E03182F2B302B3F2B5D
:100660006430E6006D08E70002300310E70DFF3E3E
:10067000031D352B670AD83E8400660880006D088C
:10068000E60002300310E60DFF3E031D422B660A12
:10069000D83E84000008E7006D08E8000130031030
:1006A000E80DFF3E031D4F2B0310680DD83E84005C
:1006B0006708800003146D0D2C3E84008012031423
:1006C0006D0D2C3E8400E33080058E2C6430E600F6
:1006D0006D08E70001300310E70DFF3E031D6B2B93
:1006E0000310670DD83E84006608800003146D0D6A
:1006F0002C3E8400801603146D0D2C3E8400E330E4
:1007000080058E2C0130E6006608C40704304402E0
:10071000031C8B2B8C2B8E2CC40103146D0D2C3ED3
:100720008400801A942B952BEE2B6D08E600013087
:100730000310E60DFF3E031D982B0310660DD83EF7
:1007400084000008803A1D3E0318A72BA82BB92B64
:100750000130E6006D08E70001300310E70DFF3EB1
:10076000031DAD2B0310670DD83E8400660880077B
:10077000C92B6430E6006D08E70001300310E70D77
:10078000FF3E031DBE2B0310670DD83E8400660894
:1007900080006D08E60001300310E60DFF3E031DEA
:1007A000CC2B0310660DD83E84000008803A763EBC
:1007B0000318DB2BDC2B402C0A30E6006D08E70029
:1007C00001300310E70DFF3E031DE12B0310670D01
:1007D000D83E840066088000402C402C6D08E6005E
:1007E00001300310E60DFF3E031DF12B0310660DD3
:1007F000D83E84000008803A7E3E031C002C012C69
:10080000122CFF30E6006D08E70001300310E70D01
:10081000FF3E031D062C0310670DD83E84006608BA
:1008200080071F2C6D08E60001300310E60DFF3E27
:10083000031D152C0310660DD83E840080016D0841
:10084000E60001300310E60DFF3E031D222C0310CD
:10085000660DD83E84000008803A763E0318312C9D
:10086000322C402C6D08E60001300310E60DFF3EEF
:10087000031D352C0310660DD83E84008001402CEA
:100880006D08E60001300310E60DFF3E031D432C0A
:100890000310660DD83E84000008803A753E031CA4
:1008A000522C532C8E2C6D08E60001300310E60DFF
:1008B000FF3E031D562C0310660DD83E8400000831
:1008C000E7006D08E80002300310E80DFF3E031D4D
:1008D000642C680AD83E8400670880008E2C8E2C19
:1008E0008E2C8E2C03146D0D2C3E84008313000C73
:1008F000E600660C0739003A03198E2C013A0319F9
:10090000462A033A0319602A013A0319D02A073A02
:100910000319662B013A0319822B8E2C6D08E60011
:1009200066072C3E8400831300080739E700670838
:10093000DA006D08E80001300310E80DFF3E031DEA
:100940009C2C0310680DD83E0A168A159F240A12A3
:100950008A11013083120313E6006608ED07B02CFC
:1009600053086D02031CB52CB62C722CB72C080052
:100970000E3083120313E7000030E800E401E501C4
:1009800067080A168A1511230A128A1183120313A3
:10099000E100E2016108E4006208E5000130E707D8
:1009A0000318E80A0030E80767080A168A151123B9
:1009B0000A128A1183120313E100E2016108E200C6
:1009C000E1016108E4046208E5040130E707031867
:1009D000E80A0030E807AA306506031DF12C5530FF
:1009E0006406031DF42CF52CF02D67080A168A15F1
:1009F00011230A128A1183120313E100E201610834
:100A0000B4006208B5000130E7070318E80A0030B7
:100A1000E80767080A168A1511230A128A11831239
:100A20000313E100E2016108E200E1016108B4049E
:100A30006208B5040130E7070318E80A0030E80748
:100A4000E6017F2D67080A168A1511230A128A11FA
:100A500083120313E1006608E20001300310E20D87
:100A6000FF3E031D2E2D0310620DD83E8400610849
:100A7000831380000130E7070318E80A0030E80715
:100A800067080A168A1511230A128A1183120313A2
:100A9000E1006608E20002300310E20DFF3E031D94
:100AA0004C2D620AD83E8400610883138000013017
:100AB000E7070318E80A0030E80767080A168A15EE
:100AC00011230A128A1183120313E1000730610512
:100AD000E2006608E30063072C3E840083130008ED
:100AE0006206F839620680000130E7070318E80A59
:100AF0000030E8070130E1006108E6077F2D530868
:100B00006602031C842D852D222D862D2A30E700B8
:100B10000030E800E60106306602031C902D912D9E
:100B2000932DB32DB32D67080A168A1511230A12C7
:100B30008A1183120313E1006608CA3E840061082B
:100B4000831380000130E7070318E80A0030E80744
:100B50000130E1006108E60706306602031CB12D92
:100B6000B22D932DB32D3230E7000030E800E601BE
:100B70000D306602031CBD2DBE2DC02DE02DE02DD5
:100B800067080A168A1511230A128A1183120313A1
:100B9000E1006608CE3E84006108831780000130C2
:100BA000E7070318E80A0030E8070130E1006108B0
:100BB000E6070D306602031CDE2DDF2DC02DE02D73
:100BC0004230E7000030E80067080A168A15112352
:100BD0000A128A1183120313E1006108D6001E2F46
:100BE000DE0167080A168A1528240A128A110130C4
:100BF00083120313E7070318E80A0030E807DE0151
:100C000067080A168A1528240A128A1101308312ED
:100C10000313E7070318E80A0030E807B401B50139
:100C2000E601692EDE0167080A168A1528240A12D1
:100C30008A11013083120313E7070318E80A003012
:100C4000E807DE0167080A168A1528240A128A11A5
:100C5000013083120313E7070318E80A0030E8079E
:100C60006608E10001300310E10DFF3E031D332E45
:100C70000310610DD83E8400831380016608E100F3
:100C800002300310E10DFF3E031D412E610AD83EE4
:100C900084008001DE01DE0A67080A168A1528240E
:100CA0000A128A11013083120313E7070318E80AB6
:100CB0000030E8076608E10061072C3E84008313DA
:100CC0000008F839013880000130E1006108E607CA
:100CD000692E53086602031C6E2E6F2E122E702E84
:100CE0002A30E7000030E800E60106306602031C07
:100CF0007A2E7B2E7D2EA22EA22E7830E100610866
:100D0000DE0067080A168A1528240A128A110130A3
:100D100083120313E7070318E80A0030E807783066
:100D2000E1006608CA3E8400610883138000013038
:100D3000E1006108E60706306602031CA02EA12E22
:100D40007D2EA22E3230E7000030E800E6010D30A3
:100D50006602031CAC2EAD2EAF2ECE2ECE2EDE01A3
:100D600067080A168A1528240A128A11013083128C
:100D70000313E7070318E80A0030E8076608CE3EC9
:100D80008400831780010130E1006108E6070D301F
:100D90006602031CCC2ECD2EAF2ECE2E4230E700A5
:100DA0000030E800D6015608E1006108DE0067085F
:100DB0000A168A1528240A128A1101308312031395
:100DC000E7070318E80A0030E8070D30E7000030B5
:100DD000E800DE01DE0A67080A168A1528240A12CE
:100DE0008A11013083120313E7070318E80A003061
:100DF000E8075530E1006108DE0067080A168A1529
:100E000028240A128A11013083120313E7070318FA
:100E1000E80A0030E807AA30E1006108DE00670850
:100E20000A168A1528240A128A1101308312031324
:100E3000E7070318E80A0030E8071E2F08000A1623
:100E40008A11FB220A128A110A168A113C250A12FB
:100E50008A110A168A15BC220A128A110A128A15E8
:100E600000200A128A110A168A15BB230A128A1157
:100E70000A128A11B8240A128A110A168A15F02356
:100E80000A128A118B170B17512FFB308312031391
:100E9000EE006E08831603138805831203138C106B
:100EA000512F831203138C18562F572F452F582F6D
:100EB0002C08F8390138AC002E08F8390138AE009A
:100EC0003008F8390138B0003208F8390138B2007A
:100ED000692F0A128A1500200A128A110C30831217
:100EE00003134502031C752F762F9E2F0C30C5026D
:100EF00065304502031C7D2F7E2F802FC501802F7A
:100F00000130EE006E08C8070A168A15CC260A12B0
:100F10008A11831203134708031D8F2F9E2F013060
:100F2000C702C708031D952F962F9E2F0A168A15F4
:100F3000EE220A128A119E2F9E2F9E2F3C30831282
:100F400003134A02031CA52FA62FB62F3C30CA025A
:100F500065304A02031CAD2FAE2FB02FCA01B02F4F
:100F60000A128A15D1230A128A11B62F0830831269
:100F700003134802031CBD2FBE2F692FC801013087
:100F8000EE006E08C60719304602031CC82FC92F91
:100F9000CD2FC601BB01BB0ACD2F0A128A11EA2749
:100FA0000A128A110A128A1115200A128A110A12CB
:100FB0008A15C2250A128A110A168A15B1220A1246
:100FC0008A1183120313BB01692F692F692F0A123B
:100FD0008A1112280A168A1122200A128A110A126C
:100FE0008A1577200A128A110A168A114D210A12CF
:100FF0008A110800831203131308FE2F080005341A
:10100000153083120313DA005A08D0000730DA00D3
:101010005A08CB000730DA005A08D2000430DA0050
:101020005A08CC000430DA005A08D3000A30DA003B
:101030005A08CD000A30DA005A08D1005108DA0007
:1010400003105A0CDB005B08D40017305002031C5D
:101050002A282B282F281630DA005A08D0000E3004
:101060004B02031C3428352839280D30DA005A0881
:10107000CB000E305202031C3E283F2843280D307F
:10108000DA005A08D20005304C02031C48284928CF
:101090004D280430DA005A08CC0005305302031CF6
:1010A0005228532857280430DA005A08D3000D304C
:1010B0004D02031C5C285D2861280C30DA005A08B8
:1010C000CD000D305102031C662867286B280C30B8
:1010D000DA005A08D10007305402031C7028712826
:1010E00076280630DA005A08D400762808008312E1
:1010F0000313E101FC2961080A168A1536230A1236
:101100008A1583120313DD005D08E000E5298828B5
:101110006008A03E84008313000EDD00DD0C5D0C32
:101120000139DE006008A03E8400000EDF005F0C85
:1011300001395E0603199D289E28F7296008A03E04
:101140008400801AA428A528AA286008A03E84004C
:101150000013F7296008A03E840000170314610DF6
:101160002C3E84000008E3390C388000F729F72969
:10117000F7296008A03E8400000EDD00DD0C5D0C48
:101180000139DE006008A03E8400000EDF005F0C25
:1011900001395E060319CD28CE28E5286008A03E57
:1011A0008400801AD428D528DA286008A03E84005C
:1011B0000013DE286008A03E840000176108DD00EF
:1011C0005D072C3E8400873080056008A03E8400C7
:1011D000801AEB28EC288F296108DD005D072C3E82
:1011E0008400000CDE00DE0C5E0C0F39DF000630E0
:1011F0005F020318FC28FD2821296108DD005D0736
:101200002C3E8400000CDE00DE0C5E0C0F39DE008C
:10121000DE0ADE0DDE0DDE0D00085E0687395E0695
:1012200080006108DD005D072C3E8400801F1929C5
:101230001A2931290314610D2C3E84000014312930
:1012400031296108DD005D072C3E84008013031402
:10125000610D2C3E840000100314610D2C3E8400AF
:1012600080106108DD005D072C3E8400801F392955
:101270003A2948290314610D2C3E84000008E33903
:101280000C3880006108DD005D072C3E840080136F
:101290000314610D2C3E8400801C4F2950296829BD
:1012A0000314610D2C3E84000008E33910388000DF
:1012B0006108DD005D072C3E840080130314610D7E
:1012C0002C3E840000100314610D2C3E840080101D
:1012D0000314610D2C3E8400000CDD005D0C073909
:1012E000053A031D74297529F7290314610D2C3E55
:1012F0008400E33080050314610D2C3E8400000E51
:10130000DD005D0C0139DD000130DD06DD0EDD0D97
:1013100000085D06DF395D068000F729F7296108BE
:10132000DD005D072C3E8400000CDE00DE0C5E0C50
:101330000F39DF0006305F0203189F29A029C92951
:101340006108DD005D072C3E8400000CDE00DE0C31
:101350005E0C0F39DE00DE0ADE0DDE0DDE0D00084C
:101360005E0687395E0680006108DD005D072C3E61
:10137000840080170314610D2C3E8400001CC129D9
:10138000C229F7290314610D2C3E84008014F7292B
:10139000F7290314610D2C3E84000008E33914384A
:1013A00080006108DD005D072C3E8400801303147B
:1013B000610D2C3E840000100314610D2C3E84004E
:1013C0008010F729F729F729F7296108DD005D0763
:1013D0002C3E8400831300080739003A031988283B
:1013E000013A0319B928033A03198828F72901306B
:1013F000DD005D08E107FC294C086102031C012A9D
:10140000022A7B28032A080083120313DD00B12B74
:101410007C2A5B08031D0D2A0F2ABD15C22BF7304D
:10142000DC005C08BD05C22BC22B5B08031D192A1A
:101430001B2A3D16C22BEF30DC005C08BD05C22B19
:10144000C22B5B08031D252A272ABD16C22BDF30BD
:10145000DC005C08BD05C22BC22B5B08031D312AD2
:10146000332A3C14C22BFE30DC005C08BC05C22BC6
:10147000C22B5B08031D3D2A3F2A4014C22BFE30BD
:10148000DC005C08C005C22BC22B5B08031D492A87
:101490004B2AC016C22BDF30DC005C08C005C22B13
:1014A000C22B5B08031D552A572A4017C22BBF3099
:1014B000DC005C08C005C22BC22BC22BC22BC22B86
:1014C000C22BC22BC22BC22BC22BC22BC22BC22BB4
:1014D000C22BC22BC22BC22BC22BC22BC22BC22BA4
:1014E000C22BC22BC22BC22BC22BC22BC22BC22B94
:1014F000C22BC22BC22BC22B5A08003A0319092A4D
:10150000013A0319152A033A0319212A013A03194A
:101510002D2A073A0319392A013A0319452A033AB1
:101520000319512A013A0319C22B0F3A0319C22B8E
:10153000013A0319C22B033A0319C22B013A0319CA
:10154000C22B073A0319C22BC22BC22BAF2AFD3084
:10155000DC005C08BF05C22BBF14C22BC22B5A088B
:10156000003A0319A72A013A0319AC2AC22BC22B4D
:101570003C2B5B08031DBD2ABF2A3C15C22BFB3048
:10158000DC005C08BC05C22BC22B5B08031DC92A0A
:10159000CB2ABC15C22BF730DC005C08BC05C22B83
:1015A000C22B5B08031DD52AD72A3C16C22BEF306D
:1015B000DC005C08BC05C22BC22B5B08031DE12AC2
:1015C000E32ABC16C22BDF30DC005C08BC05C22B52
:1015D000C22B5B08031DED2AEF2AC014C22BFD307D
:1015E000DC005C08C005C22BC22B5B08031DF92A76
:1015F000FB2A4016C22BEF30DC005C08C005C22B72
:10160000C22B5B08031D052B072BC017C22B7F3095
:10161000DC005C08C005C22BC22B5B08031D112B2C
:10162000132B4116C22BEF30DC005C08C105C22B26
:10163000C22B5B08031D1D2B1F2BC116C22BDF30D5
:10164000DC005C08C105C22BC22B5B08031D292BE3
:101650002B2B4117C22BBF30DC005C08C105C22B0D
:10166000C22BC22BC22BC22BC22BC22BC22BC22B12
:10167000C22BC22BC22BC22B5A08003A0319B92A1B
:10168000013A0319C52A033A0319D12A013A031969
:10169000DD2A073A0319E92A013A0319F52A033A20
:1016A0000319012B013A03190D2B0F3A0319192BBA
:1016B000013A0319252B033A0319C22B013A0319E6
:1016C000C22BC22BC22B952B5B08031D682B6A2BE8
:1016D000BD14C22BFD30DC005C08BD05C22BC22B43
:1016E0005B08031D742B762B3D15C22BFB30DC00F1
:1016F0005C08BD05C22BC22B5B08031D802B822B0F
:10170000C117C22B7F30DC005C08C105C22BC22B85
:101710005B08031D8C2B8E2B3E14C22BFE30DC008D
:101720005C08BE05C22BC22BC22B5A08003A031913
:10173000642B013A0319702B033A03197C2B013AED
:101740000319882BC22BC22B5B08031DA82BAA2BC5
:10175000BF15C22BF730DC005C08BF05C22BC22BC3
:10176000C22B5D08003A03197C2A013A0319AF2AFB
:10177000033A03193C2B013A0319952B073A031935
:10178000A42BC22B3C0885003D0886003E0887003C
:101790003F08880040088900410883160317880025
:1017A000080083120313E401BA2D6408E10001303C
:1017B0000310E10DFF3E031DD82B0310610D033E06
:1017C000D83E8400831380080319E72BE82BB52D3E
:1017D0006408E10001300310E10DFF3E031DEB2B17
:1017E0000310610D033ED83E84000008E200640847
:1017F000E30001300310E30DFF3E031DFA2B03103D
:10180000630D023ED83E8400620880076408E10050
:1018100001300310E10DFF3E031D092C0310610D83
:10182000033ED83E84000008803A7F3E031C192CFA
:101830001A2C6A2C6408E10001300310E10DFF3E10
:10184000031D1D2C0310610D023ED83E84000008CC
:10185000803AE2006408E30001300310E30DFF3E2C
:10186000031D2D2C0310630DD83E84000008803A20
:10187000E202031C3C2C3D2CB92C6408E100013031
:101880000310E10DFF3E031D402C0310610DD83EF7
:1018900084000008E2006408E30001300310E30D57
:1018A000FF3E031D4E2C0310630D023ED83E840004
:1018B000620880006408E10001300310E10DFF3E82
:1018C000031D5D2C0310610D033ED83E8400800192
:1018D000B92CB92C6408E10001300310E10DFF3E82
:1018E000031D6D2C0310610DD83E84000008803A62
:1018F000E2006408E30001300310E30DFF3E031D26
:101900007C2C0310630D023ED83E84000008803A10
:10191000E202031C8C2C8D2CB92C6408E1000130F0
:101920000310E10DFF3E031D902C0310610DD83E06
:1019300084000008E2006408E30001300310E30DB6
:10194000FF3E031D9E2C0310630D023ED83E840013
:10195000620880006408E10001300310E10DFF3EE1
:10196000031DAD2C0310610D033ED83E84008001A1
:10197000B92C6408E10001300310E10DFF3E031DA6
:10198000BC2C0310610D023ED83E84000008803A52
:101990001B3E031CCC2CCD2CDE2C6430E1006408F3
:1019A000E20001300310E20DFF3E031DD22C0310B4
:1019B000620D023ED83E8400610880006408E100A8
:1019C00001300310E10DFF3E031DE12C0310610DFA
:1019D000023ED83E8400801FEE2CEF2CFE2C6408C3
:1019E000E10001300310E10DFF3E031DF22C031056
:1019F000610D023ED83E84008001FE2C4219012D6B
:101A0000022DA22D652D652D6408E1000130031023
:101A1000E10DFF3E031D072D0310610D023ED83E70
:101A200084000008803A6C3E0318172D182D2C2DC9
:101A30006A300A168A1101200A128A1583120313CA
:101A40006408E1006107C23E84005A0883138000E5
:101A5000840A5B088000B52D6B300A168A110120BC
:101A60000A128A15831203136408E1006107C23E5B
:101A700084005A0883138000840A5B088000B52D17
:101A8000B52D422D6408E10001300310E10DFF3E49
:101A9000031D452D0310610D023ED83E8400000851
:101AA0006E3E0A168A1101200A128A158312031348
:101AB0006408E2006207C23E84005A088313800073
:101AC000840A5B088000B52DB52D6408E10061072C
:101AD0002C3E840000080739003A0319422D013AD0
:101AE0000319422D033A0319042DB52DB52DA22D4E
:101AF0006B300A168A1101200A128A158312031309
:101B00006408E1006107C23E84005A088313800024
:101B1000840A5B088000B52D8D2DD2300A168A11FB
:101B200001200A128A15831203136408E100610779
:101B3000C23E84005A0883138000840A5B08800038
:101B4000B52DB52D6408E10061072C3E8400000826
:101B50000739003A03198D2D013A03198D2D033AE7
:101B60000319782DB52DB52DB52D0130E100610893
:101B7000E407BA2D53086402031CBF2DC02DD52BDA
:101B8000C12D0800831603173A08031DC82D9B2F8B
:101B9000892F892F3C0883120313B404831603177B
:101BA0003E0883120313B504831603173D088312FE
:101BB0000313E800831603173B0883120313E7009F
:101BC000E709E8096708B4056808B505EC01EB0109
:101BD000EB0A04306C02031CEE2DEF2DF12D2A2EA2
:101BE0002A2E831603174008831203136B0503196B
:101BF000FA2DFB2D052E03146C0D2C3E840083134F
:101C00000008E33908388000052E831603173F08C3
:101C1000831203136B0503190E2E0F2E192E0314B6
:101C20006C0D2C3E840083130008E33904388000D7
:101C3000192E0130E7006708EC076B08E70067071B
:101C4000E8006808EB0004306C02031C282E292EE3
:101C5000F12D2A2EEC01EB01EB0A06306C02031C7D
:101C6000322E332E352E772E772E6C08E70067073D
:101C7000E8006808EA006A0AE7006708E9008316D6
:101C800003174108831203136B050319482E492ECD
:101C9000522E6A08B63E8400831300081F3980382C
:101CA0008000662E831603174208831203136B0508
:101CB00003195B2E5C2E662E6908B63E84008313E2
:101CC00000081F3980388000662E662E0130E7003C
:101CD0006708EC076B08E7006707E8006808EB0097
:101CE00006306C02031C752E762E352E772E831649
:101CF0000317BA019B2F83120313EC0104306C020B
:101D0000031C832E842E862ED12ED12E6C08E70044
:101D100067072C3E8400831300080739E8006C0A2B
:101D2000BA3E840083170008073968060319992E04
:101D30009A2EC42E6C0ABA3E840007300005E700D4
:101D40006C08E80068072C3E8400831300086706CF
:101D5000F839670680006C0ABA3E840083170008D1
:101D6000E7006708DE000330E8006808DA006C0866
:101D70000A168A15D3220A128A15143E0A168A15E3
:101D800028240A128A15C42E013083120313E70097
:101D90006708EC0704306C02031CCF2ED02E862E71
:101DA000D12E83160317BA019B2F83120313EC0164
:101DB0000D306C02031CDD2EDE2EE02E152F152FAC
:101DC0006C0ABA3E840083170008E7006C08CE3E18
:101DD0008400000867060319EE2EEF2E082F6C0A08
:101DE000BA3E84000008E7006C08CE3E8400670815
:101DF00080006C08CE3E84000008E7006708DE0023
:101E00006C08323E0A168A1528240A128A15082FF1
:101E1000013083120313E7006708EC070D306C02F2
:101E2000031C132F142FE02E152F83160317BA014E
:101E30009B2F83120313EC0106306C02031C212F2D
:101E4000222F242F5C2F5C2F6C0ABA3E840083174C
:101E50000008E7006C08CA3E840083130008670688
:101E60000319332F342F4F2F6C0ABA3E8400831787
:101E70000008E7006C08CA3E8400670883138000EE
:101E80006C08CA3E84000008E7006708DE006C08A2
:101E90002A3E0A168A1528240A128A154F2F013065
:101EA00083120313E7006708EC0706306C02031C7B
:101EB0005A2F5B2F242F5C2F83160317BA019B2FF9
:101EC000831203134218652F662F792F8316031789
:101ED0003B0883120313E7006708C200421C712FFE
:101EE000722F822F0A168A11A5200A128A15822FB4
:101EF000822F831603173B0883120313E70067083A
:101F0000C200822F83160317BA019B2FBA019B2FA1
:101F10009B2F3A08013A0319CA2D033A03197B2E65
:101F2000013A0319D52E073A0319192F013A03195B
:101F3000602F862F9B2F831203133B08013A031D4A
:101F4000A22FA32FAE2F4F08031DA72FAB2F59127F
:101F50000130CF02AE2F5916AE2FAE2FD908031D78
:101F6000B22FB32FC62F143049020318B82FB92F40
:101F7000C22FF730E7006708BF050130E7006708A8
:101F8000C907FF2FBF15C901FF2FFF2F591EC92FEA
:101F9000CA2FE42F143049020318CF2FD02FD52F8A
:101FA000F730E7006708BF05D72FBF15D72F0130DF
:101FB000E7006708C90728304902031CE02FE12F1A
:101FC000FF2FC901FF2FFF2F0A3049020318E92F05
:101FD000EA2FEF2FF730E7006708BF05F12FBF1595
:101FE000F12F0130E7006708C90714304902031CCC
:101FF000FA2FFB2FFF2FC901FF2FFF2FFF2F080004
:10200000FF3F83120313DE005E08DC00DD010310D6
:10201000DC0DDD0D5C08143EDF005D080318013E99
:10202000003EE000FE30DF050130E0050030DF0457
:102030000630E0046008DB01DB075F08DA01DA073D
:102040002128080083120313E2019D28620ADD00A3
:102050000130DE000030DF0030280310DE0DDF0D20
:10206000DD0B2D285E08E0005F08E10062080A161B
:102070008A15DB240A168A1183120313DD005D081A
:10208000E3006308A03E84008313000EDD00DD0C36
:102090005D0C0139DE006308A03E8400000EDF0005
:1020A0005F0C01395E0603195628572884286308F7
:1020B000A03E8400801A5D285E2873286308A03E35
:1020C000840000136108DE006008DD00DD09DE0920
:1020D0005D0883160313D605831203135E08831667
:1020E0000313D705962883126308A03E84000017C7
:1020F000600883160313D604831203136108831642
:102100000313D7049628962883126108DE0060081E
:10211000DD00DD09DE095D0883160313D605831291
:1021200003135E0883160313D70596280130831224
:102130000313DD005D08E2079D284B086202031CC3
:10214000A228A3282628A4280800103083120313ED
:10215000E5000030E6003408E1006108E3006308B0
:10216000E1006108DE0065080A168A1528240A16AF
:102170008A11013083120313E5070318E60A0030C1
:10218000E6073508E1006108E3006308E100610843
:10219000DE0065080A168A1528240A168A110130FD
:1021A00083120313E5070318E60A0030E607E4018B
:1021B00021296408E10001300310E10DFF3E031DF9
:1021C000DC280310610DD83E840083130008E20070
:1021D0006208DE0065080A168A1528240A168A1184
:1021E000013083120313E5070318E60A0030E607FF
:1021F0006408E10002300310E10DFF3E031DFB28DF
:10220000610AD83E840083130008E2006208DE0001
:1022100065080A168A1528240A168A1101308312C5
:102220000313E5070318E60A0030E6070130E50767
:102230000318E60A0030E6070130E1006108E40710
:10224000212953086402031C26292729D928282973
:102250004230E5000030E60065080A168A151123B1
:102260000A168A1183120313E100610AE200620870
:10227000D5005508FF3A031D3E293F294229D501C3
:10228000D50A42295508E1006108DE0065080A16F2
:102290008A1528240A168A11080083120313E10103
:1022A000012A61080A168A1512260A168A11831253
:1022B0000313DD005D08E0006008A03E8400831386
:1022C000000EDD00DD0C5D0C0139DE006008A03E73
:1022D0008400000EDF005F0C01395E0603197129CE
:1022E000722987296008A03E8400801A78297929FC
:1022F0007E296008A03E8400001382296008A03E69
:10230000840000176108B63E8400F0308005600844
:10231000A03E8400801A8D298E29D2296108B63EFC
:10232000840000080F39DD0006305D02031899298A
:102330009A29A7296108B63E840000080F39DD00FC
:10234000DD0A00085D06F0395D068000AB296108F2
:10235000B63E840000126108B63E8400001EB1291A
:10236000B229BD296108B63E840000081F394038F3
:1023700080006108B63E840000126108B63E840009
:10238000000EDD005D0C0739033A031DC829C92979
:10239000FC296108B63E840000081F3920388000FF
:1023A000FC29FC296108B63E840000080F39DD00D5
:1023B00006305D020318DD29DE29EF296108B63EEB
:1023C000840000080F39DD00DD0A00085D06F039E1
:1023D0005D0680006108B63E84000016FC29610895
:1023E000B63E840000081F39603880006108B63EA0
:1023F00084000012FC29FC290130DD005D08E107A2
:10240000012A4D086102031C062A072A5129082ABD
:10241000080083120313C21C0E2A0F2A112AFA2A5B
:10242000FA2A05306F020318162A172A1C2A0130CF
:10243000E0006008EF071C2AE101F32A05306F0273
:10244000031C232A242AEC2A6108203E84008313DB
:10245000000C0139E0006108203E840000080139C9
:1024600060060319342A352AEC2A6118382A392AD9
:102470007F2A6108203E8400801C3F2A402A7F2A50
:10248000610A203E8400001C462A472A632A610A0A
:10249000203E84008010610A203E84008018542A67
:1024A000572A610A203E840083130014592A83139B
:1024B000001083120313EF01610A0A168A156925B9
:1024C0000A168A11FA2A831203136108203E840037
:1024D000831380186F2A722A6108203E84008313B8
:1024E0000014742A8313001083120313EF01610890
:1024F0000A168A1569250A168A11FA2AFA2A611C0F
:10250000822A832ACE2A6108203E8400801C892AE0
:102510008A2ACE2A6108FF3E203E8400001C912AB0
:10252000922AB22A6108FF3E203E84008010610892
:10253000FF3E203E84008018A22AA52A6108FF3EA3
:10254000203E840083130014A72A831300108312F3
:102550000313EF016108FF3E0A168A1569250A1662
:102560008A11FA2A831203136108203E8400831320
:102570008018BE2AC12A6108203E840083130014FB
:10258000C32A8313001083120313EF0161080A1694
:102590008A1569250A168A11FA2AFA2A8312031360
:1025A0006108203E840083138018DA2ADD2A61083E
:1025B000203E840083130014DF2A8313001083124B
:1025C0000313EF0161080A168A1569250A168A1194
:1025D000FA2AFA2AFA2AEC2A013083120313E000BD
:1025E0006008E107F32A51086102031CF82AF92A5E
:1025F0001E2AFA2A080083120313CE01C801C5015E
:10260000C901B401B50183160313D601D7018312A2
:102610000313DB0116305B02031C0F2B102B122B54
:102620002F2B2F2B5B08A03E8400831300105B0828
:10263000A03E8400E13080055B08A03E840080124B
:102640005B08A03E840000130130DA005A08DB0763
:1026500016305B02031C2D2B2E2B122B2F2BDB0194
:1026600004305B02031C352B362B382B6A2B6A2B6C
:102670005B08DA005A072C3E840083130008F839FF
:10268000013880005B08DA005A072C3E840087304E
:1026900080055B08DA005A072C3E8400801303147F
:1026A0005B0D2C3E8400001003145B0D2C3E840057
:1026B000801003145B0D2C3E8400E3308005013054
:1026C000DA005A08DB0704305B02031C682B692B15
:1026D000382B6A2BDB010C305B02031C702B712B37
:1026E000732B8D2B8D2B5B08B63E8400F03083134B
:1026F00080055B08B63E840000125B08B63E84008D
:102700001F3080050130DA005A08DB070C305B020D
:10271000031C8B2B8C2B732B8D2BDB010C305B0262
:10272000031C932B942B962BAF2BAF2B5B08203ED7
:102730008400831300145B08203E840080105B0833
:10274000DB3E8400831780010130DA005A08DB0782
:102750000C305B02031CAD2BAE2B962BAF2BDB0199
:1027600004305B02031CB52BB62BB82BED2BED2BE5
:102770005B08DA0001300310DA0DFF3E031DBB2BAE
:1027800003105A0DD83E8400831380015B08DA00E1
:1027900001300310DA0DFF3E031DC92B03105A0D43
:1027A000023ED83E840080015B08DA00013003104D
:1027B000DA0DFF3E031DD72B03105A0D033ED83E02
:1027C000840080010130DA005A08DB0704305B0224
:1027D000031CEB2BEC2BB82BED2BC201BC01BD0174
:1027E000BE01BF01C001C1010230DA005A08D000A9
:1027F000CB01CB0AD201D20ACC01CC0AD301D30A35
:102800000230DA005A08CD000230DA005A08D1004E
:10281000D401D40A080083120313DA00DB01E92C87
:10282000061C132C142C2D2DDB01DB0A2D2D2D2D38
:1028300083160317881D1D2C1E2C2D2D83120313A8
:10284000DB01DB0A2D2D2D2D83160317081D292CE6
:102850002A2C2D2D83120313DB01DB0A2D2D2D2DA8
:1028600083160317881C352C362C2D2D8312031349
:10287000DB01DB0A2D2D2D2D83160317081C412C9F
:10288000422C2D2D83120313DB01DB0A2D2D2D2D60
:1028900083160317891E4D2C4E2C2D2D83120313E6
:1028A000DB01DB0A2D2D2D2D83160317091E592C54
:1028B0005A2C2D2D83120313DB01DB0A2D2D2D2D18
:1028C00083160317891D652C662C2D2D8312031387
:1028D000DB01DB0A2D2D2D2D83160317091D712C0D
:1028E000722C2D2D83120313DB01DB0A2D2D2D2DD0
:1028F00083160317891C7D2C7E2C2D2D8312031328
:10290000DB01DB0A2D2D2D2D83160317091C892CC5
:102910008A2C2D2D83120313DB01DB0A2D2D2D2D87
:10292000881F932C942C2D2DDB01DB0A2D2D2D2DB2
:10293000081F9B2C9C2C2D2DDB01DB0A2D2D2D2D12
:10294000881EA32CA42C2D2DDB01DB0A2D2D2D2D73
:10295000081EAB2CAC2C2D2DDB01DB0A2D2D2D2DD3
:10296000871EB32CB42C2D2DDB01DB0A2D2D2D2D34
:10297000071EBB2CBC2C2D2DDB01DB0A2D2D2D2D94
:10298000081CC32CC42C2D2DDB01DB0A2D2D2D2D75
:10299000871DCB2CCC2C2D2DDB01DB0A2D2D2D2DD5
:1029A000071DD32CD42C2D2DDB01DB0A2D2D2D2D35
:1029B000871CDB2CDC2C2D2DDB01DB0A2D2D2D2D96
:1029C000851CE32CE42C2D2DDB01DB0A2D2D2D2D78
:1029D0002D2D5A08003A0319102C013A0319182C0E
:1029E000033A0319242C013A0319302C073A03192E
:1029F0003C2C013A0319482C033A0319542C013A90
:102A00000319602C0F3A03196C2C013A0319782C26
:102A1000033A0319842C013A0319902C073A03193D
:102A2000982C013A0319A02C033A0319A82C013A57
:102A30000319B02C1F3A0319B82C013A0319C02C02
:102A4000033A0319C82C013A0319D02C073A031989
:102A5000D82C013A0319E02C2D2D83120313DB0827
:102A6000031D332D342D372DDB01DB0A392DDB011E
:102A7000392D5B083B2D08008316031391010330A9
:102A8000831203178700831603138F010C30831200
:102A900003139D005C309B003030DA005A089D041F
:102AA000F930831603139200831203138C108316DC
:102AB00003138C10043083120313920083308316A7
:102AC0000313810082308312031381000B118B16D4
:102AD0001630831203178900C03083120313DA0003
:102AE0005A08831603138704243093009401831239
:102AF00003139401363094008C11831603138C1544
:102B000006148316031785150515851405148716F5
:102B100007168715071587140714831603138817DC
:102B2000081788160816871607160814871507153C
:102B300087148514F73083120313DA005A088316BA
:102B400003138805F73083120313DA005A0883163B
:102B500003138605EF3083120313DA005A08831635
:102B600003138605DF3083120313DA005A08831635
:102B700003138605FE3083120313DA005A08831606
:102B800003138505FE3083120313DA005A088316F7
:102B900003138905DF3083120313DA005A08831602
:102BA00003138905BF3083120313DA005A08831612
:102BB000031389050815FD3083120313DA005A0840
:102BC000831603138805FB3083120313DA005A08B7
:102BD000831603138505F73083120313DA005A08AE
:102BE000831603138505EF3083120313DA005A08A6
:102BF000831603138505DF3083120313DA005A08A6
:102C0000831603138505FD3083120313DA005A0877
:102C1000831603138905EF3083120313DA005A0871
:102C20008316031389057F3083120313DA005A08D1
:102C3000831603138905EF3083120313DA005A0851
:102C4000831603178505DF3083120313DA005A0851
:102C5000831603178505BF3083120313DA005A0861
:102C6000831603178505FD3083120313DA005A0813
:102C7000831603138605FB3083120313DA005A0808
:102C80008316031386057F3083120313DA005A0874
:102C9000831603178505FE3083120313DA005A08E2
:102CA000831603138705FD3083120313DA005A08D5
:102CB000BD05FB30DA005A08BD057F30DA005A083E
:102CC000C105FE30DA005A08BE053C0885003D0803
:102CD00086003E0887003F088800400889004108B8
:102CE0008316031788006400080083160313140872
:102CF000F1007108FC003C30F100710883120313ED
:102D0000CF00FC1A842E852EB32E7C19882E892E96
:102D1000B32E7C1C8C2E8D2EB32EFC1D902E912E4E
:102D2000B32E64008312031343161430F1007108AC
:102D3000B7000A128A11FA270A168A11F1007108DF
:102D400083120317A00083120313B801FD01FD0ACB
:102D5000D801D901141FAD2EAE2EFF2FD915D914CD
:102D60001413FF2FFF2FFC1EB62EB72E8A2F7C19AF
:102D7000BA2EBB2E8A2F7C1CBE2EBF2E8A2F7D081A
:102D8000143A031DC42EC52ECC2E5915D914133058
:102D9000F1007108FD00CC2E141FCF2ED02ED42EA2
:102DA000D915D9141413D42E0A128A11FA270A1627
:102DB0008A11F1007D08203E84007108831780008D
:102DC0007D08203E84000008F1007108831203137F
:102DD000B8077D08013A031DEE2EEF2E342F0E2F7B
:102DE0000E2F0A30F1007108B700222F0A30F100CF
:102DF0007108B700222F1230F1007108B700222F9E
:102E00000A30F1007108B700222F0330F100710879
:102E1000B700222F5915D914222F222F7D08203ECA
:102E200084000008013A0319F12E033A0319F62E23
:102E3000013A0319FB2E073A0319002F013A03192F
:102E4000052F0A2F7D08203E84000008F10071083C
:102E5000D800D91315303702031C2F2F302F852FA0
:102E60005915D914852F852F7D0837020318392F5E
:102E70003A2F3D2F5915D914852F7D083706031D8C
:102E8000422F432F852F3808031D472F4A2F5914EF
:102E9000D914852F591083160317BA08031D512F13
:102EA000522F7C2FF201F20AF301722F7308143AA9
:102EB000031D5B2F5C2F5F2F0130F3025F2F720821
:102EC000203E84000008F1007308BA3E84007108B7
:102ED00080000130F1007108F2070130F100710843
:102EE000F307722F72087D020318772F782F562F61
:102EF00083120313D910852F83120313D914852F3E
:102F0000852F852F852F852F852F0130F1007108A2
:102F1000FD07FF2FFC1A8D2F8E2FA62F7C1D912FC2
:102F2000922FA62F7C18952F962FA62FFC1D992F38
:102F30009A2FA62FB9015808F1007108BA00580855
:102F40000A168A15C7220A168A11FF2FFC1EA92FFE
:102F5000AA2FEB2F7C1DAD2FAE2FEB2F7C18B12F9E
:102F6000B22FEB2FE02FE02F59080A168A15C7223F
:102F70000A168A11831203135908F1007108BA075F
:102F80000130F1007108B907FF2FBA090130F100D3
:102F90007108BA073A080A168A15C7220A168A1152
:102FA0000130F100710883120313B907FF2FD917FD
:102FB00055300A168A15C7220A168A11FF2FFF2FCD
:102FC000831203133908003A0319B42F013A031985
:102FD000C52FD72FFF2FFC1EEE2FEF2FFF2F7C19B1
:102FE000F22FF32FFF2F7C18F62FF72FFF2F43120E
:102FF0006400FF2FFF2FFF2FFF2FFF2FFF2F080051
:10300000FF3FFF3FFF3FFF3FFF3FFF3FFF3FFF3FD0
:10301000FF3FFF3FFF3FFF3FFF3FFF3FFF3FFF3FC0
:10302000FF3FFF3FFF3FFF3FFF3FFF3FFF3FFF3FB0
:10303000FF3FFF3FFF3FFF3FFF3FFF3FFF3FFF3FA0
:10355000FF3F64008001840A040603190034040656
:10356000AA2A0A168A151B250A168A150A168A110E
:1035700009220A168A150800FD0183120313B901F6
:10358000B601BA01B80183160317BA010800F000AA
:1035900083120313941370089300941BD02AD12A2A
:1035A000C82A1416080083120313DD00DC01D82A90
:1035B0005D1CDB2ADC2AE12A5A08DB005B08DC07F9
:1035C000E12A0310DA0D0310DD0CDD08031DE92AE2
:1035D000EA2AD82AEB2A5C08ED2A08008312031392
:1035E000DF01042B5F08DE005E08DA00DB01023039
:1035F0000A128A1504220A168A150130831203134F
:10360000DE005E08DF07042B51085F02031C092B54
:103610000A2BF22A0B2B9B01CF30DE005E089D05A2
:10362000080083120313DB006400831603178C1851
:103630001A2B1B2B142B1C2B831203135B088312D6
:1036400003178D003F3083120313DA005A088316E4
:1036500003178C050C1403100C1803140030031806
:103660000130831203170C08352B08008312031353
:10367000DB00DC014E2BDC01DC0A5C2B0830DA00BD
:103680005A08DC005C2B0D30DA005A08DC005C2B99
:103690001130DA005A08DC005C2B5C2B5B08003A26
:1036A00003193B2B013A03193E2B033A0319432B11
:1036B000013A0319482B5C2B5C085E2B080083122F
:1036C0000313DE01DF01642B5A1C672B682B6E2B62
:1036D0005C08DE070318DF0A5D08DF07013003100E
:1036E000DC0DDD0DFF3E031D6F2B01300310DB0CE5
:1036F000DA0CFF3E031D762B5B085A04031D812B59
:10370000822B642B832B5F08DB01DB075E08DA0169
:10371000DA078A2B0800FC01FD01831320308400A6
:103720005A300A168A15A9220A168A158317A0305C
:103730008400E7300A168A15A9220A168A1583130F
:10374000A0308400E8300A168A15A9220A168A15C4
:1037500083172030840034300A168A15A9220A16ED
:103760008A150A128A11FF270A168A15EF008301AB
:103770000A128A111F2F0D3083120313E300003049
:10378000E40063080A168A1511230A168A158312A3
:103790000313E1006108E2000130E3070318E40AC3
:1037A0000030E4076208013A0319D72BD82BEF2B1E
:1037B000DE0163080A168A1528240A168A150130C4
:1037C00083120313E3070318E40A0030E407DE0161
:1037D00063080A168A1528240A168A15EF2B080092
:1037E00083120313E30104306302031CF82BF92B4B
:1037F000FB2B272C272C6308E10001300310E10D7F
:10380000FF3E031DFE2B0310610D023ED83E8400D7
:10381000831300080A168A1101200A168A158312DA
:1038200003136308E2006207C23E84005A08831350
:103830008000840A5B0880000130E1006108E30732
:1038400004306302031C252C262CFB2B272C08009C
:1038500083120313E0002C2C831603178C18312CD1
:10386000322C2C2C332C8312031360088312031781
:103870008D00831203135E08831203178C003F3000
:1038800083120313DF005F08831603178C0583126E
:10389000031303108B1F4D2C4E2C4F2C03148B1332
:1038A000831603170C1555308D00AA308D008C142B
:1038B0000C1183120313031C5E2C5F2C622C8B17DC
:1038C000622C622C08000B1D662C672C802C8B1E32
:1038D0006A2C6B2C802CCE01CE0A0130F7007708C1
:1038E000C5070130F7007708CA070A168A15B925F7
:1038F0000A168A1582308312031381020B11802C61
:103900008C1D832C842C922C8C11831603138C1DFC
:103910008A2C8B2C922C0A168A1175260A168A1567
:10392000922C922C7B0883120313FF007A088A00E2
:1039300079088400780E8300FE0E7E0E0900831243
:103940000313DD005D08840083130008803A1B3EEA
:10395000031CAB2CAC2CB22C6430DB005D08840063
:103960005B0880005D088400801FB72CB82CBC2C3D
:103970005D0884008001BC2C5D08023E84000008C4
:10398000DB005D08840000085B060319C82CC92C05
:10399000DA2C5D0884000008DB005D08023E84002C
:1039A0000003FF3A5B07DC005D08033E84005C080F
:1039B0008000DA2C080083120313DB00DC01012DE8
:1039C000DC01182D0230DA005A08DC00182D033013
:1039D000DA005A08DC00182D0930DA005A08DC0039
:1039E000182D0A30DA005A08DC00182D0E30DA00E3
:1039F0005A08DC00182D1230DA005A08DC00182DA5
:103A0000182D5B08003A0319E02C013A0319E22C47
:103A1000033A0319E72C013A0319EC2C073A03196E
:103A2000F12C013A0319F62C033A0319FB2C182D3B
:103A30005C081A2D080083120313E301612D630A49
:103A4000DE000130DF000030E000292D0310DF0D23
:103A5000E00DDE0B262D5F08E1006008E200610842
:103A60003405DE0062083505DF005F085E04031DD3
:103A70003A2D3B2D4B2D42193E2D3F2D4B2D6308EA
:103A8000DE005E08DA00DB0100300A128A1504222B
:103A90000A168A155A2D831203136308DE005E0886
:103AA000DA00DB01DB0A00300A128A1504220A164A
:103AB0008A155A2D013083120313DE005E08E307D6
:103AC000612D52086302031C662D672D1F2D682D82
:103AD000080083120313DF005F08203E8400831375
:103AE0000018732D742D952DDA01DB0101300A12B7
:103AF0008A1504220A168A155C30831203139B0070
:103B00003030DE005E089D041430DE005E08C70021
:103B10005F08DE005E08DA00DB01DB0A02300A1211
:103B20008A1504220A168A15B82D83120313DA01A6
:103B3000DA0ADB0101300A128A1504220A168A15F4
:103B4000831203139B01CF30DE005E089D05143005
:103B5000DE005E08C7005F08DE005E08DA00DB01F9
:103B6000DB0A02300A128A1504220A168A15B82DB9
:103B700008008312031353085702031CC02DC12DE4
:103B8000C32DD701C32D5708F3007307C23E84002D
:103B900083130008840A00040319CF2DD02D0C2EA6
:103BA0005708F3007307C23E84000008F400840A3B
:103BB0000008F500741CDD2DDE2DE72DF001F00A64
:103BC00057080A168A152C270A168A15F12DF001B6
:103BD0008312031357080A168A152C270A168A150A
:103BE000F12D831203135708F3007307C23E8400BC
:103BF00083130008F400840A0008F5000310F50C94
:103C0000F40C5708F6007607C23E84007408800062
:103C1000840A75088000112E0130F3007308D7075D
:103C2000112E080083120313DB00DC014A2E04303E
:103C3000DA005A08DC006A2E0530DA005A08DC0087
:103C40006A2E0630DA005A08DC006A2E0730DA00E5
:103C50005A08DC006A2E0B30DA005A08DC006A2EA3
:103C60000C30DA005A08DC006A2E0F30DA005A08ED
:103C7000DC006A2E1030DA005A08DC006A2E13309D
:103C8000DA005A08DC006A2E1430DA005A08DC0028
:103C90006A2E6A2E5B08003A0319172E013A03199F
:103CA0001C2E033A0319212E013A0319262E073A36
:103CB00003192B2E013A0319302E033A0319352E1E
:103CC000013A03193A2E0F3A03193F2E013A03190C
:103CD000442E6A2E5C086C2E080083120313DD004C
:103CE000DC0154085D020318762E772E7E2E0630F6
:103CF0005D02031C7C2E7D2EBE2E7E2E0130CB2E2F
:103D0000CB2EBE2E5D08CA3E840083138008031D9F
:103D10008A2E8B2E922E7830DB005D08CA3E8400FE
:103D20005B0880005D08CA3E84000008DB005D0877
:103D3000D03E84005B088000C92E5D08D03E840020
:103D400083138001C92E5D08D03E84008313800850
:103D50000319AB2EAC2EB92E3B08013A031DB12E30
:103D6000B22EC92E5D08D03E840001308002C92EDB
:103D7000C92EDC01DC0AC92EC92EC92E5A08003A08
:103D80000319822E013A03199D2E033A0319A32E1B
:103D9000C92E5C08CB2E080083120313DE01242FEA
:103DA0005E080A168A110B240A168A158312031359
:103DB000DC005C08DD005E08A03E84008313000880
:103DC00001395D060319E52EE62EF32E5E08A03EAE
:103DD00084005D080010031D00145E08A03E8400EE
:103DE000E13080051D2F5E08A03E8400000C0F39D5
:103DF000DC0004305C020318FE2EFF2E0D2F5E083F
:103E0000A03E8400000C0F39DC00DC0ADC0D000849
:103E10005C06E1395C0680001D2F5E08A03E840030
:103E20000018162F192F5E08A03E840083138016F9
:103E30001B2F831380121D2F1D2F0130831203139C
:103E4000DC005C08DE07242F50085E02031C292FCB
:103E50002A2FD02E2B2F0800F2006F2F7008031D81
:103E6000322F362F83120313BD147D2FFD30F10046
:103E7000710883120313BD057D2F7D2F7008031D6C
:103E8000422F462F831203133D157D2FFB30F10087
:103E9000710883120313BD057D2F7D2F7008031D4C
:103EA000522F562F83120313C1177D2F7F30F1003D
:103EB000710883120313C1057D2F7D2F7008031D28
:103EC000622F662F831203133E147D2FFE30F10004
:103ED000710883120313BE057D2F7D2F7D2F72087D
:103EE000003A03192E2F013A03193E2F033A031902
:103EF0004E2F013A03195E2F7D2F831203133C08C6
:103F000085003D0886003E0887003F08880040087D
:103F100089004108831603178800080083120313E1
:103F2000E500E401520865020318972F982F9F2F90
:103F30000D306502031C9D2F9E2FA22F9F2F64081A
:103F4000FF2FFF2FE008031DA62FA72FB12F650815
:103F5000E1006107A03E840083178001840A80018C
:103F6000FD2F6508E1006107A03E8400831700086B
:103F7000840A00040319BD2FBE2FDB2F6508E10062
:103F80006107A03E840001308002840F0030031CD2
:103F90008003800284036508E1006107A03E84007D
:103FA0000008840A0004031DD62FD72FFD2FE4013B
:103FB000E40AFD2FFD2F6508CE3E84000008E100D5
:103FC000E2016108DA006208DB003C30DC0000300E
:103FD000DD000A168A155F230A168A158312031359
:103FE0006508E3006307A03E84005A088317800039
:103FF000840A5B088000FD2FFD2F6408FF2F080056
:02400E00F23F7F
:08400000FF3FFF3FFF3FFF3FC0
:10420000FF00FF00FF00FF00FF00FF00FF00FF00B6
:10421000FF00FF00FF00FF00FF0001005500AA00A3
:10422000000000000000000002000000000000008C
:10423000000000000000FF00FF000000FF00FF0082
:10424000FF00FF00FF00FF00FF00FF00FF00FF0076
:10425000FF00FF0078007800780078007800780090
:10426000FF00FF0000000000000000000000000050
:104270000000000000000000000000000000FF003F
:10428000FF00FF001D00FF00FF00FF00FF00FF0018
:10429000FF00FF00FF00FF00FF00FF00FF00FF0026
:1042A000FF00FF00FF00FF00FF00FF00FF00FF0016
:1042B000FF00FF00FF00FF00FF00FF00FF00FF0006
:1042C000FF00FF00FF00FF00FF00FF00FF00FF00F6
:1042D000FF00FF00FF00FF00FF00FF00FF00FF00E6
:1042E000FF00FF00FF00FF00FF00FF00FF00FF00D6
:1042F000FF00FF00FF00FF00FF00FF00FF00FF00C6
:10430000FF00FF00FF00FF00FF00FF00FF00FF00B5
:10431000FF00FF00FF00FF00FF00FF00FF00FF00A5
:10432000FF00FF00FF00FF00FF00FF00FF00FF0095
:10433000FF00FF00FF00FF00FF00FF00FF00FF0085
:10434000FF00FF00FF00FF00FF00FF00FF00FF0075
:10435000FF00FF00FF00FF00FF00FF00FF00FF0065
:10436000FF00FF00FF00FF00FF00FF00FF00FF0055
:10437000FF00FF00FF00FF00FF00FF00FF00FF0045
:10438000FF00FF00FF00FF00FF00FF00FF00FF0035
:10439000FF00FF00FF00FF00FF00FF00FF00FF0025
:1043A000FF00FF00FF00FF00FF00FF00FF00FF0015
:1043B000FF00FF00FF00FF00FF00FF00FF00FF0005
:1043C000FF00FF00FF00FF00FF00FF00FF00FF00F5
:1043D000FF00FF00FF00FF00FF00FF00FF00FF00E5
:1043E000FF00FF00FF00FF00FF00FF00FF00FF00D5
:1043F000FF00FF00FF00FF00FF00FF00FF00FF00C5
:00000001FF
