:060000000A128A110E280D
:10000800FE00030EF9000408FA000A08FB000A16AD
:100018008A116E290A128A111128FC01FD01831325
:100028002030840050300A168A15D0270A128A1107
:100038008317A0308400E9300A168A15D0270A12DF
:100048008A118313A0308400EF300A168A15D0274E
:100058000A128A1183172030840045300A168A153F
:10006800D0270A128A110A128A11FF270A128A1146
:10007800EB0083010A168A11932D83160317ED01ED
:10008800A528E901E90AEA016D0A4D280310E90DDE
:10009800EA0DFF3E031D4A286908831203132A0547
:1000A800E900831603176A08831203132B05EA0075
:1000B8006A0869040319612862286E2883160317E1
:1000C800690883120313AC06831603176A088312A0
:1000D8000313AD063103031D72287328A2282D08C7
:1000E800E2002C08E1008316031769088312031342
:1000F800E105831603176A0883120313E2058316C2
:1001080003176D080A168A11AB260A128A11013ADA
:10011800031D8F289028A228831603176A088312C4
:100128000313EA0083160317690883120313E9000F
:10013800E909EA096908AC056A08AD0583160317D9
:10014800ED0A831203134608831603176D02031C76
:10015800AE28AF284528ED016A2A03106D0DEC0082
:100168006C08013EEB00DF28CA28831603176C08C9
:10017800BD3E840000081F39203880006B08BD3E52
:10018800840000081F39203880009429831603173B
:100198006B08BD3E8400000E83120313E900690C4E
:1001A8000739023A0319B928013A0319B928073A55
:1001B8000319B92894296C08BD3E84008313000EE6
:1001C80083120313E900690C0739023A0319B828A6
:1001D800013A0319CA28073A0319CA289429831629
:1001E80003176C08C93E84008018FB28FC281F29C7
:1001F8006B08C93E8400801C0229032907296B0863
:10020800C93E8400801083120313D4018316031798
:100218006D080A128A1511200A128A11831603170B
:100228006C08C93E8400831380146C08BD3E8400AA
:100238001F3080054E2A83120313D401D40A831673
:1002480003176D080A128A1511200A128A118316DB
:1002580003176C08C93E8400831380106C08BD3EE8
:1002680084001F3080054E2AD401D40A8316031750
:100278006D080A128A1511200A128A1183160317AB
:100288006C08C93E8400831380146B08C93E84003F
:1002980080104E2AD401D40A831603176D080A1257
:1002A8008A1511200A128A112B29831603176B0845
:1002B800C93E8400801C6129622966296B08C93EF1
:1002C8008400801083120313D401831603176D086A
:1002D8000A128A1511200A128A1112298316031785
:1002E8006C08C93E8400801C7A297B294E2A02307A
:1002F80083120313D400831603176D080A128A1594
:1003080011200A128A11013A031D8B298C29AC2964
:10031800831603176C08C93E8400831380104E2A85
:10032800831603176C08BD3E8400000E8312031366
:10033800E900690C0739013A03194E29033A0319F0
:10034800F328013A03193829073A03195929722958
:100358004E2A831603176B08C93E84008018B529F6
:10036800B629D9296C08C93E8400801CBC29BD293E
:10037800C1296C08C93E8400801083120313D4017C
:10038800831603176D080A128A1511200A128A119A
:10039800831603176B08C93E8400831380146B0807
:1003A800BD3E84001F308005672A83120313D401E1
:1003B800D40A831603176D080A128A1511200A1227
:1003C8008A11831603176B08C93E840083138010B3
:1003D8006B08BD3E84001F308005672AD401D40A0B
:1003E800831603176D080A128A1511200A128A113A
:1003F800831603176B08C93E8400831380146C08A6
:10040800C93E84008010672AD401D40A83160317D2
:100418006D080A128A1511200A128A11E529831615
:1004280003176C08C93E8400801C1B2A1C2A202A3A
:100438006C08C93E8400801083120313D40183160C
:1004480003176D080A128A1511200A128A11CC297D
:10045800831603176B08C93E8400801C342A352A8A
:10046800672A023083120313D400831603176D081A
:100478000A128A1511200A128A11013A031D452A07
:10048800462A672A831603176B08C93E840083131C
:100498008010672A831603176B08BD3E84008313F8
:1004A800000E83120313E900690C0739013A031996
:1004B800082A033A0319AD29013A0319F229073A20
:1004C8000319132A2C2A83160317ED0A8312031320
:1004D8004808831603176D02031C732A742AB1286F
:1004E800ED01A32D831603176D086D076D07D53E23
:1004F800840080016D0883120313E90001300310A2
:10050800E90DFF3E031D832A0310690DA33E8400F5
:100518000010831603176D0883120313E9000130D6
:100528000310E90DFF3E031D942A0310690DA23E36
:1005380084001F3080057C2C831603176D088312F6
:100548000313E90001300310E90DFF3E031DA72A3C
:100558000310690DA23E840000080739023A031906
:10056800B62AB72ACE2A831603176D0883120313F7
:10057800E90001300310E90DFF3E031DBE2A0310F8
:10058800690DA23E8400000807390038031DCD2AF2
:10059800CE2AD72A831603176D086D076D07D63E36
:1005A800840064308000831603176D086D076D079B
:1005B800D63E84000008803A7F3E0318E42AE52AE4
:1005C800EC2A6D086D076D07D63E84006430800004
:1005D8006D086D076D07D63E84000008831203136B
:1005E800E900831603176D086D076D07D53E840073
:1005F8008312031369088000831603176D0883129A
:100608000313E90001300310E90DFF3E031D072B1A
:100618000310690DA33E84000010831603176D08AC
:1006280083120313E90001300310E90DFF3E031D97
:10063800182B0310690DA23E84001F3080057C2C06
:10064800831603176D0883120313E90001300310A2
:10065800E90DFF3E031D2B2B0310690DA23E8400FC
:1006680000080739023A03193A2B3B2B522B831601
:1006780003176D0883120313E90001300310E90D15
:10068800FF3E031D422B0310690DA23E84000008A3
:1006980007390038031D512B522B5B2B8316031788
:1006A8006D086D076D07D63E8400643080008316A0
:1006B80003176D086D076D07D53E84000008803A62
:1006C8007F3E031C682B692B7F2B6D086D076D0718
:1006D800D53E840080016D0883120313E9000130C0
:1006E8000310E90DFF3E031D742B0310690DA33E93
:1006F80084000010B72B6D086D076D07D63E840087
:100708000008803A7F3E03188A2B8B2B922B6D08AA
:100718006D076D07D63E8400643080006D086D0754
:100728006D07D63E8400000883120313E900831680
:1007380003176D086D076D07D53E840083120313F8
:1007480069088000831603176D0883120313E900F4
:1007580001300310E90DFF3E031DAD2B0310690D99
:10076800A33E84000010831603176D088312031339
:10077800E90001300310E90DFF3E031DBE2B0310F5
:10078800690DA23E84001F3080057C2C8316031758
:100798006D086D076D07D53E8400643080006D08D4
:1007A80083120313E90001300310E90DFF3E031D16
:1007B800D82B0310690DA33E840000148316031779
:1007C8006D0883120313E90001300310E90DFF3EA1
:1007D800031DE92B0310690DA23E84001F3080051C
:1007E8007C2C831603176D0883120313E90001306C
:1007F8000310E90DFF3E031DFC2B0310690DA33EFA
:1008080084000018082C092C262C831603176D0861
:100818006D076D07D53E84000008803A1D3E031819
:10082800162C172C1E2C6D086D076D07D53E8400FD
:10083800800A412C6D086D076D07D53E8400643031
:100848008000412C831603176D086D076D07D53E90
:1008580084000008803A7E3E031C332C342C3B2C49
:100868006D086D076D07D53E84008003412C6D0827
:100878006D076D07D53E840080016D086D076D0713
:10088800D53E8400000883120313E900831603177A
:100898006D086D076D07D63E84008312031369083F
:1008A80080007C2C6D0883120313E90001300310CB
:1008B800E90DFF3E031D5B2C0310690DA23E840069
:1008C8008313000EEA006A0C0739003A03197C2CDE
:1008D800013A0319762A033A0319A02A013A03199F
:1008E800242B073A0319CA2B013A0319F52B7C2C40
:1008F800831603176D086D076D07D53E8400801FAA
:10090800862C872C8D2C6D086D076D07D53E8400CD
:1009180080016D086D076D07D53E84000008803A98
:100928001B3E031C982C992CA02C6D086D076D0795
:10093800D53E840064308000831203133A19A52C35
:10094800A62C482D831603176D086D076D07D73E33
:100958008400000883120313E900831603176D0847
:100968006D076D07D53E84000008831203136906DE
:100978000319BF2CC02CA02D831603176D086D0713
:100988006D07D53E8400000883120313E90083161F
:1009980003176D086D076D07D73E84008312031394
:1009A800690880002C2D831603176D086D076D07E5
:1009B800D53E84000008803A6C3E0318E42CE52CF0
:1009C800FA2C6B300A168A1104200A128A1183162F
:1009D800031703106D0DE13E8400831203135408BE
:1009E80083138000840A55088000A02D6A300A16F7
:1009F8008A1104200A128A118316031703106D0D39
:100A0800E13E840083120313540883138000840A90
:100A180055088000A02D831603176D086D076D0714
:100A2800D53E840000086E3E0A168A1104200A1278
:100A38008A118316031703106D0DE13E840083129B
:100A48000313540883138000840A55088000A02DDE
:100A5800831603176D0883120313E900013003108E
:100A6800E90DFF3E031D332D0310690DA23E8400DE
:100A780000080739003A03190F2D013A03190F2D01
:100A8800033A0319D72CA02D831603176D086D0799
:100A98006D07D73E8400000A0319532D542DA02D4D
:100AA8006D086D076D07D73E840080018003862D91
:100AB8006A300A168A1104200A128A11831603174B
:100AC80003106D0DE13E8400831203135408831351
:100AD8008000840A55088000A02DD2300A168A1199
:100AE80004200A128A118316031703106D0DE13EC4
:100AF800840083120313540883138000840A550862
:100B08008000A02D6D0883120313E9000130031043
:100B1800E90DFF3E031D8B2D0310690DA23E8400D5
:100B280000080739003A0319712D013A0319712D8C
:100B3800033A03195C2DA02D83160317ED0A8312BF
:100B480003134708831603176D02031CAC2DAD2D44
:100B5800562C0800DA01EE2F5A080A168A1173205B
:100B68000A128A11D900D22F5908D33E840083175C
:100B7800000ED600D60C560C0139D7005908D33EC2
:100B88008400000ED800580C013957060319CD2DE2
:100B9800CE2DEB2F5908D33E8400801AD42DD52DA5
:100BA800DA2D5908D33E84000013EB2F5908D33EA1
:100BB800840000175A08D60001300310D60DFF3EF6
:100BC800031DE12D0310560DA23E84008313000877
:100BD8001F3960388000EB2F5908D33E84008317F3
:100BE800000ED600D60C560C0139D7005908D33E52
:100BF8008400000ED800580C013957060319052E39
:100C0800062E242E5908D33E8400801A0C2E0D2E51
:100C1800122E5908D33E84000013162E5908D33ECD
:100C2800840000175A08D60001300310D60DFF3E85
:100C3800031D192E0310560DA03E84008313800156
:100C48005908D33E84008317801A2B2E2C2E4D2F43
:100C58005A08D60001300310D60DFF3E031D2F2E73
:100C68000310560DA13E84000D30831300020318B3
:100C78003E2E3F2E6D2E5A08D60001300310D60D99
:100C8800FF3E031D422E0310560DA23E840080191C
:100C98004E2E4F2E5F2E5A08D60001300310D60D67
:100CA800FF3E031D522E0310560DA23E8400001E67
:100CB8005E2E5F2E6D2E5A08D60001300310D60D19
:100CC800FF3E031D622E0310560DA13E8400800ACC
:100CD800872E5A08D60001300310D60DFF3E031D9B
:100CE800702E0310560DA23E840000125A08D6003A
:100CF80001300310D60DFF3E031D7D2E0310560D47
:100D0800A13E840080015A08D60001300310D60D98
:100D1800FF3E031D8A2E0310560DA23E8400801D3F
:100D2800962E972E092F5A08D60001300310D60D9B
:100D3800FF3E031D9A2E0310560DA23E840080111B
:100D48005A08D60001300310D60DFF3E031DA72E0A
:100D58000310560DA23E8400001EB32EB42EEC2EB6
:100D68005A08D60001300310D60DFF3E031DB72EDA
:100D78000310560DA23E840000081F3980388000F9
:100D88005A08D60001300310D60DFF3E031DC72EAA
:100D98000310560DA13E840080015A08D600013088
:100DA8000310D60DFF3E031DD42E0310560DA23E90
:100DB800840000125A08D60001300310D60DFF3EF9
:100DC800031DE12E0310560DA13E84008001092F5A
:100DD8005A08D60001300310D60DFF3E031DEF2E32
:100DE8000310560DA23E840000081F3960388000A9
:100DF8005A08D60001300310D60DFF3E031DFF2E02
:100E08000310560DA23E840000165A08D600013081
:100E18000310D60DFF3E031D0C2F0310560DA23EE6
:100E28008400000ED700570C0739053A031D1D2F03
:100E38001E2FEB2F5A08D60001300310D60DFF3EA7
:100E4800031D212F0310560DA23E84001F3080057C
:100E58005A08D60001300310D60DFF3E031D2F2F70
:100E68000310560DA33E8400001C472F4A2F5A0832
:100E7800D70001300310D70DFF3E031D3E2F03108E
:100E8800570DA33E8400831300144C2F83130010C6
:100E9800EB2F5A08D60001300310D60DFF3E031D74
:100EA800502F0310560DA23E8400831380155A0854
:100EB800D60001300310D60DFF3E031D5E2F031030
:100EC800560DA13E84000D30000203186C2F6D2FC3
:100ED8007A2F5A08D60001300310D60DFF3E031DA5
:100EE800702F0310560DA13E8400800A5A08D600C0
:100EF80001300310D60DFF3E031D7D2F0310560D44
:100F0800A03E84000F30000203188B2F8C2F9A2FDD
:100F18005A08D60001300310D60DFF3E031D8F2F4F
:100F28000310560DA03E8400800AEB2F5A08D60005
:100F380001300310D60DFF3E031D9D2F0310560DE3
:100F4800A23E840000081F39A03880005A08D60045
:100F580001300310D60DFF3E031DAD2F0310560DB3
:100F6800A23E840080115A08D60001300310D60D25
:100F7800FF3E031DBA2F0310560DA23E8400001237
:100F88005A08D60001300310D60DFF3E031DC72FA7
:100F98000310560DA13E84008001EB2F5A08D6009D
:100FA80001300310D60DFF3E031DD52F0310560D3B
:100FB800A23E8400831300080739003A0319B82DAC
:100FC800013A0319F02D033A0319B82DEB2F8312B8
:100FD8000313DA0A41085A02031CF32FF42FB02D29
:100FE8000800F000941370089300941BFC2FFD2F49
:080FF800F62F14160800053461
:101002000A168A113E210A128A150A168A11DD2150
:101012000A128A150A128A1565200A128A15080010
:1010220083120313D700D6014808570203181A285F
:101032001B28212806305702031C20282128582863
:10104200013064285708203E840083138008031D62
:101052002B282C2831285708203E84007830800025
:101062005708203E84000008D5005708E93E840056
:101072005508800063285708E93E840083138001E5
:1010820063285708E93E84008313800803194A281D
:101092004B2855283103031D4F2850286328570831
:1010A200E93E840080036328D601D60A63285408E7
:1010B200003A03192328013A03193C28033A031979
:1010C200422863285608080005306B0203186A2874
:1010D2006B286C28EB0AD901352905306B02031CF9
:1010E200732874283429BA1C772878287D2859084F
:1010F200C93E8400831380105908C93E84008313BB
:10110200000C0139D8005908C93E84000008013991
:10111200580603198D288E283429591891289228A7
:10112200D5285908C93E8400801C98289928D528BA
:101132005908CA3E8400001C9F28A028BD285908CF
:10114200CA3E840080105908CA3E84008018AD2827
:10115200B0285908CA3E840083130014B2288313AE
:10116200001083120313EB015908013E0A168A117B
:1011720018220A128A153B295908C93E8400801890
:10118200C628C9285908C93E840083130014CB28F5
:101192008313001083120313EB0159080A168A11F4
:1011A20018220A128A153B29591CD828D9281C2929
:1011B2005908C93E8400801CDF28E0281C295908F0
:1011C200C83E8400001CE628E72804295908C83EC6
:1011D200840080105908C83E84008018F428F7283B
:1011E2005908C83E840083130014F92883130010A1
:1011F20083120313EB015908FF3E0A168A111822C3
:101202000A128A153B295908C93E840080180D2903
:1012120010295908C93E840083130014122983132C
:10122200001083120313EB0159080A168A111822BF
:101232000A128A153B295908C93E840080182529BB
:1012420028295908C93E8400831300142A298313CC
:10125200001083120313EB0159080A168A1118228F
:101262000A128A153B29D90A45085902031C3A2950
:101272003B296E280800D400D501C529061C422945
:101282004329092A83120313D501D50A092A831691
:101292000317881D4D294E29092A4329831603174E
:1012A200081D54295529092A432983160317881C26
:1012B2005B295C29092A432983160317081C622922
:1012C2006329092A432983160317891E69296A2972
:1012D200092A432983160317091E70297129092A2D
:1012E200432983160317891D77297829092A432957
:1012F20083160317091D7E297F29092A432983168C
:101302000317891C85298629092A4329831603176D
:10131200091C8C298D29092A4329881F9129922980
:10132200092A4329081F96299729092A4329881E31
:101332009B299C29092A4329081EA029A129092A97
:101342004329871EA529A629092A4329071EAA2956
:10135200AB29092A4329081CAF29B029092A4329A4
:10136200871DB429B529092A4329071DB929BA2994
:10137200092A4329871CBE29BF29092A4329851C1A
:10138200C329C429092A43295408003A03193F29C9
:10139200013A03194829033A03194F29013A03195B
:1013A2005629073A03195D29013A03196429033AB8
:1013B20003196B29013A031972290F3A0319792982
:1013C200013A03198029033A03198729013A0319BB
:1013D2008E29073A03199329013A03199829033AE6
:1013E20003199D29013A0319A2291F3A0319A729B2
:1013F200013A0319AC29033A0319B129013A031935
:10140200B629073A0319BB29013A0319C029092A47
:1014120083120313D508031D0F2A102A132AD5019C
:10142200D50A142AD50155080800D600322B5508D2
:10143200031D1C2A1E2AB515432BB511432B550833
:10144200031D242A262A3516432B3512432B550811
:10145200031D2C2A2E2AB516432BB512432B5508F1
:10146200031D342A362A3414432B3410432B5508D7
:10147200031D3C2A3E2A3814432B3810432B5508AF
:10148200031D442A462AB816432BB812432B55088B
:10149200031D4C2A4E2A3817432B3813432B54086A
:1014A200003A0319182A013A0319202A033A0319A8
:1014B200282A013A0319302A073A0319382A013A2D
:1014C2000319402A033A0319482A013A0319432B04
:1014D2000F3A0319432B013A0319432B033A031919
:1014E200432B013A0319432B073A0319432B432B8E
:1014F200B710432BB714432B5408003A0319792A27
:10150200013A03197B2A432B5508031D892A8B2A8A
:101512003415432B3411432B5508031D912A932A6A
:10152200B415432BB411432B5508031D992A9B2A4A
:101532003416432B3412432B5508031DA12AA32A28
:10154200B416432BB412432B5508031DA92AAB2A08
:10155200B814432BB810432B5508031DB12AB32AE4
:101562003816432B3812432B5508031DB92ABB2AC0
:10157200B817432BB813432B5508031DC12AC32A9E
:101582003916432B3912432B5508031DC92ACB2A7E
:10159200B916432BB912432B5508031DD12AD32A5E
:1015A2003917432B3913432B432B5408003A0319A1
:1015B200852A013A03198D2A033A0319952A013A19
:1015C20003199D2A073A0319A52A013A0319AD2ADC
:1015D200033A0319B52A013A0319BD2A0F3A03192E
:1015E200C52A013A0319CD2A033A0319D52A013A29
:1015F2000319D52A432B5508031D002B022BB514C2
:10160200432BB510432B5508031D082B0A2B351508
:10161200432B3511432B5508031D102B122BB917E1
:10162200432BB913432B5508031D182B1A2B3614C1
:10163200432B3610432B5408003A0319FC2A013A73
:101642000319042B033A03190C2B013A0319142B27
:10165200432B5508031D2E2B302BB715432BB711E7
:10166200432B5608003A0319502A013A03197D2ADE
:10167200033A0319D62A013A03191C2B073A031914
:101682002A2B432B3408850035088600360887004C
:10169200370888003808890039088316031788003C
:1016A20008001408FC003C308312C300FC1A5A2BB9
:1016B2005B2B802B7C195E2B5F2B802B7C1C622B7F
:1016C200632B802BFC1D662B672B802B640019304B
:1016D20083120313AF000A168A1102200A128A1516
:1016E2000317AC00FD01FD0A0313CC01CD01141F49
:1016F2007B2B7C2BBA2CCD15CD141413BA2CFC1ECB
:10170200832B842B412C7C19872B882B412C7C1C0E
:101712008B2B8C2B412C7D08193A031D912B922B7C
:10172200962B4D15CD141830FD00141F992B9A2BB2
:101732009D2BCD15CD1414137D082C3E84000A1662
:101742008A1102200A128A15831780007D03031D65
:10175200AB2BAC2BDC2BB92B0B30AF00CD2B1330CA
:10176200AF00CD2B0430AF00CD2B4D15CD14CD2BBA
:101772007D082C3E84000008013A0319AD2B033A80
:101782000319AD2B013A0319B02B073A0319AD2BFC
:10179200013A0319B32BB62B7D082C3E84000008B6
:1017A200CC00CD131A302F02031CD82BD92B3F2C7F
:1017B2004D15CD143F2C7D082F020318E12BE22B8F
:1017C200E32BD92B7D082F06031DE82BE92B3F2C99
:1017D2002D30F3000130F4007D08FE3EF5000A16BC
:1017E2008A11E0200A128A157408A9007308A80059
:1017F2007D082B3E840083170008F8007D082C3EEC
:1018020084000008D1007808D00051082906031D81
:101812000C2C5008280603190F2C102C172CA80189
:10182200A9014D1483120313CD143F2C4D108316BE
:101832000317BA08031D1E2C1F2C132C831203132B
:10184200D201D20AD301382C5308193A031D2A2C8B
:101852002B2C2C2CD30352082C3E84000008F800B9
:101862005308BA3E840078088000D20AD30A52088C
:101872007D0203183D2C3E2C252CCD10FD0ABA2CDE
:10188200FC1A442C452C592C7C1D482C492C592CD3
:101892007C184C2C4D2C592CFC1D502C512C592CA5
:1018A200B0014C080A128A11F5270A128A15BA2CBD
:1018B200FC1E5C2C5D2CAC2C7C1D602C612CAC2C99
:1018C2007C18642C652CAC2C9E2C2808CD004D086D
:1018D2000A128A11F5270A128A15B00ABA2C2908A7
:1018E200CE004E080A128A11F5270A128A156E2CAA
:1018F2004C30F3000030F4000330F5000A168A1170
:10190200E0200A128A157408A9007308A8002808A2
:101912000A128A11F5270A128A156E2C29080A1250
:101922008A11F5270A128A156E2CCD1755300A1224
:101932008A11F5270A128A15BA2C3008003A0319BF
:10194200662C013A0319702C033A0319792C013AD7
:1019520003198F2C962CFC1EAF2CB02CBA2C7C19A0
:10196200B32CB42CBA2C7C18B72CB82CBA2C64002B
:10197200BA2C08003A08031DBF2C402E2F2E3C081B
:1019820083120313AC04831603173E088312031356
:10199200AD04831603173D0883120313DB0083167D
:1019A20003173B0883120313DA00DA09DB095A082A
:1019B200AC055B08AD05DF01DE01DE0A8316031705
:1019C2004008831203135E050319E82CE92CFA2C54
:1019D2005F08DA0001300310DA0DFF3E031DEC2C24
:1019E20003105A0DA23E8400831300081F394038A9
:1019F2008000831603173F08831203135E05031941
:101A0200032D042D152D5F08DA0001300310DA0DC5
:101A1200FF3E031D072D03105A0DA23E84008313BF
:101A220000081F3920388000DF0A0310DE0D043061
:101A32005F02031C1D2D1E2DDF2CDF01DE01DE0ADD
:101A420003105F0DDD005D08013EDC008316031705
:101A52004108831203135E050319302D312D3A2DEF
:101A62005D08BD3E8400831300081F398038800062
:101A72004C2D831603174208831203135E050319C4
:101A8200432D442D4C2D5C08BD3E84008313000879
:101A92001F3980388000DF0A0310DE0D06305F0236
:101AA200031C542D552D212D83160317BA01402EE8
:101AB20083120313DF015F08DA0001300310DA0D2D
:101AC200FF3E031D5F2D03105A0DA23E84008313B7
:101AD20000080739DB005F08BB3E8400831700085B
:101AE20007395B060319762D772D9E2D5F08BB3EC5
:101AF200840007300005DA005F08DB0001300310C4
:101B0200DB0DFF3E031D802D03105B0DA23E840002
:101B1200831300085A06F8395A0680005F08BB3E54
:101B2200840083170008D4005F085F075F07143E34
:101B32000A168A1192200A128A1583120313DF0AE7
:101B420004305F02031CA62DA72D5C2D552D831298
:101B52000313DF015F08BB3E840083170008DA002D
:101B62005F08B03E8400831300085A060319BA2D99
:101B7200BB2DD32D5F08BB3E840083170008DA001B
:101B82005F08B03E84005A08831380005F08B03EAD
:101B920084000008D4005F08323E0A168A1192209F
:101BA2000A128A1583120313DF0A0D305F02031C27
:101BB200DB2DDC2DAB2D552D83120313DF015F08C6
:101BC200BB3E840083170008DA005F08203E8400D1
:101BD200831300085A060319EF2DF02D082E5F0813
:101BE200BB3E840083170008DA005F08203E8400B1
:101BF2005A08831380005F08203E84000008D40046
:101C02005F082A3E0A168A1192200A128A15831246
:101C12000313DF0A06305F02031C102E112EE02D83
:101C2200552D831203133A18172E182E282E8316B9
:101C320003173B0883120313BA003A1C212E222EEB
:101C4200552D0A168A11AA240A128A15552D8316B1
:101C520003173B0883120313BA00552D3A08013AC1
:101C62000319C02C033A0319592D013A0319A82D5F
:101C7200073A0319DD2D013A0319122E552D83124D
:101C820003133103031D462E472E4F2E4308031D17
:101C92004B2E4E2E4D12C3034F2E4D1608000E3002
:101CA20083120313DB00DC010E300A168A113A207C
:101CB2000A128A150313D800D901DB0A0319DC0AB8
:101CC2005B080A168A113A200A128A150313D600F3
:101CD200D7015608D700D6015608D8045708D904A8
:101CE200DB0A0319DC0A5908AA3A553003195806C7
:101CF200031D7C2E7D2E222F5B080A168A113A20A4
:101D02000A128A150313AC00AD01DB0A0319DC0ABF
:101D12005B080A168A113A200A128A150313D600A2
:101D2200D7015608D700D6015608AC045708AD04AF
:101D3200DB0A0319DC0ADA01DF2E5A085A075A07AE
:101D4200D53E84005B080A168A113A200A128A15C7
:101D5200831380000313DB0A0319DC0A5A085A07AB
:101D62005A07D63E84005B080A168A113A200A12E4
:101D72008A15831380000313DB0A0319DC0A5B084C
:101D82000A168A113A200A128A1507390313D60055
:101D92005A08D70001300310D70DFF3E031DCC2E89
:101DA2000310570DA23E8400831300085606F8392B
:101DB20056068000DB0A0319DC0ADA0A47085A02CF
:101DC200031CE42EE52E9E2E2A30DB00DC01DA0114
:101DD2005A08203E84005B080A168A113A200A1229
:101DE2008A15831380000313DB0A0319DC0ADA0A5B
:101DF20006305A02031CFE2EFF2EE92E3230DB0083
:101E0200DC01DA015A08B03E84005B080A168A1126
:101E12003A200A128A15831380000313DB0A03197E
:101E2200DC0ADA0A0D305A02031C182F192F032F6D
:101E320042300A168A113A200A128A150313CA007E
:101E4200FF2FD4015B080A168A1192200A128A1502
:101E520083120313DB0A0319DC0AD4015B080A1696
:101E62008A1192200A128A1583120313DB0A0319BC
:101E7200DC0AAC01AD01DA01822FD4015B080A163B
:101E82008A1192200A128A1583120313DB0A03199C
:101E9200DC0AD4015B080A168A1192200A128A15FA
:101EA20083120313DB0A0319DC0A5A085A075A077A
:101EB200D53E8400831380015A085A075A07D63E3A
:101EC20084008001D401D40A5B080A168A11922088
:101ED2000A128A1583120313DB0A0319DC0A5A0851
:101EE200D60001300310D60DFF3E031D732F0310E1
:101EF200560DA23E840083130008F8390138800091
:101F0200DA0A47085A02031C872F882F3E2F2A30ED
:101F1200DB00DC01DA015A08203E840078308313AA
:101F220080005A08203E84000008D4005B080A168C
:101F32008A1192200A128A1583120313DB0A0319EB
:101F4200DC0ADA0A06305A02031CA82FA92F8C2FAA
:101F52003230DB00DC01DA01D4015B080A168A1197
:101F620092200A128A1583120313DB0A0319DC0A70
:101F72005A08B03E840083138001DA0A0D305A02F7
:101F8200031CC42FC52FAD2F4230DB00DC01CA0178
:101F9200D40142300A168A1192200A128A1583123B
:101FA2000313DB0A0319DC0A0D30DB00DC01D40168
:101FB200D40A0D300A168A1192200A128A15831247
:101FC2000313DB0A0319DC0A5530D4005B080A1636
:101FD2008A1192200A128A1583120313DB0A03194B
:101FE200DC0AAA30D4005B080A168A1192200A126F
:0E1FF2008A1583120313DB0A0319DC0A0800A8
:102004001308080083120313D7005708D800D90116
:102014000310D80DD90D1430D8070318D90AFE308F
:10202400D8050130D9050030D8040630D904590840
:10203400D5005808D40008007208F006B30108302F
:102044003302031C2628272828283928701C2B280B
:102054002C2834280310F10CF00C0130F006A030C9
:10206400F10637280310F10CF00CB30A21280800FC
:10207400D4006400831603178C1841284428831263
:1020840003133B2883120313540803178D003F30B6
:1020940083168C050C1403100C1803140030031859
:1020A400013083120C080800D801D901541C5B28A4
:1020B4005C2862285608D8070318D90A5708D90794
:1020C4000310D60DD70D0310D50CD40C55085404A9
:1020D400031D6D286E2858285908D5005808D400C7
:1020E4000800D400D5018228D501D50A90280830EB
:1020F400D50090280D30D50090281130D5009028B7
:102104005408003A03197628013A03197928033A46
:1021140003197C28013A03197F28902855080800E0
:10212400D500831603178C189828992893288312AE
:102134000313550803178D000313540803178C0069
:102144003F3083168C0503108B1FA928AA28AB28BF
:1021540003148B130C1555308D00AA308D008C148C
:102164000C11031CB628B728B8288B1708000D30AB
:10217400D700D8010D300A168A113A200A168A119E
:102184000313D600D70A0319D80A56030319CB2818
:10219400CC28DF28D40157080A168A1192200A167F
:1021A4008A1183120313D70A0319D80AD4015708D2
:1021B4000A168A1192200A168A110800FF30831227
:1021C400A600FF30A700B20103292708F100260862
:1021D400F00032087307F60074080318013EF70094
:1021E400760884008317771C83130008F2000A160C
:1021F4008A111E200A168A117108A7007008A60009
:10220400B20A75083202031C08290929E72827089D
:10221400F4002608F3000800D400D5012529D501CF
:102224003C290230D5003C290330D5003C29093033
:10223400D5003C290A30D5003C290E30D5003C2974
:102244001230D5003C295408003A03191129013AE7
:1022540003191329033A03191629013A03191929F1
:10226400073A03191C29013A03191F29033A0319D0
:1022740022293C295508080003303F02031843294A
:1022840044295129D401D501D50A04300A128A15EA
:1022940016220A168A1183120313BF0A6D291930F4
:1022A4003F020318562957296029D401D501043067
:1022B4000A128A1516220A168A114D29D401D5014B
:1022C400D50A04300A128A1516220A168A118312B4
:1022D4000313BF01BF0A08000B1D71297229892944
:1022E4008B1E75297629892983120313BB0A323080
:1022F4002E0203187E297F298129AE0A86290A160F
:102304008A11D8220A168A11823081020B11831293
:1023140003138C1D8E298F299A298C1183168C1DE9
:10232400942995299A290A128A1552230A168A1180
:102334007B088A007A088400790E8300FE0E7E0EE4
:102344000900DC01DD01DE01DF01541CAA29AB29EF
:10235400C2295808DC07590803110318013E031960
:10236400B429DD075A0803110318013E0319BB29D8
:10237400DE075B0803110318013E0319C229DF07B6
:102384000310D80DD90DDA0DDB0D0310D70CD60CC4
:10239400D50CD40C5708560455045404031DD329F2
:1023A400D429A7295F08D7005E08D6005D08D500A8
:1023B4005C08D4000800DB01112AD901D90ADA012A
:1023C4005B0AE7290310D90DDA0DFF3E031DE4294A
:1023D40059082C05D7005A082D05D8005808570469
:1023E400031DF529F629042A3A19F929FA29042A98
:1023F4005B08D400D50100300A128A1516220A1689
:102404008A110E2A5B08D400D501D50A00300A12BD
:102414008A1516220A168A1183120313DB0A460848
:102424005B02031C162A172ADF290800D700570865
:10243400C93E840000181F2A202A3B2AD401D50152
:1024440001300A128A1516220A168A115C30831288
:1024540003139B0030309D041430BD005708D40092
:10246400D501D50A02300A128A1516220A168A11D3
:10247400552AD401D40AD50101300A128A1516222C
:102484000A168A11831203139B01CF309D05143061
:10249400BD005708D400D501D50A02300A128A15A6
:1024A40016220A168A110800F100782A7008031D02
:1024B4005C2A5E2AB514862AB510862A7008031D84
:1024C400642A662A3515862A3511862A7008031D62
:1024D4006C2A6E2AB917862AB913862A7008031D36
:1024E400742A762A3614862A3610862A7108003A07
:1024F4000319582A013A0319602A033A0319682A6E
:10250400013A0319702A862A3408850035088600A2
:102514003608870037088800380889003908831688
:10252400031788000800D400D501B62A0430D5006A
:10253400D62A0530D500D62A0630D500D62A07304B
:10254400D500D62A0B30D500D62A0C30D500D62A91
:102554000F30D500D62A1030D500D62A1330D50036
:10256400D62A1430D500D62A5408003A0319982ADA
:10257400013A03199B2A033A03199E2A013A0319C3
:10258400A12A073A0319A42A013A0319A72A033AEC
:102594000319AA2A013A0319AD2A0F3A0319B02ADA
:1025A400013A0319B32AD62A5508080047084B02F2
:1025B400031CDD2ADE2ADF2ACB0103104B0DE13E8A
:1025C400840083130008840A00040319EA2AEB2A0E
:1025D4001B2B03104B0DE13E8400001CF22AF32A4E
:1025E400FC2AF001F00A4B080A168A1156220A1630
:1025F4008A11032BF0014B080A168A1156220A1677
:102604008A118312031303104B0DE13E840000086A
:10261400F200840A0008F3000310F30CF20C031018
:102624004B0DE13E840072088000840A7308800028
:102634001C2BCB0A0800DB01412B6B300A168A11D4
:1026440004200A168A1103105B0DE13E840054082D
:1026540083138000840A550880005A2B6E300A16B2
:102664008A1104200A168A1103105B0DE13E8400CE
:10267400540883138000840A550880005A2B5B0891
:10268400DA0001300310DA0DFF3E031D442B031062
:102694005A0DA23E8400831300080739003A031937
:1026A400302B013A0319302B033A03191F2B5A2BF1
:1026B400DB0A04305B02031C602B612B412B0800F6
:1026C400DB01AB2BD901D90ADA015B0A6C2B0310AD
:1026D400D90DDA0DFF3E031D692B5B080A168A111A
:1026E4000E210A168A11DC005C08D33E840083178D
:1026F400000ED600D60C560C0139D7005C08D33E28
:102704008400000ED800580C0139570603198B2B8E
:102714008C2B972B5C08D33E8400801A922B932B2E
:10272400A22B5C08D33E840000135A08D700590832
:10273400D600D609D7095608AA055708AB05AA2B0F
:102744005C08D33E840000175908AA045A08AB0455
:10275400DB0A40085B02031CB02BB12B642B08007E
:10276400DC01DD01DE01DF01570856045504540481
:102774000319BD2BBE2BFA2BE001E00AC72B031073
:10278400D40DD50DD60DD70DE00AD71FCA2BCB2BF0
:10279400C12B0310DC0DDD0DDE0DDF0D57085B02D0
:1027A400031DDE2B56085A02031DDE2B5508590261
:1027B400031DDE2B54085802031CE12BE22BF12BE2
:1027C4005408D8025508031C550FD9025608031C97
:1027D400560FDA025708031C570FDB025C14031070
:1027E400D70CD60CD50CD40CE00BF92BFA2BCB2B35
:1027F4005F08D7005E08D6005D08D5005C08D400E9
:102804000800D8014F2C58080A128A153C210A16D0
:102814008A11D7005808D33E840083170008013971
:1028240057060319162C172C242C5808D33E840061
:1028340057080010031D00145808D33E8400E130EB
:1028440080054C2C5808D33E8400000C0F39D60068
:102854000430560203182F2C302C3E2C5808D33E3B
:102864008400000C0F39D600D60AD60D000856068F
:10287400E139560680004C2C5808D33E84000018D9
:10288400472C4A2C5808D33E8400831780164C2CBE
:102894008317801283120313D80A44085802031CB6
:1028A400542C552C052C0800153083120313C40036
:1028B4000730C0000730C6000430C1000430C70030
:1028C4000A30C2000A30C5000310450CC800173096
:1028D4004402031C6E2C6F2C712C1630C4000E3075
:1028E4004002031C762C772C792C0D30C0000E305E
:1028F4004602031C7E2C7F2C812C0D30C600053033
:102904004102031C862C872C892C0430C10005301D
:102914004702031C8E2C8F2C912C0430C7000D30E1
:102924004202031C962C972C992C0C30C2000D30BB
:102934004502031C9E2C9F2CA12C0C30C500073093
:102944004802031CA62CA72CA92C0630C80008009A
:102954001030D800D9012C08D6005608D400103005
:102964000A168A1192200A168A1183120313D80AAE
:102974000319D90A2D08D6005608D40058080A1697
:102984008A1192200A168A1183120313D80A031992
:10299400D90AD701F72C570857075707D53E8400A3
:1029A40083130008D40058080A168A1192200A16C4
:1029B4008A1183120313D80A0319D90A570857072F
:1029C4005707D63E840083130008D40058080A161B
:1029D4008A1192200A168A1183120313D80A031942
:1029E400D90AD80A0319D90AD70A47085702031C77
:1029F400FC2CFD2CCD2C42300A168A113A200A16E2
:102A04008A11013E0313C9004908FF3A031D0B2D27
:102A14000C2D0E2DC901C90A4908D40042300A16EA
:102A24008A1192200A168A11080083169101033034
:102A3400831203178700831603138F010C3083124C
:102A44009D005C309B0030309D04F9308316920069
:102A540083128C1083168C100430831292008330FE
:102A6400831681008230831281000B118B1616307D
:102A740003178900C030831603138704243093009E
:102A8400940183129401363094008C1183168C15B2
:102A940006140317851505158514051487160716DE
:102AA4008715071587140714031388170817881642
:102AB4000816871607160814871507158714851432
:102AC400881186110612861205100910891209133D
:102AD400081588100511851105128512891009122F
:102AE40089130317051285120513031386100611A3
:102AF40003178513031307108312B5143515B9177B
:102B040036143408850035088600360887003708EF
:102B14008800380889003908831603178800640080
:102B240008000A168A1150270A168A110A168A11F1
:102B340017250A168A110A168A15C8270A168A1131
:102B44000A168A1156240A168A110A168A11B920FD
:102B54000A168A110A128A1550260A168A110A16AA
:102B64008A111D230A168A118B170B17BD2D831684
:102B7400081183128C108C18C02DC12DB92D0A1682
:102B84008A1156240A168A110C303B02031CCB2DE1
:102B9400CC2DEA2D0C30BB0265303B02031CD32D37
:102BA400D42DD52DBB01BE0A0A168A1103240A1698
:102BB4008A113D08031DDF2DEA2DBD03BD08031D49
:102BC400E42DE52DEA2D0A168A15E8270A168A113E
:102BD40008303E02031CEF2DF02DC12DBE01BC0AAE
:102BE40019303C02031CF72DF82DFB2DBC01B1015B
:102BF400B10A0A168A15D8270A168A110A128A11E6
:102C040041200A168A110A128A15BB240A168A114F
:102C14000A128A1501200A168A1183120313B101BC
:102C2400C12D0A128A110E28DA01A42E5A080A1696
:102C34008A1195220A168A11D9005908D33E8400B4
:102C44008317000ED600D60C560C0139D70059084C
:102C5400D33E8400000ED800580C013957060319DE
:102C6400342E352E4B2E5908D33E8400801A3B2E29
:102C74003C2E412E5908D33E84000013452E59089A
:102C8400D33E840000175A08BD3E8400F0308313FD
:102C940080055908D33E84008317801A522E532E80
:102CA4007A2E5A08BD3E84008313001E5A2E5B2ED2
:102CB400662E5A08BD3E840000081F394038800043
:102CC4005A08BD3E840000125A08BD3E8400000E1E
:102CD400D600560C0739033A031D712E722EA32E0B
:102CE4005A08BD3E840000081F3920388000A32EF6
:102CF4005A08BD3E8400831300080F39D6000630FD
:102D040056020318862E872E982E5A08BD3E84003C
:102D140000080F39D600D60A00085606F0395606C0
:102D240080005A08BD3E84000016A32E5A08BD3EFA
:102D3400840000081F39603880005A08BD3E8400B2
:102D44000012DA0A42085A02031CA92EAA2E182ECF
:102D5400080083120313E800E3014608680203181D
:102D6400B42EB52EBB2E0D306802031CBA2EBB2E1A
:102D7400BD2E00304F2F62086104031DC22EC32EE6
:102D8400CC2E0310680DA03E840083178001840AB2
:102D940080014E2F0310680DA03E840083170008A5
:102DA400840A00040319D72ED82EF22E0310680DBE
:102DB400A03E840001308002840F0030031C800395
:102DC400800284030310680DA03E84000008840A76
:102DD4000004031DEE2EEF2E4E2FE301E30A4E2FC7
:102DE4006808B03E840083130008D400D5013C3049
:102DF400D600D7010A168A1156200A168A115408D9
:102E0400E4005508E5000030E51BFF30E600E7006C
:102E14000030D7000030D6000330D500E230D400B3
:102E24006708DB006608DA006508D9006408D80082
:102E34000A168A11A3210A168A115708E7005608B0
:102E4400E6005508E5005408E4000030D7000030DF
:102E5400D6000330D500E830D4006708DB006608EC
:102E6400DA006508D9006408D8000A168A11B2236A
:102E74000A168A115708E7005608E6005508E500C7
:102E84005408E4000310680DA03E8400640883170E
:102E94008000840A6508800063080800D50155088D
:102EA400D40001300310D40DFF3E031D542F031032
:102EB400540DA23E84000008F839013880005508FA
:102EC400D40001300310D40DFF3E031D642F031002
:102ED400540DA03E840080015508D4000130031035
:102EE400D40DFF3E031D712F0310540DA13E840029
:102EF40080015508D40001300310D40DFF3E031D9A
:102F04007E2F0310540DA23E840080115508D40076
:102F140001300310D40DFF3E031D8B2F0310540DFD
:102F2400A23E840000125508D40001300310D40DD1
:102F3400FF3E031D982F0310540DA23E84001F3042
:102F440080055508D40001300310D40DFF3E031D45
:102F5400A62F0310540DA33E84000010D50A04309C
:102F64005502031CB62FB72F512FD5015508BD3E6E
:102F74008400F03080055508BD3E840000125508D9
:102F8400BD3E84001F308005D50A0C305502031C59
:102F9400CC2FCD2FB82FD5015508C93E84008313FB
:102FA40000145508C93E840080105508203E840052
:102FB40083178001D50A0C305502031CE22FE32F3E
:102FC400CE2FD501550855075507D53E84008313E8
:102FD4008001550855075507D73E84008001D50A5E
:102FE40004305502031CF72FF82FE42FBA01B40163
:0C2FF400B501B601B701B801B901080031
:103F9000FD0183120313B00183160317BA01080051
:103FA00064008001840A0406031900340406D12F3A
:103FB0000A168A1162230A168A150A128A11AE2578
:103FC0000A168A150A168A1116260A168A15080074
:103FD000D701F62F5708D400D50102300A128A15EE
:103FE00016220A168A1583120313D70A45085702A8
:103FF000031CFB2FFC2FEA2F9B01CF309D050800EF
:02400E00F2FFBF
:00000001FF
